{
  "_format": "hh-sol-artifact-1",
  "contractName": "CrossSwap",
  "sourceName": "contracts/CrossSwap.sol",
  "abi": [
    {
      "inputs": [
        {
          "internalType": "address",
          "name": "_WNATIVE",
          "type": "address"
        }
      ],
      "stateMutability": "nonpayable",
      "type": "constructor"
    },
    {
      "anonymous": false,
      "inputs": [
        {
          "indexed": true,
          "internalType": "address",
          "name": "previousOwner",
          "type": "address"
        },
        {
          "indexed": true,
          "internalType": "address",
          "name": "newOwner",
          "type": "address"
        }
      ],
      "name": "OwnershipTransferred",
      "type": "event"
    },
    {
      "inputs": [
        {
          "internalType": "address[]",
          "name": "_path0",
          "type": "address[]"
        },
        {
          "internalType": "address[]",
          "name": "_path1",
          "type": "address[]"
        },
        {
          "internalType": "address",
          "name": "_routerAddr0",
          "type": "address"
        },
        {
          "internalType": "address",
          "name": "_routerAddr1",
          "type": "address"
        },
        {
          "internalType": "uint256",
          "name": "_amount",
          "type": "uint256"
        }
      ],
      "name": "crossSwap",
      "outputs": [],
      "stateMutability": "nonpayable",
      "type": "function"
    },
    {
      "inputs": [
        {
          "internalType": "address",
          "name": "_from",
          "type": "address"
        },
        {
          "internalType": "address",
          "name": "_middle0",
          "type": "address"
        },
        {
          "internalType": "address",
          "name": "_middle1",
          "type": "address"
        },
        {
          "internalType": "address",
          "name": "_to",
          "type": "address"
        },
        {
          "internalType": "address",
          "name": "_routerAddr0",
          "type": "address"
        },
        {
          "internalType": "address",
          "name": "_routerAddr1",
          "type": "address"
        },
        {
          "internalType": "uint256",
          "name": "_amount",
          "type": "uint256"
        }
      ],
      "name": "crossSwap",
      "outputs": [],
      "stateMutability": "nonpayable",
      "type": "function"
    },
    {
      "inputs": [
        {
          "internalType": "address",
          "name": "_from",
          "type": "address"
        },
        {
          "internalType": "address",
          "name": "_to",
          "type": "address"
        },
        {
          "internalType": "address",
          "name": "_routerAddr0",
          "type": "address"
        },
        {
          "internalType": "address",
          "name": "_routerAddr1",
          "type": "address"
        },
        {
          "internalType": "uint256",
          "name": "_amount",
          "type": "uint256"
        }
      ],
      "name": "crossSwap",
      "outputs": [],
      "stateMutability": "nonpayable",
      "type": "function"
    },
    {
      "inputs": [
        {
          "internalType": "address",
          "name": "_from",
          "type": "address"
        },
        {
          "internalType": "uint256",
          "name": "_amount",
          "type": "uint256"
        },
        {
          "internalType": "address",
          "name": "_middle",
          "type": "address"
        },
        {
          "internalType": "address",
          "name": "_to",
          "type": "address"
        },
        {
          "internalType": "address",
          "name": "routerAddr",
          "type": "address"
        },
        {
          "internalType": "address",
          "name": "_recipient",
          "type": "address"
        }
      ],
      "name": "customZapInToken",
      "outputs": [],
      "stateMutability": "nonpayable",
      "type": "function"
    },
    {
      "inputs": [
        {
          "internalType": "address",
          "name": "_from",
          "type": "address"
        },
        {
          "internalType": "uint256",
          "name": "amount",
          "type": "uint256"
        },
        {
          "internalType": "address",
          "name": "_middle",
          "type": "address"
        },
        {
          "internalType": "address",
          "name": "_to",
          "type": "address"
        },
        {
          "internalType": "address",
          "name": "routerAddr0",
          "type": "address"
        },
        {
          "internalType": "address",
          "name": "routerAddr1",
          "type": "address"
        },
        {
          "internalType": "address",
          "name": "_recipient",
          "type": "address"
        }
      ],
      "name": "customZapOutToken",
      "outputs": [],
      "stateMutability": "nonpayable",
      "type": "function"
    },
    {
      "inputs": [],
      "name": "owner",
      "outputs": [
        {
          "internalType": "address",
          "name": "",
          "type": "address"
        }
      ],
      "stateMutability": "view",
      "type": "function"
    },
    {
      "inputs": [],
      "name": "renounceOwnership",
      "outputs": [],
      "stateMutability": "nonpayable",
      "type": "function"
    },
    {
      "inputs": [
        {
          "internalType": "address",
          "name": "newOwner",
          "type": "address"
        }
      ],
      "name": "transferOwnership",
      "outputs": [],
      "stateMutability": "nonpayable",
      "type": "function"
    },
    {
      "inputs": [
        {
          "internalType": "address",
          "name": "token",
          "type": "address"
        }
      ],
      "name": "withdraw",
      "outputs": [],
      "stateMutability": "nonpayable",
      "type": "function"
    },
    {
      "inputs": [
        {
          "internalType": "address",
          "name": "_to",
          "type": "address"
        },
        {
          "internalType": "address",
          "name": "routerAddr",
          "type": "address"
        },
        {
          "internalType": "address",
          "name": "_recipient",
          "type": "address"
        }
      ],
      "name": "zapIn",
      "outputs": [],
      "stateMutability": "payable",
      "type": "function"
    },
    {
      "inputs": [
        {
          "internalType": "address",
          "name": "_from",
          "type": "address"
        },
        {
          "internalType": "uint256",
          "name": "amount",
          "type": "uint256"
        },
        {
          "internalType": "address",
          "name": "_to",
          "type": "address"
        },
        {
          "internalType": "address",
          "name": "routerAddr",
          "type": "address"
        },
        {
          "internalType": "address",
          "name": "_recipient",
          "type": "address"
        }
      ],
      "name": "zapInToken",
      "outputs": [],
      "stateMutability": "nonpayable",
      "type": "function"
    },
    {
      "inputs": [
        {
          "internalType": "address",
          "name": "_from",
          "type": "address"
        },
        {
          "internalType": "uint256",
          "name": "amount",
          "type": "uint256"
        },
        {
          "internalType": "address",
          "name": "routerAddr",
          "type": "address"
        },
        {
          "internalType": "address",
          "name": "_recipient",
          "type": "address"
        }
      ],
      "name": "zapOut",
      "outputs": [],
      "stateMutability": "nonpayable",
      "type": "function"
    },
    {
      "inputs": [
        {
          "internalType": "address",
          "name": "_from",
          "type": "address"
        },
        {
          "internalType": "uint256",
          "name": "amount",
          "type": "uint256"
        },
        {
          "internalType": "address",
          "name": "_to",
          "type": "address"
        },
        {
          "internalType": "address",
          "name": "routerAddr",
          "type": "address"
        },
        {
          "internalType": "address",
          "name": "_recipient",
          "type": "address"
        }
      ],
      "name": "zapOutToken",
      "outputs": [],
      "stateMutability": "nonpayable",
      "type": "function"
    }
  ],
  "bytecode": "0x60806040523480156200001157600080fd5b506040516200324f3803806200324f83398101604081905262000034916200009b565b600080546001600160a01b031916339081178255604051909182917f8be0079c531659141344cd1fd0a4f28419497f9722a3daafe3b4186f6b6457e0908290a350600180546001600160a01b0319166001600160a01b0392909216919091179055620000cb565b600060208284031215620000ad578081fd5b81516001600160a01b0381168114620000c4578182fd5b9392505050565b61317480620000db6000396000f3fe6080604052600436106100d25760003560e01c8063715018a61161007f5780638da5cb5b116100595780638da5cb5b146101e1578063cee6202c1461020d578063d352a3f81461022d578063f2fde38b1461024d57600080fd5b8063715018a61461018c578063727a70ba146101a157806379ebf646146101c157600080fd5b806335e8b7d5116100b057806335e8b7d51461013957806351cff8d91461014c5780635cc7647c1461016c57600080fd5b806318f138d2146100d75780631b71afbd146100f957806328d001c014610119575b600080fd5b3480156100e357600080fd5b506100f76100f2366004612d27565b61026d565b005b34801561010557600080fd5b506100f7610114366004612bbc565b61043a565b34801561012557600080fd5b506100f7610134366004612c9b565b61066f565b6100f7610147366004612a31565b6109ff565b34801561015857600080fd5b506100f76101673660046129f9565b610a11565b34801561017857600080fd5b506100f7610187366004612b6a565b610c01565b34801561019857600080fd5b506100f7610f1b565b3480156101ad57600080fd5b506100f76101bc366004612a7b565b610fd7565b3480156101cd57600080fd5b506100f76101dc366004612c23565b6110cd565b3480156101ed57600080fd5b50600054604080516001600160a01b039092168252519081900360200190f35b34801561021957600080fd5b506100f7610228366004612bbc565b611247565b34801561023957600080fd5b506100f7610248366004612b07565b611273565b34801561025957600080fd5b506100f76102683660046129f9565b6112eb565b8484600081811061028e57634e487b7160e01b600052603260045260246000fd5b90506020020160208101906102a391906129f9565b6001600160a01b031687876102b96001826130ba565b8181106102d657634e487b7160e01b600052603260045260246000fd5b90506020020160208101906102eb91906129f9565b6001600160a01b0316146103465760405162461bcd60e51b815260206004820152601860248201527f4e6f20627269646765206265747765656e20726f75746573000000000000000060448201526064015b60405180910390fd5b6103933330838a8a600081811061036d57634e487b7160e01b600052603260045260246000fd5b905060200201602081019061038291906129f9565b6001600160a01b0316929190611434565b6103d2878760008181106103b757634e487b7160e01b600052603260045260246000fd5b90506020020160208101906103cc91906129f9565b846114e5565b610411858560008181106103f657634e487b7160e01b600052603260045260246000fd5b905060200201602081019061040b91906129f9565b836114e5565b600061042088883087866115b5565b905061042f86863386856115b5565b505050505050505050565b61044f6001600160a01b038616333087611434565b61045985836114e5565b6000856001600160a01b0316630dfe16816040518163ffffffff1660e01b815260040160206040518083038186803b15801561049457600080fd5b505afa1580156104a8573d6000803e3d6000fd5b505050506040513d601f19601f820116820180604052508101906104cc9190612a15565b90506000866001600160a01b031663d21220a76040518163ffffffff1660e01b815260040160206040518083038186803b15801561050957600080fd5b505afa15801561051d573d6000803e3d6000fd5b505050506040513d601f19601f820116820180604052508101906105419190612a15565b905061054d82856114e5565b61055781856114e5565b604051635d5155ef60e11b81526001600160a01b038381166004830152828116602483015260448201889052600060648301819052608483018190523060a48401524260c484015291829187169063baa2abde9060e4016040805180830381600087803b1580156105c757600080fd5b505af11580156105db573d6000803e3d6000fd5b505050506040513d601f19601f820116820180604052508101906105ff9190612ebc565b90925090506001600160a01b038481169088161461062757610624848389308a61168d565b91505b866001600160a01b0316836001600160a01b0316146106505761064d838289308a61168d565b90505b61042f8561065e8484611922565b6001600160a01b038a169190611935565b6106846001600160a01b038816333089611434565b61068e87836114e5565b61069885846114e5565b6000876001600160a01b0316630dfe16816040518163ffffffff1660e01b815260040160206040518083038186803b1580156106d357600080fd5b505afa1580156106e7573d6000803e3d6000fd5b505050506040513d601f19601f8201168201806040525081019061070b9190612a15565b90506000886001600160a01b031663d21220a76040518163ffffffff1660e01b815260040160206040518083038186803b15801561074857600080fd5b505afa15801561075c573d6000803e3d6000fd5b505050506040513d601f19601f820116820180604052508101906107809190612a15565b905061078c82856114e5565b61079681856114e5565b604051635d5155ef60e11b81526001600160a01b0383811660048301528281166024830152604482018a9052600060648301819052608483018190523060a48401524260c484015291829187169063baa2abde9060e4016040805180830381600087803b15801561080657600080fd5b505af115801561081a573d6000803e3d6000fd5b505050506040513d601f19601f8201168201806040525081019061083e9190612ebc565b80925081935050506060898160008151811061086a57634e487b7160e01b600052603260045260246000fd5b60200260200101906001600160a01b031690816001600160a01b03168152505088816001815181106108ac57634e487b7160e01b600052603260045260246000fd5b6001600160a01b039283166020918202929092010152858116908b16146108dd576108da85848c308b61168d565b92505b896001600160a01b0316846001600160a01b0316146109065761090384838c308b61168d565b91505b60006001600160a01b0389166338ed17396109218686611922565b60008530426040518663ffffffff1660e01b8152600401610946959493929190613046565b600060405180830381600087803b15801561096057600080fd5b505af1158015610974573d6000803e3d6000fd5b505050506040513d6000823e601f3d908101601f1916820160405261099c9190810190612dc4565b90506109f08782600184516109b191906130ba565b815181106109cf57634e487b7160e01b600052603260045260246000fd5b60200260200101518c6001600160a01b03166119359092919063ffffffff16565b50505050505050505050505050565b610a0b83348385611983565b50505050565b6000546001600160a01b03163314610a6b5760405162461bcd60e51b815260206004820181905260248201527f4f776e61626c653a2063616c6c6572206973206e6f7420746865206f776e6572604482015260640161033d565b6001600160a01b038116610ab757600080546040516001600160a01b03909116914780156108fc02929091818181858888f19350505050158015610ab3573d6000803e3d6000fd5b5050565b806001600160a01b031663a9059cbb610ad86000546001600160a01b031690565b6040517f70a082310000000000000000000000000000000000000000000000000000000081523060048201526001600160a01b038516906370a082319060240160206040518083038186803b158015610b3057600080fd5b505afa158015610b44573d6000803e3d6000fd5b505050506040513d601f19601f82011682018060405250810190610b689190612ea4565b6040517fffffffff0000000000000000000000000000000000000000000000000000000060e085901b1681526001600160a01b0390921660048301526024820152604401602060405180830381600087803b158015610bc657600080fd5b505af1158015610bda573d6000803e3d6000fd5b505050506040513d601f19601f82011682018060405250810190610ab39190612e84565b50565b610c166001600160a01b038516333086611434565b610c2084836114e5565b6000846001600160a01b0316630dfe16816040518163ffffffff1660e01b815260040160206040518083038186803b158015610c5b57600080fd5b505afa158015610c6f573d6000803e3d6000fd5b505050506040513d601f19601f82011682018060405250810190610c939190612a15565b90506000856001600160a01b031663d21220a76040518163ffffffff1660e01b815260040160206040518083038186803b158015610cd057600080fd5b505afa158015610ce4573d6000803e3d6000fd5b505050506040513d601f19601f82011682018060405250810190610d089190612a15565b9050610d1482856114e5565b610d1e81856114e5565b6001546001600160a01b0383811691161480610d4757506001546001600160a01b038281169116145b15610e4d576001546000906001600160a01b0384811691161415610d6b5781610d6d565b825b6040517f02751cec0000000000000000000000000000000000000000000000000000000081526001600160a01b03808316600483015260248201899052600060448301819052606483018190523060848401524260a48401529293508291908816906302751cec9060c4016040805180830381600087803b158015610df157600080fd5b505af1158015610e05573d6000803e3d6000fd5b505050506040513d601f19601f82011682018060405250810190610e299190612ebc565b9092509050610e3a8383888a611afe565b50610e458682611c7f565b505050610f13565b604051635d5155ef60e11b81526001600160a01b038381166004830152828116602483015260448201879052600060648301819052608483018190523060a48401524260c484015291829187169063baa2abde9060e4016040805180830381600087803b158015610ebd57600080fd5b505af1158015610ed1573d6000803e3d6000fd5b505050506040513d601f19601f82011682018060405250810190610ef59190612ebc565b9092509050610f0684838789611afe565b5061042f83828789611afe565b505050505050565b6000546001600160a01b03163314610f755760405162461bcd60e51b815260206004820181905260248201527f4f776e61626c653a2063616c6c6572206973206e6f7420746865206f776e6572604482015260640161033d565b600080546040516001600160a01b03909116907f8be0079c531659141344cd1fd0a4f28419497f9722a3daafe3b4186f6b6457e0908390a3600080547fffffffffffffffffffffffff0000000000000000000000000000000000000000169055565b6000610fee6001600160a01b038916333085611434565b610ff888856114e5565b60015461100e906001600160a01b0316846114e5565b6001600160a01b0387161561104f5761102a888389308861168d565b60015490915061104890889083906001600160a01b0316308861168d565b905061106d565b60015461106a90899084906001600160a01b0316308861168d565b90505b6001600160a01b038616156110aa57600154611095906001600160a01b03168288308861168d565b90506110a4868287338861168d565b506110c3565b60015461042f906001600160a01b03168287338861168d565b5050505050505050565b816110e36001600160a01b038816333089611434565b6110ed87846114e5565b6110f785846114e5565b6060878160008151811061111b57634e487b7160e01b600052603260045260246000fd5b60200260200101906001600160a01b031690816001600160a01b031681525050858160018151811061115d57634e487b7160e01b600052603260045260246000fd5b6001600160a01b0392831660209182029290920101526040516338ed173960e01b81526000918416906338ed1739906111a2908b908590879030904290600401613046565b600060405180830381600087803b1580156111bc57600080fd5b505af11580156111d0573d6000803e3d6000fd5b505050506040513d6000823e601f3d908101601f191682016040526111f89190810190612dc4565b905061123b89826001845161120d91906130ba565b8151811061122b57634e487b7160e01b600052603260045260246000fd5b6020026020010151888789611d62565b50505050505050505050565b61125c6001600160a01b038616333087611434565b61126685836114e5565b610f138585858486611d62565b6112886001600160a01b038616333084611434565b61129285846114e5565b6001546112a8906001600160a01b0316836114e5565b6001546000906112c690879084906001600160a01b0316308861168d565b6001549091506112e2906001600160a01b03168287338761168d565b50505050505050565b6000546001600160a01b031633146113455760405162461bcd60e51b815260206004820181905260248201527f4f776e61626c653a2063616c6c6572206973206e6f7420746865206f776e6572604482015260640161033d565b6001600160a01b0381166113c15760405162461bcd60e51b815260206004820152602660248201527f4f776e61626c653a206e6577206f776e657220697320746865207a65726f206160448201527f6464726573730000000000000000000000000000000000000000000000000000606482015260840161033d565b600080546040516001600160a01b03808516939216917f8be0079c531659141344cd1fd0a4f28419497f9722a3daafe3b4186f6b6457e091a3600080547fffffffffffffffffffffffff0000000000000000000000000000000000000000166001600160a01b0392909216919091179055565b6040516001600160a01b0380851660248301528316604482015260648101829052610a0b9085907f23b872dd00000000000000000000000000000000000000000000000000000000906084015b60408051601f198184030181529190526020810180517bffffffffffffffffffffffffffffffffffffffffffffffffffffffff167fffffffff0000000000000000000000000000000000000000000000000000000090931692909217909152612293565b6040517fdd62ed3e0000000000000000000000000000000000000000000000000000000081523060048201526001600160a01b03828116602483015283169063dd62ed3e9060440160206040518083038186803b15801561154557600080fd5b505afa158015611559573d6000803e3d6000fd5b505050506040513d601f19601f8201168201806040525081019061157d9190612ea4565b610ab357610ab36001600160a01b038316827fffffffffffffffffffffffffffffffffffffffffffffffffffffffffffffffff612378565b6040516338ed173960e01b8152600090839082906001600160a01b038316906338ed1739906115f290879085908d908d908d904290600401612fd3565b600060405180830381600087803b15801561160c57600080fd5b505af1158015611620573d6000803e3d6000fd5b505050506040513d6000823e601f3d908101601f191682016040526116489190810190612dc4565b9050806001825161165991906130ba565b8151811061167757634e487b7160e01b600052603260045260246000fd5b6020026020010151925050505b95945050505050565b60015460009082906060906001600160a01b03898116911614806116be57506001546001600160a01b038781169116145b1561176c576040805160028082526060820183529091602083019080368337019050509050878160008151811061170557634e487b7160e01b600052603260045260246000fd5b60200260200101906001600160a01b031690816001600160a01b031681525050858160018151811061174757634e487b7160e01b600052603260045260246000fd5b60200260200101906001600160a01b031690816001600160a01b031681525050611850565b60408051600380825260808201909252906020820160608036833701905050905087816000815181106117af57634e487b7160e01b600052603260045260246000fd5b6001600160a01b03928316602091820292909201015260018054835192169183919081106117ed57634e487b7160e01b600052603260045260246000fd5b60200260200101906001600160a01b031690816001600160a01b031681525050858160028151811061182f57634e487b7160e01b600052603260045260246000fd5b60200260200101906001600160a01b031690816001600160a01b0316815250505b6040516338ed173960e01b81526000906001600160a01b038416906338ed173990611887908b90859087908c904290600401613046565b600060405180830381600087803b1580156118a157600080fd5b505af11580156118b5573d6000803e3d6000fd5b505050506040513d6000823e601f3d908101601f191682016040526118dd9190810190612dc4565b905080600182516118ee91906130ba565b8151811061190c57634e487b7160e01b600052603260045260246000fd5b6020026020010151935050505095945050505050565b600061192e8284613082565b9392505050565b6040516001600160a01b03831660248201526044810182905261197e9084907fa9059cbb0000000000000000000000000000000000000000000000000000000090606401611481565b505050565b6000808590506000816001600160a01b0316630dfe16816040518163ffffffff1660e01b815260040160206040518083038186803b1580156119c457600080fd5b505afa1580156119d8573d6000803e3d6000fd5b505050506040513d601f19601f820116820180604052508101906119fc9190612a15565b90506000826001600160a01b031663d21220a76040518163ffffffff1660e01b815260040160206040518083038186803b158015611a3957600080fd5b505afa158015611a4d573d6000803e3d6000fd5b505050506040513d601f19601f82011682018060405250810190611a719190612a15565b6001549091506000906001600160a01b0384811691161480611aa057506001546001600160a01b038381169116145b15611ade576001546000906001600160a01b03858116911614611ac35783611ac5565b825b9050611ad3818a898b6124d5565b9350611af092505050565b611aeb83838a898b6125e1565b925050505b93505050505b949350505050565b60408051600280825260608281019093526000929184918160200160208202803683370190505091508682600081518110611b4957634e487b7160e01b600052603260045260246000fd5b6001600160a01b0392831660209182029290920101526001805484519216918491908110611b8757634e487b7160e01b600052603260045260246000fd5b6001600160a01b0392831660209182029290920101526040517f18cbafe50000000000000000000000000000000000000000000000000000000081526000918316906318cbafe590611be5908a90859088908c904290600401613046565b600060405180830381600087803b158015611bff57600080fd5b505af1158015611c13573d6000803e3d6000fd5b505050506040513d6000823e601f3d908101601f19168201604052611c3b9190810190612dc4565b90508060018251611c4c91906130ba565b81518110611c6a57634e487b7160e01b600052603260045260246000fd5b60200260200101519350505050949350505050565b604080516000808252602082019092526001600160a01b038416908390604051611ca99190612f4f565b60006040518083038185875af1925050503d8060008114611ce6576040519150601f19603f3d011682016040523d82523d6000602084013e611ceb565b606091505b505090508061197e5760405162461bcd60e51b815260206004820152602360248201527f5472616e7366657248656c7065723a204554485f5452414e534645525f46414960448201527f4c45440000000000000000000000000000000000000000000000000000000000606482015260840161033d565b6000836001600160a01b0316630dfe16816040518163ffffffff1660e01b815260040160206040518083038186803b158015611d9d57600080fd5b505afa158015611db1573d6000803e3d6000fd5b505050506040513d601f19601f82011682018060405250810190611dd59190612a15565b6001600160a01b0316866001600160a01b03161480611e755750836001600160a01b031663d21220a76040518163ffffffff1660e01b815260040160206040518083038186803b158015611e2857600080fd5b505afa158015611e3c573d6000803e3d6000fd5b505050506040513d601f19601f82011682018060405250810190611e609190612a15565b6001600160a01b0316866001600160a01b0316145b1561226f576000846001600160a01b0316630dfe16816040518163ffffffff1660e01b815260040160206040518083038186803b158015611eb557600080fd5b505afa158015611ec9573d6000803e3d6000fd5b505050506040513d601f19601f82011682018060405250810190611eed9190612a15565b6001600160a01b0316876001600160a01b031614611f7b57846001600160a01b0316630dfe16816040518163ffffffff1660e01b815260040160206040518083038186803b158015611f3e57600080fd5b505afa158015611f52573d6000803e3d6000fd5b505050506040513d601f19601f82011682018060405250810190611f769190612a15565b611fec565b846001600160a01b031663d21220a76040518163ffffffff1660e01b815260040160206040518083038186803b158015611fb457600080fd5b505afa158015611fc8573d6000803e3d6000fd5b505050506040513d601f19601f82011682018060405250810190611fec9190612a15565b9050611ff881846114e5565b600061200587600261270f565b90506000612016898385308961168d565b905060006001600160a01b03881673f6c7197eaff13002a7b2a2e835a7bb6969a4b02614156121df576001600160a01b038416739fc071ce771c7b27b7d9a57c32c0a84c18200f8a141561211e576040517ff1efacf90000000000000000000000000000000000000000000000000000000081526001600160a01b03858116600483015260248201849052604482018b9052600060648301819052608483015287169063f1efacf99060a401606060405180830381600087803b1580156120dc57600080fd5b505af11580156120f0573d6000803e3d6000fd5b505050506040513d601f19601f820116820180604052508101906121149190612edf565b92506121d4915050565b6040517ff1efacf90000000000000000000000000000000000000000000000000000000081526001600160a01b038b81166004830152602482018b905260448201849052600060648301819052608483015287169063f1efacf99060a4015b606060405180830381600087803b15801561219757600080fd5b505af11580156121ab573d6000803e3d6000fd5b505050506040513d601f19601f820116820180604052508101906121cf9190612edf565b925050505b935061168492505050565b6001600160a01b03861663e8e337008b866121fa8d8861271b565b6040517fffffffff0000000000000000000000000000000000000000000000000000000060e086901b1681526001600160a01b039384166004820152918316602483015260448201526064810186905260006084820181905260a4820152908a1660c48201524260e48201526101040161217d565b600061227d87873086611afe565b905061228b85828686611983565b915050611684565b60006122e8826040518060400160405280602081526020017f5361666545524332303a206c6f772d6c6576656c2063616c6c206661696c6564815250856001600160a01b03166127279092919063ffffffff16565b80519091501561197e57808060200190518101906123069190612e84565b61197e5760405162461bcd60e51b815260206004820152602a60248201527f5361666545524332303a204552433230206f7065726174696f6e20646964206e60448201527f6f74207375636365656400000000000000000000000000000000000000000000606482015260840161033d565b80158061241a57506040517fdd62ed3e0000000000000000000000000000000000000000000000000000000081523060048201526001600160a01b03838116602483015284169063dd62ed3e9060440160206040518083038186803b1580156123e057600080fd5b505afa1580156123f4573d6000803e3d6000fd5b505050506040513d601f19601f820116820180604052508101906124189190612ea4565b155b61248c5760405162461bcd60e51b815260206004820152603660248201527f5361666545524332303a20617070726f76652066726f6d206e6f6e2d7a65726f60448201527f20746f206e6f6e2d7a65726f20616c6c6f77616e636500000000000000000000606482015260840161033d565b6040516001600160a01b03831660248201526044810182905261197e9084907f095ea7b30000000000000000000000000000000000000000000000000000000090606401611481565b60008080806124e587600261270f565b905060006124f58983308a612736565b905061250189886114e5565b866001600160a01b03811663f305d71961251b8b8661271b565b6040517fffffffff0000000000000000000000000000000000000000000000000000000060e084901b1681526001600160a01b03808f1660048301526024820187905260006044830181905260648301528b1660848201524260a482015260c4016060604051808303818588803b15801561259557600080fd5b505af11580156125a9573d6000803e3d6000fd5b50505050506040513d601f19601f820116820180604052508101906125ce9190612edf565b9550955095505050509450945094915050565b60008080806125f187600261270f565b905060006126018a83308a612736565b9050600061261a8a6126138b8661271b565b308b612736565b90506126268b896114e5565b6126308a896114e5565b6040517fe8e337000000000000000000000000000000000000000000000000000000000081526001600160a01b038c811660048301528b81166024830152604482018490526064820183905260006084830181905260a483015288811660c48301524260e483015289919082169063e8e337009061010401606060405180830381600087803b1580156126c257600080fd5b505af11580156126d6573d6000803e3d6000fd5b505050506040513d601f19601f820116820180604052508101906126fa9190612edf565b96509650965050505050955095509592505050565b600061192e828461309a565b600061192e82846130ba565b6060611af68484600085612883565b6040805160028082526060828101909352600092918491816020016020820280368337505060015482519294506001600160a01b03169184915060009061278d57634e487b7160e01b600052603260045260246000fd5b60200260200101906001600160a01b031690816001600160a01b03168152505086826001815181106127cf57634e487b7160e01b600052603260045260246000fd5b6001600160a01b0392831660209182029290920101526040517f7ff36ab5000000000000000000000000000000000000000000000000000000008152600091831690637ff36ab590899061282d90859088908c904290600401612f6b565b6000604051808303818588803b15801561284657600080fd5b505af115801561285a573d6000803e3d6000fd5b50505050506040513d6000823e601f3d908101601f19168201604052611c3b9190810190612dc4565b606061288e85612976565b6128da5760405162461bcd60e51b815260206004820152601d60248201527f416464726573733a2063616c6c20746f206e6f6e2d636f6e7472616374000000604482015260640161033d565b600080866001600160a01b031685876040516128f69190612f4f565b60006040518083038185875af1925050503d8060008114612933576040519150601f19603f3d011682016040523d82523d6000602084013e612938565b606091505b5091509150811561294c579150611af69050565b80511561295c5780518082602001fd5b8360405162461bcd60e51b815260040161033d9190612fa0565b6000813f7fc5d2460186f7233c927e7db2dcc703c0e500b653ca82273b7bfad8045d85a470818114801590611af6575050151592915050565b60008083601f8401126129c0578081fd5b50813567ffffffffffffffff8111156129d7578182fd5b6020830191508360208260051b85010111156129f257600080fd5b9250929050565b600060208284031215612a0a578081fd5b813561192e81613129565b600060208284031215612a26578081fd5b815161192e81613129565b600080600060608486031215612a45578182fd5b8335612a5081613129565b92506020840135612a6081613129565b91506040840135612a7081613129565b809150509250925092565b600080600080600080600060e0888a031215612a95578283fd5b8735612aa081613129565b96506020880135612ab081613129565b95506040880135612ac081613129565b94506060880135612ad081613129565b93506080880135612ae081613129565b925060a0880135612af081613129565b8092505060c0880135905092959891949750929550565b600080600080600060a08688031215612b1e578081fd5b8535612b2981613129565b94506020860135612b3981613129565b93506040860135612b4981613129565b92506060860135612b5981613129565b949793965091946080013592915050565b60008060008060808587031215612b7f578384fd5b8435612b8a81613129565b9350602085013592506040850135612ba181613129565b91506060850135612bb181613129565b939692955090935050565b600080600080600060a08688031215612bd3578081fd5b8535612bde81613129565b9450602086013593506040860135612bf581613129565b92506060860135612c0581613129565b91506080860135612c1581613129565b809150509295509295909350565b60008060008060008060c08789031215612c3b578182fd5b8635612c4681613129565b9550602087013594506040870135612c5d81613129565b93506060870135612c6d81613129565b92506080870135612c7d81613129565b915060a0870135612c8d81613129565b809150509295509295509295565b600080600080600080600060e0888a031215612cb5578081fd5b8735612cc081613129565b9650602088013595506040880135612cd781613129565b94506060880135612ce781613129565b93506080880135612cf781613129565b925060a0880135612d0781613129565b915060c0880135612d1781613129565b8091505092959891949750929550565b600080600080600080600060a0888a031215612d41578081fd5b873567ffffffffffffffff80821115612d58578283fd5b612d648b838c016129af565b909950975060208a0135915080821115612d7c578283fd5b50612d898a828b016129af565b9096509450506040880135612d9d81613129565b92506060880135612dad81613129565b809250506080880135905092959891949750929550565b60006020808385031215612dd6578182fd5b825167ffffffffffffffff80821115612ded578384fd5b818501915085601f830112612e00578384fd5b815181811115612e1257612e12613113565b8060051b604051601f19603f83011681018181108582111715612e3757612e37613113565b604052828152858101935084860182860187018a1015612e55578788fd5b8795505b83861015612e77578051855260019590950194938601938601612e59565b5098975050505050505050565b600060208284031215612e95578081fd5b8151801515811461192e578182fd5b600060208284031215612eb5578081fd5b5051919050565b60008060408385031215612ece578182fd5b505080516020909101519092909150565b600080600060608486031215612ef3578081fd5b8351925060208401519150604084015190509250925092565b6000815180845260208085019450808401835b83811015612f445781516001600160a01b031687529582019590820190600101612f1f565b509495945050505050565b60008251612f618184602087016130d1565b9190910192915050565b848152608060208201526000612f846080830186612f0c565b6001600160a01b03949094166040830152506060015292915050565b6020815260008251806020840152612fbf8160408501602087016130d1565b601f01601f19169190910160400192915050565b868152602080820187905260a0604083018190528201859052600090869060c08401835b8881101561302557833561300a81613129565b6001600160a01b031682529282019290820190600101612ff7565b506001600160a01b0396909616606085015250505060800152949350505050565b85815284602082015260a06040820152600061306560a0830186612f0c565b6001600160a01b0394909416606083015250608001529392505050565b60008219821115613095576130956130fd565b500190565b6000826130b557634e487b7160e01b81526012600452602481fd5b500490565b6000828210156130cc576130cc6130fd565b500390565b60005b838110156130ec5781810151838201526020016130d4565b83811115610a0b5750506000910152565b634e487b7160e01b600052601160045260246000fd5b634e487b7160e01b600052604160045260246000fd5b6001600160a01b0381168114610bfe57600080fdfea26469706673582212200bb21cab09a33b742ad696157d973b9e3ae7bf187fb3508e61c93707b42f609e64736f6c63430008040033",
  "linkReferences": {},
  "deployedLinkReferences": {}
}