{
  "_format": "hh-sol-artifact-1",
  "contractName": "CrossSwap",
  "sourceName": "contracts/CrossSwap.sol",
  "abi": [
    {
      "inputs": [
        {
          "internalType": "contract IERC20",
          "name": "_WNATIVE",
          "type": "address"
        }
      ],
      "stateMutability": "nonpayable",
      "type": "constructor"
    },
    {
      "anonymous": false,
      "inputs": [
        {
          "indexed": true,
          "internalType": "address",
          "name": "previousOwner",
          "type": "address"
        },
        {
          "indexed": true,
          "internalType": "address",
          "name": "newOwner",
          "type": "address"
        }
      ],
      "name": "OwnershipTransferred",
      "type": "event"
    },
    {
      "inputs": [],
      "name": "WNATIVE",
      "outputs": [
        {
          "internalType": "contract IERC20",
          "name": "",
          "type": "address"
        }
      ],
      "stateMutability": "view",
      "type": "function"
    },
    {
      "inputs": [
        {
          "internalType": "address[]",
          "name": "_path0",
          "type": "address[]"
        },
        {
          "internalType": "address[]",
          "name": "_path1",
          "type": "address[]"
        },
        {
          "internalType": "address",
          "name": "_routerAddr0",
          "type": "address"
        },
        {
          "internalType": "address",
          "name": "_routerAddr1",
          "type": "address"
        },
        {
          "internalType": "uint256",
          "name": "_amount",
          "type": "uint256"
        }
      ],
      "name": "crossSwap",
      "outputs": [],
      "stateMutability": "nonpayable",
      "type": "function"
    },
    {
      "inputs": [],
      "name": "owner",
      "outputs": [
        {
          "internalType": "address",
          "name": "",
          "type": "address"
        }
      ],
      "stateMutability": "view",
      "type": "function"
    },
    {
      "inputs": [],
      "name": "renounceOwnership",
      "outputs": [],
      "stateMutability": "nonpayable",
      "type": "function"
    },
    {
      "inputs": [
        {
          "internalType": "address",
          "name": "newOwner",
          "type": "address"
        }
      ],
      "name": "transferOwnership",
      "outputs": [],
      "stateMutability": "nonpayable",
      "type": "function"
    },
    {
      "inputs": [
        {
          "internalType": "address",
          "name": "token",
          "type": "address"
        }
      ],
      "name": "withdraw",
      "outputs": [],
      "stateMutability": "nonpayable",
      "type": "function"
    }
  ],
  "bytecode": "0x608060405234801561001057600080fd5b50604051610fc0380380610fc083398101604081905261002f91610095565b600080546001600160a01b031916339081178255604051909182917f8be0079c531659141344cd1fd0a4f28419497f9722a3daafe3b4186f6b6457e0908290a350600180546001600160a01b0319166001600160a01b03929092169190911790556100c3565b6000602082840312156100a6578081fd5b81516001600160a01b03811681146100bc578182fd5b9392505050565b610eee806100d26000396000f3fe608060405234801561001057600080fd5b50600436106100725760003560e01c80638da5cb5b116100505780638da5cb5b146100a7578063b381cf40146100d0578063f2fde38b146100e357600080fd5b806318f138d21461007757806351cff8d91461008c578063715018a61461009f575b600080fd5b61008a610085366004610bff565b6100f6565b005b61008a61009a366004610bde565b610200565b61008a6103f2565b6000546001600160a01b03165b6040516001600160a01b03909116815260200160405180910390f35b6001546100b4906001600160a01b031681565b61008a6100f1366004610bde565b6104ae565b6101358787600081811061011a57634e487b7160e01b600052603260045260246000fd5b905060200201602081019061012f9190610bde565b846105f7565b600061014488883087866106c7565b6001546040517f70a0823100000000000000000000000000000000000000000000000000000000815230600482015291925082916001600160a01b03909116906370a082319060240160206040518083038186803b1580156101a557600080fd5b505afa1580156101b9573d6000803e3d6000fd5b505050506040513d601f19601f820116820180604052508101906101dd9190610d77565b10156101e857600080fd5b6101f586863386856106c7565b505050505050505050565b6000546001600160a01b0316331461025f5760405162461bcd60e51b815260206004820181905260248201527f4f776e61626c653a2063616c6c6572206973206e6f7420746865206f776e657260448201526064015b60405180910390fd5b6001600160a01b0381166102ab57600080546040516001600160a01b03909116914780156108fc02929091818181858888f193505050501580156102a7573d6000803e3d6000fd5b5050565b806001600160a01b031663a9059cbb6102cc6000546001600160a01b031690565b6040517f70a082310000000000000000000000000000000000000000000000000000000081523060048201526001600160a01b038516906370a082319060240160206040518083038186803b15801561032457600080fd5b505afa158015610338573d6000803e3d6000fd5b505050506040513d601f19601f8201168201806040525081019061035c9190610d77565b6040517fffffffff0000000000000000000000000000000000000000000000000000000060e085901b1681526001600160a01b0390921660048301526024820152604401602060405180830381600087803b1580156103ba57600080fd5b505af11580156103ce573d6000803e3d6000fd5b505050506040513d601f19601f820116820180604052508101906102a79190610d57565b6000546001600160a01b0316331461044c5760405162461bcd60e51b815260206004820181905260248201527f4f776e61626c653a2063616c6c6572206973206e6f7420746865206f776e65726044820152606401610256565b600080546040516001600160a01b03909116907f8be0079c531659141344cd1fd0a4f28419497f9722a3daafe3b4186f6b6457e0908390a3600080547fffffffffffffffffffffffff0000000000000000000000000000000000000000169055565b6000546001600160a01b031633146105085760405162461bcd60e51b815260206004820181905260248201527f4f776e61626c653a2063616c6c6572206973206e6f7420746865206f776e65726044820152606401610256565b6001600160a01b0381166105845760405162461bcd60e51b815260206004820152602660248201527f4f776e61626c653a206e6577206f776e657220697320746865207a65726f206160448201527f64647265737300000000000000000000000000000000000000000000000000006064820152608401610256565b600080546040516001600160a01b03808516939216917f8be0079c531659141344cd1fd0a4f28419497f9722a3daafe3b4186f6b6457e091a3600080547fffffffffffffffffffffffff0000000000000000000000000000000000000000166001600160a01b0392909216919091179055565b6040517fdd62ed3e0000000000000000000000000000000000000000000000000000000081523060048201526001600160a01b03828116602483015283169063dd62ed3e9060440160206040518083038186803b15801561065757600080fd5b505afa15801561066b573d6000803e3d6000fd5b505050506040513d601f19601f8201168201806040525081019061068f9190610d77565b6102a7576102a76001600160a01b038316827fffffffffffffffffffffffffffffffffffffffffffffffffffffffffffffffff6107b7565b6040517f38ed1739000000000000000000000000000000000000000000000000000000008152600090839082906001600160a01b038316906338ed17399061071d90879085908d908d908d904290600401610dde565b600060405180830381600087803b15801561073757600080fd5b505af115801561074b573d6000803e3d6000fd5b505050506040513d6000823e601f3d908101601f191682016040526107739190810190610c97565b905080600182516107849190610e4f565b815181106107a257634e487b7160e01b600052603260045260246000fd5b60200260200101519250505095945050505050565b80158061085957506040517fdd62ed3e0000000000000000000000000000000000000000000000000000000081523060048201526001600160a01b03838116602483015284169063dd62ed3e9060440160206040518083038186803b15801561081f57600080fd5b505afa158015610833573d6000803e3d6000fd5b505050506040513d601f19601f820116820180604052508101906108579190610d77565b155b6108cb5760405162461bcd60e51b815260206004820152603660248201527f5361666545524332303a20617070726f76652066726f6d206e6f6e2d7a65726f60448201527f20746f206e6f6e2d7a65726f20616c6c6f77616e6365000000000000000000006064820152608401610256565b604080516001600160a01b038416602482015260448082018490528251808303909101815260649091019091526020810180517bffffffffffffffffffffffffffffffffffffffffffffffffffffffff167f095ea7b30000000000000000000000000000000000000000000000000000000017905261094b908490610950565b505050565b60006109a5826040518060400160405280602081526020017f5361666545524332303a206c6f772d6c6576656c2063616c6c206661696c6564815250856001600160a01b0316610a359092919063ffffffff16565b80519091501561094b57808060200190518101906109c39190610d57565b61094b5760405162461bcd60e51b815260206004820152602a60248201527f5361666545524332303a204552433230206f7065726174696f6e20646964206e60448201527f6f742073756363656564000000000000000000000000000000000000000000006064820152608401610256565b6060610a448484600085610a4c565b949350505050565b6060610a5785610b3f565b610aa35760405162461bcd60e51b815260206004820152601d60248201527f416464726573733a2063616c6c20746f206e6f6e2d636f6e74726163740000006044820152606401610256565b600080866001600160a01b03168587604051610abf9190610d8f565b60006040518083038185875af1925050503d8060008114610afc576040519150601f19603f3d011682016040523d82523d6000602084013e610b01565b606091505b50915091508115610b15579150610a449050565b805115610b255780518082602001fd5b8360405162461bcd60e51b81526004016102569190610dab565b6000813f7fc5d2460186f7233c927e7db2dcc703c0e500b653ca82273b7bfad8045d85a470818114801590610a44575050151592915050565b80356001600160a01b0381168114610b8f57600080fd5b919050565b60008083601f840112610ba5578081fd5b50813567ffffffffffffffff811115610bbc578182fd5b6020830191508360208260051b8501011115610bd757600080fd5b9250929050565b600060208284031215610bef578081fd5b610bf882610b78565b9392505050565b600080600080600080600060a0888a031215610c19578283fd5b873567ffffffffffffffff80821115610c30578485fd5b610c3c8b838c01610b94565b909950975060208a0135915080821115610c54578485fd5b50610c618a828b01610b94565b9096509450610c74905060408901610b78565b9250610c8260608901610b78565b91506080880135905092959891949750929550565b60006020808385031215610ca9578182fd5b825167ffffffffffffffff80821115610cc0578384fd5b818501915085601f830112610cd3578384fd5b815181811115610ce557610ce5610ea2565b8060051b604051601f19603f83011681018181108582111715610d0a57610d0a610ea2565b604052828152858101935084860182860187018a1015610d28578788fd5b8795505b83861015610d4a578051855260019590950194938601938601610d2c565b5098975050505050505050565b600060208284031215610d68578081fd5b81518015158114610bf8578182fd5b600060208284031215610d88578081fd5b5051919050565b60008251610da1818460208701610e72565b9190910192915050565b6020815260008251806020840152610dca816040850160208701610e72565b601f01601f19169190910160400192915050565b868152602080820187905260a0604083018190528201859052600090869060c08401835b88811015610e2e576001600160a01b03610e1b85610b78565b1682529282019290820190600101610e02565b506001600160a01b0396909616606085015250505060800152949350505050565b600082821015610e6d57634e487b7160e01b81526011600452602481fd5b500390565b60005b83811015610e8d578181015183820152602001610e75565b83811115610e9c576000848401525b50505050565b634e487b7160e01b600052604160045260246000fdfea2646970667358221220beed7117501cc3abb3079b410f7a367a89dfbebc7636f71794b7b665c016d99264736f6c63430008040033",
  "linkReferences": {},
  "deployedLinkReferences": {}
}