{
  "_format": "hh-sol-artifact-1",
  "contractName": "CrossSwap",
  "sourceName": "contracts/CrossSwap.sol",
  "abi": [
    {
      "inputs": [
        {
          "internalType": "address",
          "name": "_WNATIVE",
          "type": "address"
        },
        {
          "internalType": "contract ITaxOffice",
          "name": "_TAXOFFICE",
          "type": "address"
        }
      ],
      "stateMutability": "nonpayable",
      "type": "constructor"
    },
    {
      "anonymous": false,
      "inputs": [
        {
          "indexed": true,
          "internalType": "address",
          "name": "previousOwner",
          "type": "address"
        },
        {
          "indexed": true,
          "internalType": "address",
          "name": "newOwner",
          "type": "address"
        }
      ],
      "name": "OwnershipTransferred",
      "type": "event"
    },
    {
      "inputs": [],
      "name": "TAXOFFICE",
      "outputs": [
        {
          "internalType": "contract ITaxOffice",
          "name": "",
          "type": "address"
        }
      ],
      "stateMutability": "view",
      "type": "function"
    },
    {
      "inputs": [
        {
          "internalType": "address[]",
          "name": "_path0",
          "type": "address[]"
        },
        {
          "internalType": "address[]",
          "name": "_path1",
          "type": "address[]"
        },
        {
          "internalType": "address",
          "name": "_routerAddr0",
          "type": "address"
        },
        {
          "internalType": "address",
          "name": "_routerAddr1",
          "type": "address"
        },
        {
          "internalType": "uint256",
          "name": "_amount",
          "type": "uint256"
        }
      ],
      "name": "crossSwap",
      "outputs": [],
      "stateMutability": "nonpayable",
      "type": "function"
    },
    {
      "inputs": [
        {
          "internalType": "address",
          "name": "_from",
          "type": "address"
        },
        {
          "internalType": "uint256",
          "name": "_amount",
          "type": "uint256"
        },
        {
          "internalType": "address",
          "name": "_middle",
          "type": "address"
        },
        {
          "internalType": "address",
          "name": "_to",
          "type": "address"
        },
        {
          "internalType": "address",
          "name": "routerAddr",
          "type": "address"
        },
        {
          "internalType": "address",
          "name": "_recipient",
          "type": "address"
        }
      ],
      "name": "customZapInToken",
      "outputs": [],
      "stateMutability": "nonpayable",
      "type": "function"
    },
    {
      "inputs": [],
      "name": "ifusd",
      "outputs": [
        {
          "internalType": "address",
          "name": "",
          "type": "address"
        }
      ],
      "stateMutability": "view",
      "type": "function"
    },
    {
      "inputs": [],
      "name": "ifusdTombLp",
      "outputs": [
        {
          "internalType": "address",
          "name": "",
          "type": "address"
        }
      ],
      "stateMutability": "view",
      "type": "function"
    },
    {
      "inputs": [],
      "name": "owner",
      "outputs": [
        {
          "internalType": "address",
          "name": "",
          "type": "address"
        }
      ],
      "stateMutability": "view",
      "type": "function"
    },
    {
      "inputs": [],
      "name": "renounceOwnership",
      "outputs": [],
      "stateMutability": "nonpayable",
      "type": "function"
    },
    {
      "inputs": [],
      "name": "spirit",
      "outputs": [
        {
          "internalType": "address",
          "name": "",
          "type": "address"
        }
      ],
      "stateMutability": "view",
      "type": "function"
    },
    {
      "inputs": [],
      "name": "spooky",
      "outputs": [
        {
          "internalType": "address",
          "name": "",
          "type": "address"
        }
      ],
      "stateMutability": "view",
      "type": "function"
    },
    {
      "inputs": [],
      "name": "steak",
      "outputs": [
        {
          "internalType": "address",
          "name": "",
          "type": "address"
        }
      ],
      "stateMutability": "view",
      "type": "function"
    },
    {
      "inputs": [
        {
          "internalType": "address",
          "name": "newOwner",
          "type": "address"
        }
      ],
      "name": "transferOwnership",
      "outputs": [],
      "stateMutability": "nonpayable",
      "type": "function"
    },
    {
      "inputs": [
        {
          "internalType": "address",
          "name": "token",
          "type": "address"
        }
      ],
      "name": "withdraw",
      "outputs": [],
      "stateMutability": "nonpayable",
      "type": "function"
    },
    {
      "inputs": [
        {
          "internalType": "address",
          "name": "_to",
          "type": "address"
        },
        {
          "internalType": "address",
          "name": "routerAddr",
          "type": "address"
        },
        {
          "internalType": "address",
          "name": "_recipient",
          "type": "address"
        }
      ],
      "name": "zapIn",
      "outputs": [],
      "stateMutability": "payable",
      "type": "function"
    },
    {
      "inputs": [
        {
          "internalType": "address",
          "name": "_from",
          "type": "address"
        },
        {
          "internalType": "uint256",
          "name": "amount",
          "type": "uint256"
        },
        {
          "internalType": "address",
          "name": "_to",
          "type": "address"
        },
        {
          "internalType": "address",
          "name": "routerAddr",
          "type": "address"
        },
        {
          "internalType": "address",
          "name": "_recipient",
          "type": "address"
        }
      ],
      "name": "zapInToken",
      "outputs": [],
      "stateMutability": "nonpayable",
      "type": "function"
    }
  ],
  "bytecode": "0x6080604052600280546001600160a01b03199081167316327e3fbdaca3bcf7e38f5af2599d2ddc33ae521790915560038054821673f491e7b69e4244ad4002bc14e878a34207e38c291790556004805482167305848b832e872d9edd84ac5718d58f21fd9c9649179055600580548216739fc071ce771c7b27b7d9a57c32c0a84c18200f8a1790556006805490911673f6c7197eaff13002a7b2a2e835a7bb6969a4b026179055348015620000b357600080fd5b506040516200289638038062002896833981016040819052620000d69162000149565b600080546001600160a01b031916339081178255604051909182917f8be0079c531659141344cd1fd0a4f28419497f9722a3daafe3b4186f6b6457e0908290a350600180546001600160a01b039384166001600160a01b03199182161790915560078054929093169116179055620001a0565b600080604083850312156200015c578182fd5b8251620001698162000187565b60208401519092506200017c8162000187565b809150509250929050565b6001600160a01b03811681146200019d57600080fd5b50565b6126e680620001b06000396000f3fe6080604052600436106100dd5760003560e01c806376b8fcfc1161007f578063c4cf099511610059578063c4cf099514610226578063cee6202c14610246578063ed371d1714610266578063f2fde38b1461028657600080fd5b806376b8fcfc146101c857806379ebf646146101e85780638da5cb5b1461020857600080fd5b8063462b61e8116100bb578063462b61e81461015357806351cff8d9146101735780636f19031514610193578063715018a6146101b357600080fd5b806318f138d2146100e25780632d2e3a931461010457806335e8b7d514610140575b600080fd5b3480156100ee57600080fd5b506101026100fd3660046122de565b6102a6565b005b34801561011057600080fd5b50600354610124906001600160a01b031681565b6040516001600160a01b03909116815260200160405180910390f35b61010261014e3660046121b5565b610473565b34801561015f57600080fd5b50600754610124906001600160a01b031681565b34801561017f57600080fd5b5061010261018e36600461217d565b610485565b34801561019f57600080fd5b50600454610124906001600160a01b031681565b3480156101bf57600080fd5b50610102610675565b3480156101d457600080fd5b50600554610124906001600160a01b031681565b3480156101f457600080fd5b50610102610203366004612266565b610731565b34801561021457600080fd5b506000546001600160a01b0316610124565b34801561023257600080fd5b50600254610124906001600160a01b031681565b34801561025257600080fd5b506101026102613660046121ff565b6108ab565b34801561027257600080fd5b50600654610124906001600160a01b031681565b34801561029257600080fd5b506101026102a136600461217d565b6108df565b848460008181106102c757634e487b7160e01b600052603260045260246000fd5b90506020020160208101906102dc919061217d565b6001600160a01b031687876102f2600182612636565b81811061030f57634e487b7160e01b600052603260045260246000fd5b9050602002016020810190610324919061217d565b6001600160a01b03161461037f5760405162461bcd60e51b815260206004820152601860248201527f4e6f20627269646765206265747765656e20726f75746573000000000000000060448201526064015b60405180910390fd5b6103cc3330838a8a60008181106103a657634e487b7160e01b600052603260045260246000fd5b90506020020160208101906103bb919061217d565b6001600160a01b0316929190610a28565b61040b878760008181106103f057634e487b7160e01b600052603260045260246000fd5b9050602002016020810190610405919061217d565b84610ad9565b61044a8585600081811061042f57634e487b7160e01b600052603260045260246000fd5b9050602002016020810190610444919061217d565b83610ad9565b60006104598888308786610ba9565b90506104688686338685610ba9565b505050505050505050565b61047f83348385610c81565b50505050565b6000546001600160a01b031633146104df5760405162461bcd60e51b815260206004820181905260248201527f4f776e61626c653a2063616c6c6572206973206e6f7420746865206f776e65726044820152606401610376565b6001600160a01b03811661052b57600080546040516001600160a01b03909116914780156108fc02929091818181858888f19350505050158015610527573d6000803e3d6000fd5b5050565b806001600160a01b031663a9059cbb61054c6000546001600160a01b031690565b6040517f70a082310000000000000000000000000000000000000000000000000000000081523060048201526001600160a01b038516906370a082319060240160206040518083038186803b1580156105a457600080fd5b505afa1580156105b8573d6000803e3d6000fd5b505050506040513d601f19601f820116820180604052508101906105dc919061245b565b6040517fffffffff0000000000000000000000000000000000000000000000000000000060e085901b1681526001600160a01b0390921660048301526024820152604401602060405180830381600087803b15801561063a57600080fd5b505af115801561064e573d6000803e3d6000fd5b505050506040513d601f19601f82011682018060405250810190610527919061243b565b50565b6000546001600160a01b031633146106cf5760405162461bcd60e51b815260206004820181905260248201527f4f776e61626c653a2063616c6c6572206973206e6f7420746865206f776e65726044820152606401610376565b600080546040516001600160a01b03909116907f8be0079c531659141344cd1fd0a4f28419497f9722a3daafe3b4186f6b6457e0908390a3600080547fffffffffffffffffffffffff0000000000000000000000000000000000000000169055565b816107476001600160a01b038816333089610a28565b6107518784610ad9565b61075b8584610ad9565b6060878160008151811061077f57634e487b7160e01b600052603260045260246000fd5b60200260200101906001600160a01b031690816001600160a01b03168152505085816001815181106107c157634e487b7160e01b600052603260045260246000fd5b6001600160a01b0392831660209182029290920101526040516338ed173960e01b81526000918416906338ed173990610806908b9085908790309042906004016125da565b600060405180830381600087803b15801561082057600080fd5b505af1158015610834573d6000803e3d6000fd5b505050506040513d6000823e601f3d908101601f1916820160405261085c919081019061237b565b905061089f8982600184516108719190612636565b8151811061088f57634e487b7160e01b600052603260045260246000fd5b6020026020010151888789610e26565b50505050505050505050565b6108c06001600160a01b038616333087610a28565b6108ca8583610ad9565b6108d78585858486610e26565b505050505050565b6000546001600160a01b031633146109395760405162461bcd60e51b815260206004820181905260248201527f4f776e61626c653a2063616c6c6572206973206e6f7420746865206f776e65726044820152606401610376565b6001600160a01b0381166109b55760405162461bcd60e51b815260206004820152602660248201527f4f776e61626c653a206e6577206f776e657220697320746865207a65726f206160448201527f64647265737300000000000000000000000000000000000000000000000000006064820152608401610376565b600080546040516001600160a01b03808516939216917f8be0079c531659141344cd1fd0a4f28419497f9722a3daafe3b4186f6b6457e091a3600080547fffffffffffffffffffffffff0000000000000000000000000000000000000000166001600160a01b0392909216919091179055565b6040516001600160a01b038085166024830152831660448201526064810182905261047f9085907f23b872dd00000000000000000000000000000000000000000000000000000000906084015b60408051601f198184030181529190526020810180517bffffffffffffffffffffffffffffffffffffffffffffffffffffffff167fffffffff000000000000000000000000000000000000000000000000000000009093169290921790915261125b565b6040517fdd62ed3e0000000000000000000000000000000000000000000000000000000081523060048201526001600160a01b03828116602483015283169063dd62ed3e9060440160206040518083038186803b158015610b3957600080fd5b505afa158015610b4d573d6000803e3d6000fd5b505050506040513d601f19601f82011682018060405250810190610b71919061245b565b610527576105276001600160a01b038316827fffffffffffffffffffffffffffffffffffffffffffffffffffffffffffffffff611345565b6040516338ed173960e01b8152600090839082906001600160a01b038316906338ed173990610be690879085908d908d908d904290600401612567565b600060405180830381600087803b158015610c0057600080fd5b505af1158015610c14573d6000803e3d6000fd5b505050506040513d6000823e601f3d908101601f19168201604052610c3c919081019061237b565b90508060018251610c4d9190612636565b81518110610c6b57634e487b7160e01b600052603260045260246000fd5b6020026020010151925050505b95945050505050565b6000808590506000816001600160a01b0316630dfe16816040518163ffffffff1660e01b815260040160206040518083038186803b158015610cc257600080fd5b505afa158015610cd6573d6000803e3d6000fd5b505050506040513d601f19601f82011682018060405250810190610cfa9190612199565b90506000826001600160a01b031663d21220a76040518163ffffffff1660e01b815260040160206040518083038186803b158015610d3757600080fd5b505afa158015610d4b573d6000803e3d6000fd5b505050506040513d601f19601f82011682018060405250810190610d6f9190612199565b6001549091506000906001600160a01b0384811691161480610d9e57506001546001600160a01b038381169116145b15610ddc576001546000906001600160a01b03858116911614610dc15783610dc3565b825b9050610dd1818a898b6114a2565b9350610e1892505050565b6006546001600160a01b038a811691161415610e0657610dff8383898c8c6115ae565b9050610e18565b610e1383838a898b6116fc565b925050505b93505050505b949350505050565b6000836001600160a01b0316630dfe16816040518163ffffffff1660e01b815260040160206040518083038186803b158015610e6157600080fd5b505afa158015610e75573d6000803e3d6000fd5b505050506040513d601f19601f82011682018060405250810190610e999190612199565b6001600160a01b0316866001600160a01b03161480610f395750836001600160a01b031663d21220a76040518163ffffffff1660e01b815260040160206040518083038186803b158015610eec57600080fd5b505afa158015610f00573d6000803e3d6000fd5b505050506040513d601f19601f82011682018060405250810190610f249190612199565b6001600160a01b0316866001600160a01b0316145b15611237576000846001600160a01b0316630dfe16816040518163ffffffff1660e01b815260040160206040518083038186803b158015610f7957600080fd5b505afa158015610f8d573d6000803e3d6000fd5b505050506040513d601f19601f82011682018060405250810190610fb19190612199565b6001600160a01b0316876001600160a01b03161461103f57846001600160a01b0316630dfe16816040518163ffffffff1660e01b815260040160206040518083038186803b15801561100257600080fd5b505afa158015611016573d6000803e3d6000fd5b505050506040513d601f19601f8201168201806040525081019061103a9190612199565b6110b0565b846001600160a01b031663d21220a76040518163ffffffff1660e01b815260040160206040518083038186803b15801561107857600080fd5b505afa15801561108c573d6000803e3d6000fd5b505050506040513d601f19601f820116820180604052508101906110b09190612199565b90506110bc8184610ad9565b60006110c987600261182a565b905060006110da898385308961183d565b6006549091506000906001600160a01b038981169116141561114c576005546001600160a01b038b81169116141561111e576111178a838b611ad2565b905061112c565b611129848a84611ad2565b90505b6111416001600160a01b038916308984610a28565b9350610c7892505050565b6001600160a01b03861663e8e337008b866111678d88611b95565b6040517fffffffff0000000000000000000000000000000000000000000000000000000060e086901b1681526001600160a01b039384166004820152918316602483015260448201526064810186905260006084820181905260a4820152908a1660c48201524260e482015261010401606060405180830381600087803b1580156111f157600080fd5b505af1158015611205573d6000803e3d6000fd5b505050506040513d601f19601f820116820180604052508101906112299190612473565b9650610c7895505050505050565b600061124587873086611ba1565b905061125385828686610c81565b915050610c78565b60006112b0826040518060400160405280602081526020017f5361666545524332303a206c6f772d6c6576656c2063616c6c206661696c6564815250856001600160a01b0316611d229092919063ffffffff16565b80519091501561134057808060200190518101906112ce919061243b565b6113405760405162461bcd60e51b815260206004820152602a60248201527f5361666545524332303a204552433230206f7065726174696f6e20646964206e60448201527f6f742073756363656564000000000000000000000000000000000000000000006064820152608401610376565b505050565b8015806113e757506040517fdd62ed3e0000000000000000000000000000000000000000000000000000000081523060048201526001600160a01b03838116602483015284169063dd62ed3e9060440160206040518083038186803b1580156113ad57600080fd5b505afa1580156113c1573d6000803e3d6000fd5b505050506040513d601f19601f820116820180604052508101906113e5919061245b565b155b6114595760405162461bcd60e51b815260206004820152603660248201527f5361666545524332303a20617070726f76652066726f6d206e6f6e2d7a65726f60448201527f20746f206e6f6e2d7a65726f20616c6c6f77616e6365000000000000000000006064820152608401610376565b6040516001600160a01b0383166024820152604481018290526113409084907f095ea7b30000000000000000000000000000000000000000000000000000000090606401610a75565b60008080806114b287600261182a565b905060006114c28983308a611d31565b90506114ce8988610ad9565b866001600160a01b03811663f305d7196114e88b86611b95565b6040517fffffffff0000000000000000000000000000000000000000000000000000000060e084901b1681526001600160a01b03808f1660048301526024820187905260006044830181905260648301528b1660848201524260a482015260c4016060604051808303818588803b15801561156257600080fd5b505af1158015611576573d6000803e3d6000fd5b50505050506040513d601f19601f8201168201806040525081019061159b9190612473565b9550955095505050509450945094915050565b6000806115bc83600261182a565b600554909150600090819081906001600160a01b038b81169116141561165d576003546115f7908b90869030906001600160a01b0316611d31565b925061161a896116078887611b95565b60025430906001600160a01b0316611d31565b600754909250611634908b906001600160a01b0316610ad9565b60075461164b908a906001600160a01b0316610ad9565b6116568a8385611ad2565b90506116da565b600254611678908b90869030906001600160a01b0316611d31565b925061169b896116888887611b95565b60035430906001600160a01b0316611d31565b6007549092506116b5908b906001600160a01b0316610ad9565b6007546116cc908a906001600160a01b0316610ad9565b6116d7898484611ad2565b90505b6116ef6001600160a01b038816893084610a28565b9998505050505050505050565b600080808061170c87600261182a565b9050600061171c8a83308a611d31565b905060006117358a61172e8b86611b95565b308b611d31565b90506117418b89610ad9565b61174b8a89610ad9565b6040517fe8e337000000000000000000000000000000000000000000000000000000000081526001600160a01b038c811660048301528b81166024830152604482018490526064820183905260006084830181905260a483015288811660c48301524260e483015289919082169063e8e337009061010401606060405180830381600087803b1580156117dd57600080fd5b505af11580156117f1573d6000803e3d6000fd5b505050506040513d601f19601f820116820180604052508101906118159190612473565b96509650965050505050955095509592505050565b60006118368284612616565b9392505050565b60015460009082906060906001600160a01b038981169116148061186e57506001546001600160a01b038781169116145b1561191c57604080516002808252606082018352909160208301908036833701905050905087816000815181106118b557634e487b7160e01b600052603260045260246000fd5b60200260200101906001600160a01b031690816001600160a01b03168152505085816001815181106118f757634e487b7160e01b600052603260045260246000fd5b60200260200101906001600160a01b031690816001600160a01b031681525050611a00565b604080516003808252608082019092529060208201606080368337019050509050878160008151811061195f57634e487b7160e01b600052603260045260246000fd5b6001600160a01b039283166020918202929092010152600180548351921691839190811061199d57634e487b7160e01b600052603260045260246000fd5b60200260200101906001600160a01b031690816001600160a01b03168152505085816002815181106119df57634e487b7160e01b600052603260045260246000fd5b60200260200101906001600160a01b031690816001600160a01b0316815250505b6040516338ed173960e01b81526000906001600160a01b038416906338ed173990611a37908b90859087908c9042906004016125da565b600060405180830381600087803b158015611a5157600080fd5b505af1158015611a65573d6000803e3d6000fd5b505050506040513d6000823e601f3d908101601f19168201604052611a8d919081019061237b565b90508060018251611a9e9190612636565b81518110611abc57634e487b7160e01b600052603260045260246000fd5b6020026020010151935050505095945050505050565b6007546040517ff1efacf90000000000000000000000000000000000000000000000000000000081526001600160a01b03858116600483015260248201859052604482018490526000606483018190526084830181905292839291169063f1efacf99060a401606060405180830381600087803b158015611b5257600080fd5b505af1158015611b66573d6000803e3d6000fd5b505050506040513d601f19601f82011682018060405250810190611b8a9190612473565b979650505050505050565b60006118368284612636565b60408051600280825260608281019093526000929184918160200160208202803683370190505091508682600081518110611bec57634e487b7160e01b600052603260045260246000fd5b6001600160a01b0392831660209182029290920101526001805484519216918491908110611c2a57634e487b7160e01b600052603260045260246000fd5b6001600160a01b0392831660209182029290920101526040517f18cbafe50000000000000000000000000000000000000000000000000000000081526000918316906318cbafe590611c88908a90859088908c9042906004016125da565b600060405180830381600087803b158015611ca257600080fd5b505af1158015611cb6573d6000803e3d6000fd5b505050506040513d6000823e601f3d908101601f19168201604052611cde919081019061237b565b90508060018251611cef9190612636565b81518110611d0d57634e487b7160e01b600052603260045260246000fd5b60200260200101519350505050949350505050565b6060610e1e8484600085612007565b60045460009060609083906001600160a01b0388811691161415611f1957604080516003808252608082019092529060208201606080368337505060015482519294506001600160a01b031691849150600090611d9e57634e487b7160e01b600052603260045260246000fd5b6001600160a01b039283166020918202929092010152600554835191169083906001908110611ddd57634e487b7160e01b600052603260045260246000fd5b60200260200101906001600160a01b031690816001600160a01b0316815250508682600281518110611e1f57634e487b7160e01b600052603260045260246000fd5b6001600160a01b0392831660209182029290920101526003546040517f7ff36ab50000000000000000000000000000000000000000000000000000000081526000929190911690637ff36ab5908990611e8290859088908c9042906004016124ff565b6000604051808303818588803b158015611e9b57600080fd5b505af1158015611eaf573d6000803e3d6000fd5b50505050506040513d6000823e601f3d908101601f19168201604052611ed8919081019061237b565b90508060018251611ee99190612636565b81518110611f0757634e487b7160e01b600052603260045260246000fd5b60200260200101519350505050610e1e565b6040805160028082526060820183529091602083019080368337505060015482519294506001600160a01b031691849150600090611f6757634e487b7160e01b600052603260045260246000fd5b60200260200101906001600160a01b031690816001600160a01b0316815250508682600181518110611fa957634e487b7160e01b600052603260045260246000fd5b6001600160a01b0392831660209182029290920101526040517f7ff36ab5000000000000000000000000000000000000000000000000000000008152600091831690637ff36ab5908990611e8290859088908c9042906004016124ff565b6060612012856120fa565b61205e5760405162461bcd60e51b815260206004820152601d60248201527f416464726573733a2063616c6c20746f206e6f6e2d636f6e74726163740000006044820152606401610376565b600080866001600160a01b0316858760405161207a91906124e3565b60006040518083038185875af1925050503d80600081146120b7576040519150601f19603f3d011682016040523d82523d6000602084013e6120bc565b606091505b509150915081156120d0579150610e1e9050565b8051156120e05780518082602001fd5b8360405162461bcd60e51b81526004016103769190612534565b6000813f7fc5d2460186f7233c927e7db2dcc703c0e500b653ca82273b7bfad8045d85a470818114801590610e1e575050151592915050565b60008083601f840112612144578081fd5b50813567ffffffffffffffff81111561215b578182fd5b6020830191508360208260051b850101111561217657600080fd5b9250929050565b60006020828403121561218e578081fd5b81356118368161269b565b6000602082840312156121aa578081fd5b81516118368161269b565b6000806000606084860312156121c9578182fd5b83356121d48161269b565b925060208401356121e48161269b565b915060408401356121f48161269b565b809150509250925092565b600080600080600060a08688031215612216578081fd5b85356122218161269b565b94506020860135935060408601356122388161269b565b925060608601356122488161269b565b915060808601356122588161269b565b809150509295509295909350565b60008060008060008060c0878903121561227e578081fd5b86356122898161269b565b95506020870135945060408701356122a08161269b565b935060608701356122b08161269b565b925060808701356122c08161269b565b915060a08701356122d08161269b565b809150509295509295509295565b600080600080600080600060a0888a0312156122f8578081fd5b873567ffffffffffffffff8082111561230f578283fd5b61231b8b838c01612133565b909950975060208a0135915080821115612333578283fd5b506123408a828b01612133565b90965094505060408801356123548161269b565b925060608801356123648161269b565b809250506080880135905092959891949750929550565b6000602080838503121561238d578182fd5b825167ffffffffffffffff808211156123a4578384fd5b818501915085601f8301126123b7578384fd5b8151818111156123c9576123c9612685565b8060051b604051601f19603f830116810181811085821117156123ee576123ee612685565b604052828152858101935084860182860187018a101561240c578788fd5b8795505b8386101561242e578051855260019590950194938601938601612410565b5098975050505050505050565b60006020828403121561244c578081fd5b81518015158114611836578182fd5b60006020828403121561246c578081fd5b5051919050565b600080600060608486031215612487578283fd5b8351925060208401519150604084015190509250925092565b6000815180845260208085019450808401835b838110156124d85781516001600160a01b0316875295820195908201906001016124b3565b509495945050505050565b600082516124f5818460208701612659565b9190910192915050565b84815260806020820152600061251860808301866124a0565b6001600160a01b03949094166040830152506060015292915050565b6020815260008251806020840152612553816040850160208701612659565b601f01601f19169190910160400192915050565b868152602080820187905260a0604083018190528201859052600090869060c08401835b888110156125b957833561259e8161269b565b6001600160a01b03168252928201929082019060010161258b565b506001600160a01b0396909616606085015250505060800152949350505050565b85815284602082015260a0604082015260006125f960a08301866124a0565b6001600160a01b0394909416606083015250608001529392505050565b60008261263157634e487b7160e01b81526012600452602481fd5b500490565b60008282101561265457634e487b7160e01b81526011600452602481fd5b500390565b60005b8381101561267457818101518382015260200161265c565b8381111561047f5750506000910152565b634e487b7160e01b600052604160045260246000fd5b6001600160a01b038116811461067257600080fdfea2646970667358221220d1976769e0df9fc0d58f7e07de164e529e5ba425f4a7a6d952e260a214fd415d64736f6c63430008040033",
  "linkReferences": {},
  "deployedLinkReferences": {}
}