{
    "_format": "hh-sol-artifact-1",
    "contractName": "iFUSD",
    "sourceName": "contracts/iFUSD.sol",
    "abi": [
        {
            "inputs": [
                {
                    "internalType": "contract IERC20",
                    "name": "_fusd",
                    "type": "address"
                }
            ],
            "stateMutability": "nonpayable",
            "type": "constructor"
        },
        {
            "anonymous": false,
            "inputs": [
                {
                    "indexed": true,
                    "internalType": "address",
                    "name": "owner",
                    "type": "address"
                },
                {
                    "indexed": true,
                    "internalType": "address",
                    "name": "spender",
                    "type": "address"
                },
                {
                    "indexed": false,
                    "internalType": "uint256",
                    "name": "value",
                    "type": "uint256"
                }
            ],
            "name": "Approval",
            "type": "event"
        },
        {
            "anonymous": false,
            "inputs": [
                {
                    "indexed": false,
                    "internalType": "address",
                    "name": "user",
                    "type": "address"
                },
                {
                    "indexed": false,
                    "internalType": "uint256",
                    "name": "_steak",
                    "type": "uint256"
                }
            ],
            "name": "Deposit",
            "type": "event"
        },
        {
            "anonymous": false,
            "inputs": [
                {
                    "indexed": true,
                    "internalType": "address",
                    "name": "previousOwner",
                    "type": "address"
                },
                {
                    "indexed": true,
                    "internalType": "address",
                    "name": "newOwner",
                    "type": "address"
                }
            ],
            "name": "OwnershipTransferred",
            "type": "event"
        },
        {
            "anonymous": false,
            "inputs": [
                {
                    "indexed": true,
                    "internalType": "address",
                    "name": "from",
                    "type": "address"
                },
                {
                    "indexed": true,
                    "internalType": "address",
                    "name": "to",
                    "type": "address"
                },
                {
                    "indexed": false,
                    "internalType": "uint256",
                    "name": "value",
                    "type": "uint256"
                }
            ],
            "name": "Transfer",
            "type": "event"
        },
        {
            "anonymous": false,
            "inputs": [
                {
                    "indexed": false,
                    "internalType": "address",
                    "name": "",
                    "type": "address"
                },
                {
                    "indexed": false,
                    "internalType": "uint256",
                    "name": "_shares",
                    "type": "uint256"
                },
                {
                    "indexed": false,
                    "internalType": "uint256",
                    "name": "_steak",
                    "type": "uint256"
                }
            ],
            "name": "Withdraw",
            "type": "event"
        },
        {
            "inputs": [],
            "name": "DOMAIN_SEPARATOR",
            "outputs": [
                {
                    "internalType": "bytes32",
                    "name": "",
                    "type": "bytes32"
                }
            ],
            "stateMutability": "view",
            "type": "function"
        },
        {
            "inputs": [
                {
                    "internalType": "address",
                    "name": "owner",
                    "type": "address"
                },
                {
                    "internalType": "address",
                    "name": "spender",
                    "type": "address"
                }
            ],
            "name": "allowance",
            "outputs": [
                {
                    "internalType": "uint256",
                    "name": "",
                    "type": "uint256"
                }
            ],
            "stateMutability": "view",
            "type": "function"
        },
        {
            "inputs": [
                {
                    "internalType": "address",
                    "name": "spender",
                    "type": "address"
                },
                {
                    "internalType": "uint256",
                    "name": "amount",
                    "type": "uint256"
                }
            ],
            "name": "approve",
            "outputs": [
                {
                    "internalType": "bool",
                    "name": "",
                    "type": "bool"
                }
            ],
            "stateMutability": "nonpayable",
            "type": "function"
        },
        {
            "inputs": [
                {
                    "internalType": "address",
                    "name": "account",
                    "type": "address"
                }
            ],
            "name": "balanceOf",
            "outputs": [
                {
                    "internalType": "uint256",
                    "name": "",
                    "type": "uint256"
                }
            ],
            "stateMutability": "view",
            "type": "function"
        },
        {
            "inputs": [
                {
                    "internalType": "contract IERC20",
                    "name": "_token",
                    "type": "address"
                }
            ],
            "name": "collect",
            "outputs": [],
            "stateMutability": "nonpayable",
            "type": "function"
        },
        {
            "inputs": [],
            "name": "decimals",
            "outputs": [
                {
                    "internalType": "uint8",
                    "name": "",
                    "type": "uint8"
                }
            ],
            "stateMutability": "view",
            "type": "function"
        },
        {
            "inputs": [
                {
                    "internalType": "address",
                    "name": "spender",
                    "type": "address"
                },
                {
                    "internalType": "uint256",
                    "name": "subtractedValue",
                    "type": "uint256"
                }
            ],
            "name": "decreaseAllowance",
            "outputs": [
                {
                    "internalType": "bool",
                    "name": "",
                    "type": "bool"
                }
            ],
            "stateMutability": "nonpayable",
            "type": "function"
        },
        {
            "inputs": [
                {
                    "internalType": "uint256",
                    "name": "_amount",
                    "type": "uint256"
                }
            ],
            "name": "deposit",
            "outputs": [],
            "stateMutability": "nonpayable",
            "type": "function"
        },
        {
            "inputs": [
                {
                    "internalType": "uint256",
                    "name": "_amount",
                    "type": "uint256"
                },
                {
                    "components": [
                        {
                            "internalType": "address",
                            "name": "owner",
                            "type": "address"
                        },
                        {
                            "internalType": "address",
                            "name": "spender",
                            "type": "address"
                        },
                        {
                            "internalType": "uint256",
                            "name": "amount",
                            "type": "uint256"
                        },
                        {
                            "internalType": "uint256",
                            "name": "deadline",
                            "type": "uint256"
                        },
                        {
                            "internalType": "uint8",
                            "name": "v",
                            "type": "uint8"
                        },
                        {
                            "internalType": "bytes32",
                            "name": "r",
                            "type": "bytes32"
                        },
                        {
                            "internalType": "bytes32",
                            "name": "s",
                            "type": "bytes32"
                        }
                    ],
                    "internalType": "struct IiFUSD.Permit",
                    "name": "permit",
                    "type": "tuple"
                }
            ],
            "name": "depositWithPermit",
            "outputs": [],
            "stateMutability": "nonpayable",
            "type": "function"
        },
        {
            "inputs": [],
            "name": "fusd",
            "outputs": [
                {
                    "internalType": "contract IERC20",
                    "name": "",
                    "type": "address"
                }
            ],
            "stateMutability": "view",
            "type": "function"
        },
        {
            "inputs": [],
            "name": "getShareValue",
            "outputs": [
                {
                    "internalType": "uint256",
                    "name": "",
                    "type": "uint256"
                }
            ],
            "stateMutability": "view",
            "type": "function"
        },
        {
            "inputs": [
                {
                    "internalType": "address",
                    "name": "spender",
                    "type": "address"
                },
                {
                    "internalType": "uint256",
                    "name": "addedValue",
                    "type": "uint256"
                }
            ],
            "name": "increaseAllowance",
            "outputs": [
                {
                    "internalType": "bool",
                    "name": "",
                    "type": "bool"
                }
            ],
            "stateMutability": "nonpayable",
            "type": "function"
        },
        {
            "inputs": [],
            "name": "name",
            "outputs": [
                {
                    "internalType": "string",
                    "name": "",
                    "type": "string"
                }
            ],
            "stateMutability": "view",
            "type": "function"
        },
        {
            "inputs": [
                {
                    "internalType": "address",
                    "name": "owner",
                    "type": "address"
                }
            ],
            "name": "nonces",
            "outputs": [
                {
                    "internalType": "uint256",
                    "name": "",
                    "type": "uint256"
                }
            ],
            "stateMutability": "view",
            "type": "function"
        },
        {
            "inputs": [],
            "name": "owner",
            "outputs": [
                {
                    "internalType": "address",
                    "name": "",
                    "type": "address"
                }
            ],
            "stateMutability": "view",
            "type": "function"
        },
        {
            "inputs": [
                {
                    "internalType": "address",
                    "name": "owner",
                    "type": "address"
                },
                {
                    "internalType": "address",
                    "name": "spender",
                    "type": "address"
                },
                {
                    "internalType": "uint256",
                    "name": "value",
                    "type": "uint256"
                },
                {
                    "internalType": "uint256",
                    "name": "deadline",
                    "type": "uint256"
                },
                {
                    "internalType": "uint8",
                    "name": "v",
                    "type": "uint8"
                },
                {
                    "internalType": "bytes32",
                    "name": "r",
                    "type": "bytes32"
                },
                {
                    "internalType": "bytes32",
                    "name": "s",
                    "type": "bytes32"
                }
            ],
            "name": "permit",
            "outputs": [],
            "stateMutability": "nonpayable",
            "type": "function"
        },
        {
            "inputs": [],
            "name": "renounceOwnership",
            "outputs": [],
            "stateMutability": "nonpayable",
            "type": "function"
        },
        {
            "inputs": [],
            "name": "symbol",
            "outputs": [
                {
                    "internalType": "string",
                    "name": "",
                    "type": "string"
                }
            ],
            "stateMutability": "view",
            "type": "function"
        },
        {
            "inputs": [],
            "name": "totalSupply",
            "outputs": [
                {
                    "internalType": "uint256",
                    "name": "",
                    "type": "uint256"
                }
            ],
            "stateMutability": "view",
            "type": "function"
        },
        {
            "inputs": [
                {
                    "internalType": "address",
                    "name": "recipient",
                    "type": "address"
                },
                {
                    "internalType": "uint256",
                    "name": "amount",
                    "type": "uint256"
                }
            ],
            "name": "transfer",
            "outputs": [
                {
                    "internalType": "bool",
                    "name": "",
                    "type": "bool"
                }
            ],
            "stateMutability": "nonpayable",
            "type": "function"
        },
        {
            "inputs": [
                {
                    "internalType": "address",
                    "name": "sender",
                    "type": "address"
                },
                {
                    "internalType": "address",
                    "name": "recipient",
                    "type": "address"
                },
                {
                    "internalType": "uint256",
                    "name": "amount",
                    "type": "uint256"
                }
            ],
            "name": "transferFrom",
            "outputs": [
                {
                    "internalType": "bool",
                    "name": "",
                    "type": "bool"
                }
            ],
            "stateMutability": "nonpayable",
            "type": "function"
        },
        {
            "inputs": [
                {
                    "internalType": "address",
                    "name": "newOwner",
                    "type": "address"
                }
            ],
            "name": "transferOwnership",
            "outputs": [],
            "stateMutability": "nonpayable",
            "type": "function"
        },
        {
            "inputs": [
                {
                    "internalType": "uint256",
                    "name": "_share",
                    "type": "uint256"
                }
            ],
            "name": "withdraw",
            "outputs": [],
            "stateMutability": "nonpayable",
            "type": "function"
        }
    ],
    "bytecode": "0x6101606040527f6e71edae12b1b97f4d1f60370fef10105fa2faae0126114a169c64845d6126c9610120523480156200003757600080fd5b50604051620025ef380380620025ef8339810160408190526200005a91620002b8565b604051806040016040528060058152602001641a519554d160da1b81525080604051806040016040528060018152602001603160f81b815250604051806040016040528060058152602001641a519554d160da1b815250604051806040016040528060058152602001641a519554d160da1b8152508160039080519060200190620000e792919062000212565b508051620000fd90600490602084019062000212565b5050825160208085019190912083519184019190912060c082905260e08190524660a0529091507f8b73c3c69bb8fe3d512ecc4cf759cc79239f7b179b0ffacaa9a75d522b39400f62000152818484620001d2565b6080526101005250600093506200016d9250506200020e9050565b600680546001600160a01b0319166001600160a01b038316908117909155604051919250906000907f8be0079c531659141344cd1fd0a4f28419497f9722a3daafe3b4186f6b6457e0908290a35060601b6001600160601b0319166101405262000351565b60008383834630604051602001620001ef959493929190620002e8565b6040516020818303038152906040528051906020012090509392505050565b3390565b828054620002209062000314565b90600052602060002090601f0160209004810192826200024457600085556200028f565b82601f106200025f57805160ff19168380011785556200028f565b828001600101855582156200028f579182015b828111156200028f57825182559160200191906001019062000272565b506200029d929150620002a1565b5090565b5b808211156200029d5760008155600101620002a2565b600060208284031215620002ca578081fd5b81516001600160a01b0381168114620002e1578182fd5b9392505050565b9485526020850193909352604084019190915260608301526001600160a01b0316608082015260a00190565b6002810460018216806200032957607f821691505b602082108114156200034b57634e487b7160e01b600052602260045260246000fd5b50919050565b60805160a05160c05160e05161010051610120516101405160601c61220f620003e060003960008181610380015281816105e2015281816106b60152818161077d0152818161088401528181610a1301528181610aed0152610bd101526000610c4e01526000611193015260006111d5015260006111b4015260006111410152600061116a015261220f6000f3fe608060405234801561001057600080fd5b506004361061018d5760003560e01c806370a08231116100e3578063a457c2d71161008c578063d505accf11610066578063d505accf146102f7578063dd62ed3e1461030a578063f2fde38b1461031d5761018d565b8063a457c2d7146102be578063a9059cbb146102d1578063b6b55f25146102e45761018d565b80638da5cb5b116100bd5780638da5cb5b146102995780639566b6a7146102ae57806395d89b41146102b65761018d565b806370a082311461026b578063715018a61461027e5780637ecebe00146102865761018d565b8063255ae750116101455780633644e5151161011f5780633644e515146102485780633950935114610250578063437c3289146102635761018d565b8063255ae7501461020d5780632e1a7d4d14610220578063313ce567146102335761018d565b8063095ea7b311610176578063095ea7b3146101c557806318160ddd146101e557806323b872dd146101fa5761018d565b806306ec16f81461019257806306fdde03146101a7575b600080fd5b6101a56101a036600461164d565b610330565b005b6101af610489565b6040516101bc91906119b1565b60405180910390f35b6101d86101d336600461174e565b61051c565b6040516101bc919061191f565b6101ed610539565b6040516101bc919061192a565b6101d86102083660046116a1565b61053f565b6101a561021b3660046117c9565b6105d8565b6101a561022e366004611799565b6106a5565b61023b6107e4565b6040516101bc91906120b0565b6101ed6107e9565b6101d861025e36600461174e565b6107f8565b6101ed610847565b6101ed61027936600461164d565b610925565b6101a5610944565b6101ed61029436600461164d565b6109db565b6102a1610a02565b6040516101bc919061186c565b6102a1610a11565b6101af610a35565b6101d86102cc36600461174e565b610a44565b6101d86102df36600461174e565b610abf565b6101a56102f2366004611799565b610ad3565b6101a56103053660046116e1565b610c2a565b6101ed610318366004611669565b610d0c565b6101a561032b36600461164d565b610d37565b610338610e06565b6006546001600160a01b0390811691161461036e5760405162461bcd60e51b815260040161036590611e05565b60405180910390fd5b6000610378610539565b11156103d0577f00000000000000000000000000000000000000000000000000000000000000006001600160a01b0316816001600160a01b031614156103d05760405162461bcd60e51b815260040161036590611fe5565b6040516370a0823160e01b81526000906001600160a01b038316906370a08231906103ff90309060040161186c565b60206040518083038186803b15801561041757600080fd5b505afa15801561042b573d6000803e3d6000fd5b505050506040513d601f19601f8201168201806040525081019061044f91906117b1565b9050600081116104715760405162461bcd60e51b815260040161036590611cdd565b6104856001600160a01b0383163383610e0a565b5050565b60606003805461049890612176565b80601f01602080910402602001604051908101604052809291908181526020018280546104c490612176565b80156105115780601f106104e657610100808354040283529160200191610511565b820191906000526020600020905b8154815290600101906020018083116104f457829003601f168201915b505050505090505b90565b6000610530610529610e06565b8484610e92565b50600192915050565b60025490565b600061054c848484610f46565b6001600160a01b03841660009081526001602052604081208161056d610e06565b6001600160a01b03166001600160a01b03168152602001908152602001600020549050828110156105b05760405162461bcd60e51b815260040161036590611da8565b6105cb856105bc610e06565b6105c68685612133565b610e92565b60019150505b9392505050565b6001600160a01b037f00000000000000000000000000000000000000000000000000000000000000001663d505accf610614602084018461164d565b610624604085016020860161164d565b6040850135606086013561063e60a0880160808901611800565b8760a001358860c001356040518863ffffffff1660e01b815260040161066a97969594939291906118a4565b600060405180830381600087803b15801561068457600080fd5b505af1158015610698573d6000803e3d6000fd5b5050505061048582610ad3565b60006106af610539565b90506000817f00000000000000000000000000000000000000000000000000000000000000006001600160a01b03166370a08231306040518263ffffffff1660e01b8152600401610700919061186c565b60206040518083038186803b15801561071857600080fd5b505afa15801561072c573d6000803e3d6000fd5b505050506040513d601f19601f8201168201806040525081019061075091906117b1565b61075a90856120f6565b61076491906120d6565b90506107703384611063565b6107a46001600160a01b037f0000000000000000000000000000000000000000000000000000000000000000163383610e0a565b7ff279e6a1f5e320cca91135676d9cb6e44ca8a08c0b88342bcdb1144f6511b5683384836040516107d7939291906118fe565b60405180910390a1505050565b601290565b60006107f361113d565b905090565b6000610530610805610e06565b848460016000610813610e06565b6001600160a01b03908116825260208083019390935260409182016000908120918b16815292529020546105c691906120be565b600080610852610539565b1161086557670de0b6b3a76400006107f3565b61086d610539565b6040516370a0823160e01b81526001600160a01b037f000000000000000000000000000000000000000000000000000000000000000016906370a08231906108b990309060040161186c565b60206040518083038186803b1580156108d157600080fd5b505afa1580156108e5573d6000803e3d6000fd5b505050506040513d601f19601f8201168201806040525081019061090991906117b1565b61091b90670de0b6b3a76400006120f6565b6107f391906120d6565b6001600160a01b0381166000908152602081905260409020545b919050565b61094c610e06565b6006546001600160a01b039081169116146109795760405162461bcd60e51b815260040161036590611e05565b6006546040516000916001600160a01b0316907f8be0079c531659141344cd1fd0a4f28419497f9722a3daafe3b4186f6b6457e0908390a3600680547fffffffffffffffffffffffff0000000000000000000000000000000000000000169055565b6001600160a01b03811660009081526005602052604081206109fc90611200565b92915050565b6006546001600160a01b031690565b7f000000000000000000000000000000000000000000000000000000000000000081565b60606004805461049890612176565b60008060016000610a53610e06565b6001600160a01b0390811682526020808301939093526040918201600090812091881681529252902054905082811015610a9f5760405162461bcd60e51b81526004016103659061201c565b610ab5610aaa610e06565b856105c68685612133565b5060019392505050565b6000610530610acc610e06565b8484610f46565b6040516370a0823160e01b81526000906001600160a01b037f000000000000000000000000000000000000000000000000000000000000000016906370a0823190610b2290309060040161186c565b60206040518083038186803b158015610b3a57600080fd5b505afa158015610b4e573d6000803e3d6000fd5b505050506040513d601f19601f82011682018060405250810190610b7291906117b1565b90506000610b7e610539565b9050801580610b8b575081155b15610b9f57610b9a3384611204565b610bc4565b600082610bac83866120f6565b610bb691906120d6565b9050610bc23382611204565b505b610bf96001600160a01b037f0000000000000000000000000000000000000000000000000000000000000000163330866112b8565b7fe1fffcc4923d04b559f4d29a8bfc6cda04eb5b0d3c460751c2402c5c5cc9109c33846040516107d79291906118e5565b83421115610c4a5760405162461bcd60e51b815260040161036590611b8f565b60007f0000000000000000000000000000000000000000000000000000000000000000888888610c798c6112df565b89604051602001610c8f96959493929190611933565b6040516020818303038152906040528051906020012090506000610cb282611311565b90506000610cc28287878761134a565b9050896001600160a01b0316816001600160a01b031614610cf55760405162461bcd60e51b815260040161036590611d71565b610d008a8a8a610e92565b50505050505050505050565b6001600160a01b03918216600090815260016020908152604080832093909416825291909152205490565b610d3f610e06565b6006546001600160a01b03908116911614610d6c5760405162461bcd60e51b815260040161036590611e05565b6001600160a01b038116610d925760405162461bcd60e51b815260040161036590611ad5565b6006546040516001600160a01b038084169216907f8be0079c531659141344cd1fd0a4f28419497f9722a3daafe3b4186f6b6457e090600090a3600680547fffffffffffffffffffffffff0000000000000000000000000000000000000000166001600160a01b0392909216919091179055565b3390565b610e8d8363a9059cbb60e01b8484604051602401610e299291906118e5565b60408051601f198184030181529190526020810180517bffffffffffffffffffffffffffffffffffffffffffffffffffffffff167fffffffff0000000000000000000000000000000000000000000000000000000090931692909217909152611440565b505050565b6001600160a01b038316610eb85760405162461bcd60e51b815260040161036590611ef4565b6001600160a01b038216610ede5760405162461bcd60e51b815260040161036590611b32565b6001600160a01b0380841660008181526001602090815260408083209487168084529490915290819020849055517f8c5be1e5ebec7d5bd14f71427d1e84f3dd0314c0f7b2291e5b200ac8c7c3b92590610f3990859061192a565b60405180910390a3505050565b6001600160a01b038316610f6c5760405162461bcd60e51b815260040161036590611e97565b6001600160a01b038216610f925760405162461bcd60e51b815260040161036590611a1b565b6001600160a01b03831660009081526020819052604090205481811015610fcb5760405162461bcd60e51b815260040161036590611bc6565b610fd58282612133565b6001600160a01b03808616600090815260208190526040808220939093559085168152908120805484929061100b9084906120be565b92505081905550826001600160a01b0316846001600160a01b03167fddf252ad1be2c89b69c2b068fc378daa952ba7f163c4a11628f55a4df523b3ef84604051611055919061192a565b60405180910390a350505050565b6001600160a01b0382166110895760405162461bcd60e51b815260040161036590611e3a565b6001600160a01b038216600090815260208190526040902054818110156110c25760405162461bcd60e51b815260040161036590611a78565b6110cc8282612133565b6001600160a01b038416600090815260208190526040812091909155600280548492906110fa908490612133565b90915550506040516000906001600160a01b038516907fddf252ad1be2c89b69c2b068fc378daa952ba7f163c4a11628f55a4df523b3ef90610f3990869061192a565b60007f000000000000000000000000000000000000000000000000000000000000000046141561118e57507f0000000000000000000000000000000000000000000000000000000000000000610519565b6111f97f00000000000000000000000000000000000000000000000000000000000000007f00000000000000000000000000000000000000000000000000000000000000007f00000000000000000000000000000000000000000000000000000000000000006114cf565b9050610519565b5490565b6001600160a01b03821661122a5760405162461bcd60e51b815260040161036590612079565b806002600082825461123c91906120be565b90915550506001600160a01b038216600090815260208190526040812080548392906112699084906120be565b90915550506040516001600160a01b038316906000907fddf252ad1be2c89b69c2b068fc378daa952ba7f163c4a11628f55a4df523b3ef906112ac90859061192a565b60405180910390a35050565b6112d9846323b872dd60e01b858585604051602401610e2993929190611880565b50505050565b6001600160a01b038116600090815260056020526040812061130081611200565b915061130b81611509565b50919050565b600061131b61113d565b8260405160200161132d929190611836565b604051602081830303815290604052805190602001209050919050565b60007f7fffffffffffffffffffffffffffffff5d576e7357a4501ddfe92f46681b20a082111561138c5760405162461bcd60e51b815260040161036590611c23565b8360ff16601b14806113a157508360ff16601c145b6113bd5760405162461bcd60e51b815260040161036590611d14565b6000600186868686604051600081526020016040526040516113e29493929190611993565b6020604051602081039080840390855afa158015611404573d6000803e3d6000fd5b5050604051601f1901519150506001600160a01b0381166114375760405162461bcd60e51b8152600401610365906119e4565b95945050505050565b6000611495826040518060400160405280602081526020017f5361666545524332303a206c6f772d6c6576656c2063616c6c206661696c6564815250856001600160a01b03166115269092919063ffffffff16565b805190915015610e8d57808060200190518101906114b39190611779565b610e8d5760405162461bcd60e51b815260040161036590611f88565b600083838346306040516020016114ea959493929190611967565b6040516020818303038152906040528051906020012090509392505050565b600181600001600082825461151e91906120be565b909155505050565b6060611535848460008561153d565b949350505050565b60608247101561155f5760405162461bcd60e51b815260040161036590611c80565b611568856115fd565b6115845760405162461bcd60e51b815260040161036590611f51565b600080866001600160a01b031685876040516115a0919061181a565b60006040518083038185875af1925050503d80600081146115dd576040519150601f19603f3d011682016040523d82523d6000602084013e6115e2565b606091505b50915091506115f2828286611603565b979650505050505050565b3b151590565b606083156116125750816105d1565b8251156116225782518084602001fd5b8160405162461bcd60e51b815260040161036591906119b1565b803560ff8116811461093f57600080fd5b60006020828403121561165e578081fd5b81356105d1816121c1565b6000806040838503121561167b578081fd5b8235611686816121c1565b91506020830135611696816121c1565b809150509250929050565b6000806000606084860312156116b5578081fd5b83356116c0816121c1565b925060208401356116d0816121c1565b929592945050506040919091013590565b600080600080600080600060e0888a0312156116fb578283fd5b8735611706816121c1565b96506020880135611716816121c1565b955060408801359450606088013593506117326080890161163c565b925060a0880135915060c0880135905092959891949750929550565b60008060408385031215611760578182fd5b823561176b816121c1565b946020939093013593505050565b60006020828403121561178a578081fd5b815180151581146105d1578182fd5b6000602082840312156117aa578081fd5b5035919050565b6000602082840312156117c2578081fd5b5051919050565b6000808284036101008112156117dd578283fd5b8335925060e0601f19820112156117f2578182fd5b506020830190509250929050565b600060208284031215611811578081fd5b6105d18261163c565b6000825161182c81846020870161214a565b9190910192915050565b7f190100000000000000000000000000000000000000000000000000000000000081526002810192909252602282015260420190565b6001600160a01b0391909116815260200190565b6001600160a01b039384168152919092166020820152604081019190915260600190565b6001600160a01b0397881681529590961660208601526040850193909352606084019190915260ff16608083015260a082015260c081019190915260e00190565b6001600160a01b03929092168252602082015260400190565b6001600160a01b039390931683526020830191909152604082015260600190565b901515815260200190565b90815260200190565b9586526001600160a01b0394851660208701529290931660408501526060840152608083019190915260a082015260c00190565b9485526020850193909352604084019190915260608301526001600160a01b0316608082015260a00190565b93845260ff9290921660208401526040830152606082015260800190565b60006020825282518060208401526119d081604085016020870161214a565b601f01601f19169190910160400192915050565b60208082526018908201527f45434453413a20696e76616c6964207369676e61747572650000000000000000604082015260600190565b60208082526023908201527f45524332303a207472616e7366657220746f20746865207a65726f206164647260408201527f6573730000000000000000000000000000000000000000000000000000000000606082015260800190565b60208082526022908201527f45524332303a206275726e20616d6f756e7420657863656564732062616c616e60408201527f6365000000000000000000000000000000000000000000000000000000000000606082015260800190565b60208082526026908201527f4f776e61626c653a206e6577206f776e657220697320746865207a65726f206160408201527f6464726573730000000000000000000000000000000000000000000000000000606082015260800190565b60208082526022908201527f45524332303a20617070726f766520746f20746865207a65726f20616464726560408201527f7373000000000000000000000000000000000000000000000000000000000000606082015260800190565b6020808252601d908201527f45524332305065726d69743a206578706972656420646561646c696e65000000604082015260600190565b60208082526026908201527f45524332303a207472616e7366657220616d6f756e742065786365656473206260408201527f616c616e63650000000000000000000000000000000000000000000000000000606082015260800190565b60208082526022908201527f45434453413a20696e76616c6964207369676e6174757265202773272076616c60408201527f7565000000000000000000000000000000000000000000000000000000000000606082015260800190565b60208082526026908201527f416464726573733a20696e73756666696369656e742062616c616e636520666f60408201527f722063616c6c0000000000000000000000000000000000000000000000000000606082015260800190565b6020808252601a908201527f69465553443a205f746f6b656e2062616c616e63652069732030000000000000604082015260600190565b60208082526022908201527f45434453413a20696e76616c6964207369676e6174757265202776272076616c60408201527f7565000000000000000000000000000000000000000000000000000000000000606082015260800190565b6020808252601e908201527f45524332305065726d69743a20696e76616c6964207369676e61747572650000604082015260600190565b60208082526028908201527f45524332303a207472616e7366657220616d6f756e742065786365656473206160408201527f6c6c6f77616e6365000000000000000000000000000000000000000000000000606082015260800190565b6020808252818101527f4f776e61626c653a2063616c6c6572206973206e6f7420746865206f776e6572604082015260600190565b60208082526021908201527f45524332303a206275726e2066726f6d20746865207a65726f2061646472657360408201527f7300000000000000000000000000000000000000000000000000000000000000606082015260800190565b60208082526025908201527f45524332303a207472616e736665722066726f6d20746865207a65726f20616460408201527f6472657373000000000000000000000000000000000000000000000000000000606082015260800190565b60208082526024908201527f45524332303a20617070726f76652066726f6d20746865207a65726f2061646460408201527f7265737300000000000000000000000000000000000000000000000000000000606082015260800190565b6020808252601d908201527f416464726573733a2063616c6c20746f206e6f6e2d636f6e7472616374000000604082015260600190565b6020808252602a908201527f5361666545524332303a204552433230206f7065726174696f6e20646964206e60408201527f6f74207375636365656400000000000000000000000000000000000000000000606082015260800190565b6020808252601a908201527f69465553443a2063616e6e6f7420636f6c6c6563742046555344000000000000604082015260600190565b60208082526025908201527f45524332303a2064656372656173656420616c6c6f77616e63652062656c6f7760408201527f207a65726f000000000000000000000000000000000000000000000000000000606082015260800190565b6020808252601f908201527f45524332303a206d696e7420746f20746865207a65726f206164647265737300604082015260600190565b60ff91909116815260200190565b600082198211156120d1576120d16121ab565b500190565b6000826120f157634e487b7160e01b81526012600452602481fd5b500490565b6000817fffffffffffffffffffffffffffffffffffffffffffffffffffffffffffffffff048311821515161561212e5761212e6121ab565b500290565b600082821015612145576121456121ab565b500390565b60005b8381101561216557818101518382015260200161214d565b838111156112d95750506000910152565b60028104600182168061218a57607f821691505b6020821081141561130b57634e487b7160e01b600052602260045260246000fd5b634e487b7160e01b600052601160045260246000fd5b6001600160a01b03811681146121d657600080fd5b5056fea2646970667358221220d5e2b0c88da8d4d7c92a11e7300b475ef7ef07ea4cfcf0e1fb9dd85f11357ebe64736f6c63430008000033",
    "linkReferences": {},
    "deployedLinkReferences": {}
}