{
  "_format": "hh-sol-artifact-1",
  "contractName": "SteakHouse",
  "sourceName": "contracts/flat-SteakHouse.sol",
  "abi": [
    {
      "inputs": [
        {
          "internalType": "contract IERC20",
          "name": "_steak",
          "type": "address"
        },
        {
          "internalType": "contract IERC20",
          "name": "_ifusd",
          "type": "address"
        },
        {
          "internalType": "uint256",
          "name": "_steakPerSecond",
          "type": "uint256"
        },
        {
          "internalType": "uint32",
          "name": "_startTime",
          "type": "uint32"
        }
      ],
      "stateMutability": "nonpayable",
      "type": "constructor"
    },
    {
      "anonymous": false,
      "inputs": [
        {
          "indexed": true,
          "internalType": "address",
          "name": "user",
          "type": "address"
        },
        {
          "indexed": true,
          "internalType": "uint256",
          "name": "pid",
          "type": "uint256"
        },
        {
          "indexed": false,
          "internalType": "uint256",
          "name": "amount",
          "type": "uint256"
        }
      ],
      "name": "Deposit",
      "type": "event"
    },
    {
      "anonymous": false,
      "inputs": [
        {
          "indexed": true,
          "internalType": "address",
          "name": "user",
          "type": "address"
        },
        {
          "indexed": true,
          "internalType": "uint256",
          "name": "pid",
          "type": "uint256"
        },
        {
          "indexed": false,
          "internalType": "uint256",
          "name": "amount",
          "type": "uint256"
        }
      ],
      "name": "EmergencyWithdraw",
      "type": "event"
    },
    {
      "anonymous": false,
      "inputs": [
        {
          "indexed": true,
          "internalType": "address",
          "name": "user",
          "type": "address"
        },
        {
          "indexed": true,
          "internalType": "uint256",
          "name": "pid",
          "type": "uint256"
        },
        {
          "indexed": false,
          "internalType": "uint256",
          "name": "amount",
          "type": "uint256"
        }
      ],
      "name": "FeeCollected",
      "type": "event"
    },
    {
      "anonymous": false,
      "inputs": [
        {
          "indexed": true,
          "internalType": "address",
          "name": "previousOwner",
          "type": "address"
        },
        {
          "indexed": true,
          "internalType": "address",
          "name": "newOwner",
          "type": "address"
        }
      ],
      "name": "OwnershipTransferred",
      "type": "event"
    },
    {
      "anonymous": false,
      "inputs": [
        {
          "indexed": true,
          "internalType": "address",
          "name": "user",
          "type": "address"
        },
        {
          "indexed": true,
          "internalType": "uint256",
          "name": "pid",
          "type": "uint256"
        },
        {
          "indexed": false,
          "internalType": "uint256",
          "name": "amount",
          "type": "uint256"
        }
      ],
      "name": "Withdraw",
      "type": "event"
    },
    {
      "inputs": [
        {
          "internalType": "uint16",
          "name": "_allocPoint",
          "type": "uint16"
        },
        {
          "internalType": "contract IERC20",
          "name": "_stakingToken",
          "type": "address"
        },
        {
          "internalType": "bool",
          "name": "_withUpdate",
          "type": "bool"
        }
      ],
      "name": "add",
      "outputs": [],
      "stateMutability": "nonpayable",
      "type": "function"
    },
    {
      "inputs": [
        {
          "internalType": "uint32",
          "name": "addSeconds",
          "type": "uint32"
        }
      ],
      "name": "changeEndTime",
      "outputs": [],
      "stateMutability": "nonpayable",
      "type": "function"
    },
    {
      "inputs": [
        {
          "internalType": "uint256",
          "name": "_amount",
          "type": "uint256"
        }
      ],
      "name": "collect",
      "outputs": [],
      "stateMutability": "nonpayable",
      "type": "function"
    },
    {
      "inputs": [
        {
          "internalType": "uint256",
          "name": "_pid",
          "type": "uint256"
        },
        {
          "internalType": "uint256",
          "name": "_amount",
          "type": "uint256"
        }
      ],
      "name": "deposit",
      "outputs": [],
      "stateMutability": "nonpayable",
      "type": "function"
    },
    {
      "inputs": [
        {
          "internalType": "uint256",
          "name": "_pid",
          "type": "uint256"
        }
      ],
      "name": "emergencyWithdraw",
      "outputs": [],
      "stateMutability": "nonpayable",
      "type": "function"
    },
    {
      "inputs": [],
      "name": "endTime",
      "outputs": [
        {
          "internalType": "uint32",
          "name": "",
          "type": "uint32"
        }
      ],
      "stateMutability": "view",
      "type": "function"
    },
    {
      "inputs": [],
      "name": "fee",
      "outputs": [
        {
          "internalType": "uint256",
          "name": "",
          "type": "uint256"
        }
      ],
      "stateMutability": "view",
      "type": "function"
    },
    {
      "inputs": [
        {
          "internalType": "uint256",
          "name": "_from",
          "type": "uint256"
        },
        {
          "internalType": "uint256",
          "name": "_to",
          "type": "uint256"
        }
      ],
      "name": "getMultiplier",
      "outputs": [
        {
          "internalType": "uint256",
          "name": "",
          "type": "uint256"
        }
      ],
      "stateMutability": "view",
      "type": "function"
    },
    {
      "inputs": [],
      "name": "ifusd",
      "outputs": [
        {
          "internalType": "contract IERC20",
          "name": "",
          "type": "address"
        }
      ],
      "stateMutability": "view",
      "type": "function"
    },
    {
      "inputs": [],
      "name": "massUpdatePools",
      "outputs": [],
      "stateMutability": "nonpayable",
      "type": "function"
    },
    {
      "inputs": [],
      "name": "owner",
      "outputs": [
        {
          "internalType": "address",
          "name": "",
          "type": "address"
        }
      ],
      "stateMutability": "view",
      "type": "function"
    },
    {
      "inputs": [
        {
          "internalType": "uint256",
          "name": "_pid",
          "type": "uint256"
        },
        {
          "internalType": "address",
          "name": "_user",
          "type": "address"
        }
      ],
      "name": "pendingSteak",
      "outputs": [
        {
          "internalType": "uint256",
          "name": "",
          "type": "uint256"
        }
      ],
      "stateMutability": "view",
      "type": "function"
    },
    {
      "inputs": [
        {
          "internalType": "uint256",
          "name": "",
          "type": "uint256"
        }
      ],
      "name": "poolInfo",
      "outputs": [
        {
          "internalType": "contract IERC20",
          "name": "stakingToken",
          "type": "address"
        },
        {
          "internalType": "uint256",
          "name": "stakingTokenTotalAmount",
          "type": "uint256"
        },
        {
          "internalType": "uint256",
          "name": "accSteakPerShare",
          "type": "uint256"
        },
        {
          "internalType": "uint32",
          "name": "lastRewardTime",
          "type": "uint32"
        },
        {
          "internalType": "uint16",
          "name": "allocPoint",
          "type": "uint16"
        }
      ],
      "stateMutability": "view",
      "type": "function"
    },
    {
      "inputs": [],
      "name": "poolLength",
      "outputs": [
        {
          "internalType": "uint256",
          "name": "",
          "type": "uint256"
        }
      ],
      "stateMutability": "view",
      "type": "function"
    },
    {
      "inputs": [],
      "name": "renounceOwnership",
      "outputs": [],
      "stateMutability": "nonpayable",
      "type": "function"
    },
    {
      "inputs": [
        {
          "internalType": "uint256",
          "name": "_pid",
          "type": "uint256"
        },
        {
          "internalType": "uint16",
          "name": "_allocPoint",
          "type": "uint16"
        },
        {
          "internalType": "bool",
          "name": "_withUpdate",
          "type": "bool"
        }
      ],
      "name": "set",
      "outputs": [],
      "stateMutability": "nonpayable",
      "type": "function"
    },
    {
      "inputs": [
        {
          "internalType": "uint256",
          "name": "_fee",
          "type": "uint256"
        }
      ],
      "name": "setFee",
      "outputs": [],
      "stateMutability": "nonpayable",
      "type": "function"
    },
    {
      "inputs": [
        {
          "internalType": "uint256",
          "name": "_steakPerSecond",
          "type": "uint256"
        },
        {
          "internalType": "bool",
          "name": "_withUpdate",
          "type": "bool"
        }
      ],
      "name": "setSteakPerSecond",
      "outputs": [],
      "stateMutability": "nonpayable",
      "type": "function"
    },
    {
      "inputs": [],
      "name": "startTime",
      "outputs": [
        {
          "internalType": "uint32",
          "name": "",
          "type": "uint32"
        }
      ],
      "stateMutability": "view",
      "type": "function"
    },
    {
      "inputs": [],
      "name": "steak",
      "outputs": [
        {
          "internalType": "contract IERC20",
          "name": "",
          "type": "address"
        }
      ],
      "stateMutability": "view",
      "type": "function"
    },
    {
      "inputs": [],
      "name": "steakPerSecond",
      "outputs": [
        {
          "internalType": "uint256",
          "name": "",
          "type": "uint256"
        }
      ],
      "stateMutability": "view",
      "type": "function"
    },
    {
      "inputs": [],
      "name": "totalAllocPoint",
      "outputs": [
        {
          "internalType": "uint256",
          "name": "",
          "type": "uint256"
        }
      ],
      "stateMutability": "view",
      "type": "function"
    },
    {
      "inputs": [
        {
          "internalType": "address",
          "name": "newOwner",
          "type": "address"
        }
      ],
      "name": "transferOwnership",
      "outputs": [],
      "stateMutability": "nonpayable",
      "type": "function"
    },
    {
      "inputs": [
        {
          "internalType": "uint256",
          "name": "_pid",
          "type": "uint256"
        }
      ],
      "name": "updatePool",
      "outputs": [],
      "stateMutability": "nonpayable",
      "type": "function"
    },
    {
      "inputs": [
        {
          "internalType": "uint256",
          "name": "",
          "type": "uint256"
        },
        {
          "internalType": "address",
          "name": "",
          "type": "address"
        }
      ],
      "name": "userInfo",
      "outputs": [
        {
          "internalType": "uint256",
          "name": "amount",
          "type": "uint256"
        },
        {
          "internalType": "uint256",
          "name": "rewardDebt",
          "type": "uint256"
        },
        {
          "internalType": "uint256",
          "name": "remainingSteakTokenReward",
          "type": "uint256"
        }
      ],
      "stateMutability": "view",
      "type": "function"
    },
    {
      "inputs": [
        {
          "internalType": "uint256",
          "name": "_pid",
          "type": "uint256"
        },
        {
          "internalType": "uint256",
          "name": "_amount",
          "type": "uint256"
        }
      ],
      "name": "withdraw",
      "outputs": [],
      "stateMutability": "nonpayable",
      "type": "function"
    }
  ],
  "bytecode": "0x60e060405261138860025560006005553480156200001c57600080fd5b5060405162001f5c38038062001f5c8339810160408190526200003f916200011b565b60006200004b620000fa565b600080546001600160a01b0319166001600160a01b0383169081178255604051929350917f8be0079c531659141344cd1fd0a4f28419497f9722a3daafe3b4186f6b6457e0908290a3506001600160601b0319606085811b821660805284901b1660a05260018290556001600160e01b031960e082901b1660c052620000d58162093a8062000177565b6006805463ffffffff191663ffffffff9290921691909117905550620001ac92505050565b3390565b80516001600160a01b03811681146200011657600080fd5b919050565b6000806000806080858703121562000131578384fd5b6200013c85620000fe565b93506200014c60208601620000fe565b925060408501519150606085015163ffffffff811681146200016c578182fd5b939692955090935050565b600063ffffffff808316818516808303821115620001a357634e487b7160e01b84526011600452602484fd5b01949350505050565b60805160601c60a05160601c60c05160e01c611d2a62000232600039600081816109f201528181610a2701528181610a5401528181610a9601528181610b7a0152610ba70152600081816109ce015261113e01526000818161091e01528181610e3301528181610eef0152818161137801528181611437015261147d0152611d2a6000f3fe608060405234801561001057600080fd5b50600436106101ae5760003560e01c806376b8fcfc116100ee578063c64048f911610097578063d1c1b4a811610071578063d1c1b4a814610339578063ddca3f431461034c578063e2bbb15814610354578063f2fde38b14610367576101ae565b8063c64048f914610300578063ce3f865f14610313578063cf42947b14610326576101ae565b80638dbb1e3a116100c85780638dbb1e3a146102b857806393f1a40b146102cb57806398ec8da6146102ed576101ae565b806376b8fcfc146102a057806378e97925146102a85780638da5cb5b146102b0576101ae565b8063441a3e701161015b578063630b5ba111610135578063630b5ba11461026857806369fe0e2d146102705780636f19031514610283578063715018a614610298576101ae565b8063441a3e701461022d57806351eb05a6146102425780635312ea8e14610255576101ae565b80631e0c3abf1161018c5780631e0c3abf146101fd5780631fb3b624146102105780633197cbb614610218576101ae565b8063081e3eda146101b35780631526fe27146101d157806317caf6f1146101f5575b600080fd5b6101bb61037a565b6040516101c89190611bae565b60405180910390f35b6101e46101df36600461179c565b610380565b6040516101c89594939291906118f5565b6101bb6103d8565b6101bb61020b3660046117cc565b6103de565b6101bb61052b565b610220610531565b6040516101c89190611bcd565b61024061023b366004611843565b61053d565b005b61024061025036600461179c565b6106cb565b61024061026336600461179c565b6107e9565b6102406108a8565b61024061027e36600461179c565b6108d3565b61028b61091c565b6040516101c891906118a4565b610240610940565b61028b6109cc565b6102206109f0565b61028b610a14565b6101bb6102c6366004611843565b610a23565b6102de6102d93660046117cc565b610b07565b6040516101c893929190611bb7565b6102406102fb366004611754565b610b33565b61024061030e3660046117fb565b610d47565b61024061032136600461179c565b610d90565b610240610334366004611864565b610f16565b61024061034736600461181f565b610f87565b6101bb61107f565b610240610362366004611843565b611085565b61024061037536600461171c565b6112b0565b60035490565b6003818154811061039057600080fd5b600091825260209091206004909102018054600182015460028301546003909301546001600160a01b039092169350919063ffffffff811690640100000000900461ffff1685565b60055481565b6000806003848154811061040257634e487b7160e01b600052603260045260246000fd5b60009182526020808320878452600480835260408086206001600160a01b038a168752909352919093209102909101600281015460038201549193509063ffffffff16421180156104565750600183015415155b156104e35760038301546000906104739063ffffffff1642610a23565b905060006005548560030160049054906101000a900461ffff1661ffff166001548461049f9190611c3e565b6104a99190611c3e565b6104b39190611c1e565b60018601549091506104ca8264e8d4a51000611c3e565b6104d49190611c1e565b6104de9084611bde565b925050505b60028201546001830154835464e8d4a5100090610501908590611c3e565b61050b9190611c1e565b6105159190611c5d565b61051f9190611bde565b93505050505b92915050565b60015481565b60065463ffffffff1681565b60006003838154811061056057634e487b7160e01b600052603260045260246000fd5b60009182526020808320868452600480835260408086203387529093529190932080549290910290920192508311156105b45760405162461bcd60e51b81526004016105ab906119f4565b60405180910390fd5b6105bd846106cb565b60008160020154826001015464e8d4a51000856002015485600001546105e39190611c3e565b6105ed9190611c1e565b6105f79190611c5d565b6106019190611bde565b905061060d3382611373565b6002830155815484908390600090610626908490611c5d565b92505081905550838360010160008282546106419190611c5d565b90915550506002830154825464e8d4a510009161065d91611c3e565b6106679190611c1e565b60018301558254610682906001600160a01b031633866114ae565b84336001600160a01b03167ff279e6a1f5e320cca91135676d9cb6e44ca8a08c0b88342bcdb1144f6511b568866040516106bc9190611bae565b60405180910390a35050505050565b6000600382815481106106ee57634e487b7160e01b600052603260045260246000fd5b60009182526020909120600490910201600381015490915063ffffffff16421161071857506107e6565b600181015461073c57600301805463ffffffff19164263ffffffff161790556107e6565b60038101546000906107549063ffffffff1642610a23565b905060006005548360030160049054906101000a900461ffff1661ffff16600154846107809190611c3e565b61078a9190611c3e565b6107949190611c1e565b60018401549091506107ab8264e8d4a51000611c3e565b6107b59190611c1e565b8360020160008282546107c89190611bde565b90915550505050600301805463ffffffff19164263ffffffff161790555b50565b60006003828154811061080c57634e487b7160e01b600052603260045260246000fd5b6000918252602080832085845260048083526040808620338088529452852080548682556001820187905560028201969096559302018054909450919291610860916001600160a01b0390911690836114ae565b83336001600160a01b03167fbb757047c2b5f3974fe26b7c10f732e7bce710b0952a71082702781e62ae05958360405161089a9190611bae565b60405180910390a350505050565b60035460005b818110156108cf576108bf816106cb565b6108c881611ca0565b90506108ae565b5050565b6108db611536565b6000546001600160a01b039081169116146109085760405162461bcd60e51b81526004016105ab90611aae565b61c35081111561091757600080fd5b600255565b7f000000000000000000000000000000000000000000000000000000000000000081565b610948611536565b6000546001600160a01b039081169116146109755760405162461bcd60e51b81526004016105ab90611aae565b600080546040516001600160a01b03909116907f8be0079c531659141344cd1fd0a4f28419497f9722a3daafe3b4186f6b6457e0908390a36000805473ffffffffffffffffffffffffffffffffffffffff19169055565b7f000000000000000000000000000000000000000000000000000000000000000081565b7f000000000000000000000000000000000000000000000000000000000000000081565b6000546001600160a01b031690565b60007f000000000000000000000000000000000000000000000000000000000000000063ffffffff168311610a7e577f000000000000000000000000000000000000000000000000000000000000000063ffffffff16610a80565b825b60065490935063ffffffff16831180610abe57507f000000000000000000000000000000000000000000000000000000000000000063ffffffff1682105b15610acb57506000610525565b60065463ffffffff16821115610af657600654610aef90849063ffffffff16611c5d565b9050610525565b610b008383611c5d565b9392505050565b600460209081526000928352604080842090915290825290208054600182015460029092015490919083565b610b3b611536565b6000546001600160a01b03908116911614610b685760405162461bcd60e51b81526004016105ab90611aae565b8015610b7657610b766108a8565b60007f000000000000000000000000000000000000000000000000000000000000000063ffffffff164211610bd1577f000000000000000000000000000000000000000000000000000000000000000063ffffffff16610bd3565b425b90508361ffff1660056000828254610beb9190611bde565b90915550506040805160a0810182526001600160a01b03948516815260006020820181815292820181815263ffffffff9485166060840190815261ffff9889166080850190815260038054600181018255945293517fc2575a0e9e593c00f959f8c92f12db2869c3395a3b0502d05e2516446f71f85b6004909402938401805473ffffffffffffffffffffffffffffffffffffffff1916919099161790975592517fc2575a0e9e593c00f959f8c92f12db2869c3395a3b0502d05e2516446f71f85c82015591517fc2575a0e9e593c00f959f8c92f12db2869c3395a3b0502d05e2516446f71f85d83015593517fc2575a0e9e593c00f959f8c92f12db2869c3395a3b0502d05e2516446f71f85e9091018054945163ffffffff1990951691909216177fffffffffffffffffffffffffffffffffffffffffffffffffffff0000ffffffff16640100000000939094169290920292909217905550565b610d4f611536565b6000546001600160a01b03908116911614610d7c5760405162461bcd60e51b81526004016105ab90611aae565b8015610d8a57610d8a6108a8565b50600155565b610d98611536565b6000546001600160a01b03908116911614610dc55760405162461bcd60e51b81526004016105ab90611aae565b600654610ddb9063ffffffff1662093a80611bf6565b63ffffffff16421015610e005760405162461bcd60e51b81526004016105ab906119bd565b6040517f70a082310000000000000000000000000000000000000000000000000000000081526000906001600160a01b037f000000000000000000000000000000000000000000000000000000000000000016906370a0823190610e689030906004016118a4565b60206040518083038186803b158015610e8057600080fd5b505afa158015610e94573d6000803e3d6000fd5b505050506040513d601f19601f82011682018060405250810190610eb891906117b4565b905080821115610eda5760405162461bcd60e51b81526004016105ab90611ae3565b6108cf610ee5610a14565b6001600160a01b037f00000000000000000000000000000000000000000000000000000000000000001690846114ae565b610f1e611536565b6000546001600160a01b03908116911614610f4b5760405162461bcd60e51b81526004016105ab90611aae565b60068054829190600090610f6690849063ffffffff16611bf6565b92506101000a81548163ffffffff021916908363ffffffff16021790555050565b610f8f611536565b6000546001600160a01b03908116911614610fbc5760405162461bcd60e51b81526004016105ab90611aae565b8015610fca57610fca6108a8565b8161ffff1660038481548110610ff057634e487b7160e01b600052603260045260246000fd5b600091825260209091206004909102016003015460055461101d91640100000000900461ffff1690611c5d565b6110279190611bde565b600581905550816003848154811061104f57634e487b7160e01b600052603260045260246000fd5b906000526020600020906004020160030160046101000a81548161ffff021916908361ffff160217905550505050565b60025481565b6000600383815481106110a857634e487b7160e01b600052603260045260246000fd5b600091825260208083208684526004808352604080862033875290935291909320910290910191506110d9846106cb565b8054156111375760008160020154826001015464e8d4a51000856002015485600001546111069190611c3e565b6111109190611c1e565b61111a9190611c5d565b6111249190611bde565b90506111303382611373565b6002830155505b81546000907f00000000000000000000000000000000000000000000000000000000000000006001600160a01b0390811691161461118e57620f4240600254856111819190611c3e565b61118b9190611c1e565b90505b82546111a5906001600160a01b031633308761153a565b6111c26111b0610a14565b84546001600160a01b031690836114ae565b60006111ce8286611c5d565b9050808360000160008282546111e49190611bde565b92505081905550808460010160008282546111ff9190611bde565b90915550506002840154835464e8d4a510009161121b91611c3e565b6112259190611c1e565b6001840155604051869033907f90890809c654f11d6e72a28fa60149770a0d11ec6c92319d6ceb2bb0a4ea1a159061125e908590611bae565b60405180910390a385336001600160a01b03167f108516ddcf5ba43cea6bb2cd5ff6d59ac196c1c86ccb9178332b9dd72d1ca561846040516112a09190611bae565b60405180910390a3505050505050565b6112b8611536565b6000546001600160a01b039081169116146112e55760405162461bcd60e51b81526004016105ab90611aae565b6001600160a01b03811661130b5760405162461bcd60e51b81526004016105ab90611960565b600080546040516001600160a01b03808516939216917f8be0079c531659141344cd1fd0a4f28419497f9722a3daafe3b4186f6b6457e091a36000805473ffffffffffffffffffffffffffffffffffffffff19166001600160a01b0392909216919091179055565b6000807f00000000000000000000000000000000000000000000000000000000000000006001600160a01b03166370a08231306040518263ffffffff1660e01b81526004016113c291906118a4565b60206040518083038186803b1580156113da57600080fd5b505afa1580156113ee573d6000803e3d6000fd5b505050506040513d601f19601f8201168201806040525081019061141291906117b4565b9050806114225782915050610525565b808311156114705761145e6001600160a01b037f00000000000000000000000000000000000000000000000000000000000000001685836114ae565b6114688184611c5d565b915050610525565b6114a46001600160a01b037f00000000000000000000000000000000000000000000000000000000000000001685856114ae565b5060009392505050565b6115318363a9059cbb60e01b84846040516024016114cd9291906118dc565b60408051601f198184030181529190526020810180517bffffffffffffffffffffffffffffffffffffffffffffffffffffffff167fffffffff0000000000000000000000000000000000000000000000000000000090931692909217909152611561565b505050565b3390565b61155b846323b872dd60e01b8585856040516024016114cd939291906118b8565b50505050565b60006115b6826040518060400160405280602081526020017f5361666545524332303a206c6f772d6c6576656c2063616c6c206661696c6564815250856001600160a01b03166115f09092919063ffffffff16565b80519091501561153157808060200190518101906115d49190611738565b6115315760405162461bcd60e51b81526004016105ab90611b51565b60606115ff8484600085611607565b949350505050565b6060824710156116295760405162461bcd60e51b81526004016105ab90611a51565b611632856116c7565b61164e5760405162461bcd60e51b81526004016105ab90611b1a565b600080866001600160a01b0316858760405161166a9190611888565b60006040518083038185875af1925050503d80600081146116a7576040519150601f19603f3d011682016040523d82523d6000602084013e6116ac565b606091505b50915091506116bc8282866116d1565b979650505050505050565b803b15155b919050565b606083156116e0575081610b00565b8251156116f05782518084602001fd5b8160405162461bcd60e51b81526004016105ab919061192d565b803561ffff811681146116cc57600080fd5b60006020828403121561172d578081fd5b8135610b0081611cd1565b600060208284031215611749578081fd5b8151610b0081611ce6565b600080600060608486031215611768578182fd5b6117718461170a565b9250602084013561178181611cd1565b9150604084013561179181611ce6565b809150509250925092565b6000602082840312156117ad578081fd5b5035919050565b6000602082840312156117c5578081fd5b5051919050565b600080604083850312156117de578182fd5b8235915060208301356117f081611cd1565b809150509250929050565b6000806040838503121561180d578182fd5b8235915060208301356117f081611ce6565b600080600060608486031215611833578283fd5b833592506117816020850161170a565b60008060408385031215611855578182fd5b50508035926020909101359150565b600060208284031215611875578081fd5b813563ffffffff81168114610b00578182fd5b6000825161189a818460208701611c74565b9190910192915050565b6001600160a01b0391909116815260200190565b6001600160a01b039384168152919092166020820152604081019190915260600190565b6001600160a01b03929092168252602082015260400190565b6001600160a01b039590951685526020850193909352604084019190915263ffffffff16606083015261ffff16608082015260a00190565b600060208252825180602084015261194c816040850160208701611c74565b601f01601f19169190910160400192915050565b60208082526026908201527f4f776e61626c653a206e6577206f776e657220697320746865207a65726f206160408201527f6464726573730000000000000000000000000000000000000000000000000000606082015260800190565b60208082526014908201527f746f6f206561726c7920746f20636f6c6c656374000000000000000000000000604082015260600190565b6020808252603f908201527f537465616b486f7573653a20616d6f756e7420746f207769746864726177206960408201527f732067726561746572207468616e20616d6f756e7420617661696c61626c6500606082015260800190565b60208082526026908201527f416464726573733a20696e73756666696369656e742062616c616e636520666f60408201527f722063616c6c0000000000000000000000000000000000000000000000000000606082015260800190565b6020808252818101527f4f776e61626c653a2063616c6c6572206973206e6f7420746865206f776e6572604082015260600190565b60208082526014908201527f7769746864726177696e6720746f6f206d756368000000000000000000000000604082015260600190565b6020808252601d908201527f416464726573733a2063616c6c20746f206e6f6e2d636f6e7472616374000000604082015260600190565b6020808252602a908201527f5361666545524332303a204552433230206f7065726174696f6e20646964206e60408201527f6f74207375636365656400000000000000000000000000000000000000000000606082015260800190565b90815260200190565b9283526020830191909152604082015260600190565b63ffffffff91909116815260200190565b60008219821115611bf157611bf1611cbb565b500190565b600063ffffffff808316818516808303821115611c1557611c15611cbb565b01949350505050565b600082611c3957634e487b7160e01b81526012600452602481fd5b500490565b6000816000190483118215151615611c5857611c58611cbb565b500290565b600082821015611c6f57611c6f611cbb565b500390565b60005b83811015611c8f578181015183820152602001611c77565b8381111561155b5750506000910152565b6000600019821415611cb457611cb4611cbb565b5060010190565b634e487b7160e01b600052601160045260246000fd5b6001600160a01b03811681146107e657600080fd5b80151581146107e657600080fdfea26469706673582212203c31de98253ffb80d6a234a54c06319825d8163be8ef2e055442add31299caec64736f6c63430008000033",
  "linkReferences": {},
  "deployedLinkReferences": {}
}