{
  "_format": "hh-sol-artifact-1",
  "contractName": "SteakHouse",
  "sourceName": "contracts/SteakHouse.sol",
  "abi": [
    {
      "inputs": [
        {
          "internalType": "contract IERC20",
          "name": "_steak",
          "type": "address"
        },
        {
          "internalType": "uint256",
          "name": "_steakPerSecond",
          "type": "uint256"
        },
        {
          "internalType": "uint32",
          "name": "_startTime",
          "type": "uint32"
        }
      ],
      "stateMutability": "nonpayable",
      "type": "constructor"
    },
    {
      "anonymous": false,
      "inputs": [
        {
          "indexed": true,
          "internalType": "address",
          "name": "user",
          "type": "address"
        },
        {
          "indexed": true,
          "internalType": "uint256",
          "name": "pid",
          "type": "uint256"
        },
        {
          "indexed": false,
          "internalType": "uint256",
          "name": "amount",
          "type": "uint256"
        }
      ],
      "name": "Deposit",
      "type": "event"
    },
    {
      "anonymous": false,
      "inputs": [
        {
          "indexed": true,
          "internalType": "address",
          "name": "user",
          "type": "address"
        },
        {
          "indexed": true,
          "internalType": "uint256",
          "name": "pid",
          "type": "uint256"
        },
        {
          "indexed": false,
          "internalType": "uint256",
          "name": "amount",
          "type": "uint256"
        }
      ],
      "name": "EmergencyWithdraw",
      "type": "event"
    },
    {
      "anonymous": false,
      "inputs": [
        {
          "indexed": true,
          "internalType": "address",
          "name": "previousOwner",
          "type": "address"
        },
        {
          "indexed": true,
          "internalType": "address",
          "name": "newOwner",
          "type": "address"
        }
      ],
      "name": "OwnershipTransferred",
      "type": "event"
    },
    {
      "anonymous": false,
      "inputs": [
        {
          "indexed": true,
          "internalType": "address",
          "name": "user",
          "type": "address"
        },
        {
          "indexed": true,
          "internalType": "uint256",
          "name": "pid",
          "type": "uint256"
        },
        {
          "indexed": false,
          "internalType": "uint256",
          "name": "amount",
          "type": "uint256"
        }
      ],
      "name": "Withdraw",
      "type": "event"
    },
    {
      "inputs": [
        {
          "internalType": "uint16",
          "name": "_allocPoint",
          "type": "uint16"
        },
        {
          "internalType": "contract IERC20",
          "name": "_stakingToken",
          "type": "address"
        },
        {
          "internalType": "bool",
          "name": "_withUpdate",
          "type": "bool"
        }
      ],
      "name": "add",
      "outputs": [],
      "stateMutability": "nonpayable",
      "type": "function"
    },
    {
      "inputs": [
        {
          "internalType": "uint32",
          "name": "addSeconds",
          "type": "uint32"
        }
      ],
      "name": "changeEndTime",
      "outputs": [],
      "stateMutability": "nonpayable",
      "type": "function"
    },
    {
      "inputs": [
        {
          "internalType": "uint256",
          "name": "_pid",
          "type": "uint256"
        },
        {
          "internalType": "uint256",
          "name": "_amount",
          "type": "uint256"
        }
      ],
      "name": "deposit",
      "outputs": [],
      "stateMutability": "nonpayable",
      "type": "function"
    },
    {
      "inputs": [
        {
          "internalType": "uint256",
          "name": "_pid",
          "type": "uint256"
        }
      ],
      "name": "emergencyWithdraw",
      "outputs": [],
      "stateMutability": "nonpayable",
      "type": "function"
    },
    {
      "inputs": [],
      "name": "endTime",
      "outputs": [
        {
          "internalType": "uint32",
          "name": "",
          "type": "uint32"
        }
      ],
      "stateMutability": "view",
      "type": "function"
    },
    {
      "inputs": [
        {
          "internalType": "uint256",
          "name": "_from",
          "type": "uint256"
        },
        {
          "internalType": "uint256",
          "name": "_to",
          "type": "uint256"
        }
      ],
      "name": "getMultiplier",
      "outputs": [
        {
          "internalType": "uint256",
          "name": "",
          "type": "uint256"
        }
      ],
      "stateMutability": "view",
      "type": "function"
    },
    {
      "inputs": [],
      "name": "massUpdatePools",
      "outputs": [],
      "stateMutability": "nonpayable",
      "type": "function"
    },
    {
      "inputs": [],
      "name": "owner",
      "outputs": [
        {
          "internalType": "address",
          "name": "",
          "type": "address"
        }
      ],
      "stateMutability": "view",
      "type": "function"
    },
    {
      "inputs": [
        {
          "internalType": "uint256",
          "name": "_pid",
          "type": "uint256"
        },
        {
          "internalType": "address",
          "name": "_user",
          "type": "address"
        }
      ],
      "name": "pendingSteak",
      "outputs": [
        {
          "internalType": "uint256",
          "name": "",
          "type": "uint256"
        }
      ],
      "stateMutability": "view",
      "type": "function"
    },
    {
      "inputs": [
        {
          "internalType": "uint256",
          "name": "",
          "type": "uint256"
        }
      ],
      "name": "poolInfo",
      "outputs": [
        {
          "internalType": "contract IERC20",
          "name": "stakingToken",
          "type": "address"
        },
        {
          "internalType": "uint256",
          "name": "stakingTokenTotalAmount",
          "type": "uint256"
        },
        {
          "internalType": "uint256",
          "name": "accSteakPerShare",
          "type": "uint256"
        },
        {
          "internalType": "uint32",
          "name": "lastRewardTime",
          "type": "uint32"
        },
        {
          "internalType": "uint16",
          "name": "allocPoint",
          "type": "uint16"
        }
      ],
      "stateMutability": "view",
      "type": "function"
    },
    {
      "inputs": [],
      "name": "poolLength",
      "outputs": [
        {
          "internalType": "uint256",
          "name": "",
          "type": "uint256"
        }
      ],
      "stateMutability": "view",
      "type": "function"
    },
    {
      "inputs": [],
      "name": "renounceOwnership",
      "outputs": [],
      "stateMutability": "nonpayable",
      "type": "function"
    },
    {
      "inputs": [
        {
          "internalType": "uint256",
          "name": "_pid",
          "type": "uint256"
        },
        {
          "internalType": "uint16",
          "name": "_allocPoint",
          "type": "uint16"
        },
        {
          "internalType": "bool",
          "name": "_withUpdate",
          "type": "bool"
        }
      ],
      "name": "set",
      "outputs": [],
      "stateMutability": "nonpayable",
      "type": "function"
    },
    {
      "inputs": [
        {
          "internalType": "uint256",
          "name": "_steakPerSecond",
          "type": "uint256"
        },
        {
          "internalType": "bool",
          "name": "_withUpdate",
          "type": "bool"
        }
      ],
      "name": "setSteakPerSecond",
      "outputs": [],
      "stateMutability": "nonpayable",
      "type": "function"
    },
    {
      "inputs": [],
      "name": "startTime",
      "outputs": [
        {
          "internalType": "uint32",
          "name": "",
          "type": "uint32"
        }
      ],
      "stateMutability": "view",
      "type": "function"
    },
    {
      "inputs": [],
      "name": "steak",
      "outputs": [
        {
          "internalType": "contract IERC20",
          "name": "",
          "type": "address"
        }
      ],
      "stateMutability": "view",
      "type": "function"
    },
    {
      "inputs": [],
      "name": "steakPerSecond",
      "outputs": [
        {
          "internalType": "uint256",
          "name": "",
          "type": "uint256"
        }
      ],
      "stateMutability": "view",
      "type": "function"
    },
    {
      "inputs": [],
      "name": "totalAllocPoint",
      "outputs": [
        {
          "internalType": "uint256",
          "name": "",
          "type": "uint256"
        }
      ],
      "stateMutability": "view",
      "type": "function"
    },
    {
      "inputs": [
        {
          "internalType": "address",
          "name": "newOwner",
          "type": "address"
        }
      ],
      "name": "transferOwnership",
      "outputs": [],
      "stateMutability": "nonpayable",
      "type": "function"
    },
    {
      "inputs": [
        {
          "internalType": "uint256",
          "name": "_pid",
          "type": "uint256"
        }
      ],
      "name": "updatePool",
      "outputs": [],
      "stateMutability": "nonpayable",
      "type": "function"
    },
    {
      "inputs": [
        {
          "internalType": "uint256",
          "name": "",
          "type": "uint256"
        },
        {
          "internalType": "address",
          "name": "",
          "type": "address"
        }
      ],
      "name": "userInfo",
      "outputs": [
        {
          "internalType": "uint256",
          "name": "amount",
          "type": "uint256"
        },
        {
          "internalType": "uint256",
          "name": "rewardDebt",
          "type": "uint256"
        },
        {
          "internalType": "uint256",
          "name": "remainingSteakTokenReward",
          "type": "uint256"
        }
      ],
      "stateMutability": "view",
      "type": "function"
    },
    {
      "inputs": [
        {
          "internalType": "uint256",
          "name": "_pid",
          "type": "uint256"
        },
        {
          "internalType": "uint256",
          "name": "_amount",
          "type": "uint256"
        }
      ],
      "name": "withdraw",
      "outputs": [],
      "stateMutability": "nonpayable",
      "type": "function"
    }
  ],
  "bytecode": "0x60c060405260006004553480156200001657600080fd5b5060405162001a8738038062001a878339810160408190526200003991620000ef565b600062000045620000eb565b600080546001600160a01b0319166001600160a01b0383169081178255604051929350917f8be0079c531659141344cd1fd0a4f28419497f9722a3daafe3b4186f6b6457e0908290a3506001600160601b0319606084901b1660805260018290556001600160e01b031960e082901b1660a052620000c78162093a8062000147565b6005805463ffffffff191663ffffffff92909216919091179055506200017c915050565b3390565b60008060006060848603121562000104578283fd5b83516001600160a01b03811681146200011b578384fd5b60208501516040860151919450925063ffffffff811681146200013c578182fd5b809150509250925092565b600063ffffffff8083168185168083038211156200017357634e487b7160e01b84526011600452602484fd5b01949350505050565b60805160601c60a05160e01c6118a7620001e0600039600081816108da0152818161090f0152818161093c0152818161097e01528181610a620152610a8f01526000818161083701528181610fd10152818161109001526110d601526118a76000f3fe608060405234801561001057600080fd5b50600436106101425760003560e01c8063715018a6116100b857806398ec8da61161007c57806398ec8da614610266578063c64048f914610279578063cf42947b1461028c578063d1c1b4a81461029f578063e2bbb158146102b2578063f2fde38b146102c557610142565b8063715018a61461021957806378e97925146102215780638da5cb5b146102295780638dbb1e3a1461023157806393f1a40b1461024457610142565b80633197cbb61161010a5780633197cbb6146101ac578063441a3e70146101c157806351eb05a6146101d65780635312ea8e146101e9578063630b5ba1146101fc5780636f1903151461020457610142565b8063081e3eda146101475780631526fe271461016557806317caf6f1146101895780631e0c3abf146101915780631fb3b624146101a4575b600080fd5b61014f6102d8565b60405161015c919061172b565b60405180910390f35b6101786101733660046113c8565b6102de565b60405161015c959493929190611521565b61014f610336565b61014f61019f3660046113f8565b61033c565b61014f61048c565b6101b4610492565b60405161015c919061174a565b6101d46101cf36600461146f565b61049e565b005b6101d46101e43660046113c8565b61062a565b6101d46101f73660046113c8565b610748565b6101d461080a565b61020c610835565b60405161015c91906114d0565b6101d4610859565b6101b46108d8565b61020c6108fc565b61014f61023f36600461146f565b61090b565b6102576102523660046113f8565b6109ef565b60405161015c93929190611734565b6101d4610274366004611380565b610a1b565b6101d4610287366004611427565b610c09565b6101d461029a366004611490565b610c52565b6101d46102ad36600461144b565b610cc3565b6101d46102c036600461146f565b610dbf565b6101d46102d3366004611348565b610f16565b60025490565b600281815481106102ee57600080fd5b600091825260209091206004909102018054600182015460028301546003909301546001600160a01b039092169350919063ffffffff811690640100000000900461ffff1685565b60045481565b6000806002848154811061036057634e487b7160e01b600052603260045260246000fd5b60009182526020808320878452600380835260408086206001600160a01b038a168752909352919093206002600490930290930191820154908201549193509063ffffffff16421180156103b75750600183015415155b156104445760038301546000906103d49063ffffffff164261090b565b905060006004548560030160049054906101000a900461ffff1661ffff166001548461040091906117bb565b61040a91906117bb565b610414919061179b565b600186015490915061042b8264e8d4a510006117bb565b610435919061179b565b61043f908461175b565b925050505b60028201546001830154835464e8d4a51000906104629085906117bb565b61046c919061179b565b61047691906117da565b610480919061175b565b93505050505b92915050565b60015481565b60055463ffffffff1681565b6000600283815481106104c157634e487b7160e01b600052603260045260246000fd5b6000918252602080832086845260038252604080852033865290925292208054600490920290920192508311156105135760405162461bcd60e51b815260040161050a906115d2565b60405180910390fd5b61051c8461062a565b60008160020154826001015464e8d4a510008560020154856000015461054291906117bb565b61054c919061179b565b61055691906117da565b610560919061175b565b905061056c3382610fcc565b60028301558154849083906000906105859084906117da565b92505081905550838360010160008282546105a091906117da565b90915550506002830154825464e8d4a51000916105bc916117bb565b6105c6919061179b565b600183015582546105e1906001600160a01b03163386611107565b84336001600160a01b03167ff279e6a1f5e320cca91135676d9cb6e44ca8a08c0b88342bcdb1144f6511b5688660405161061b919061172b565b60405180910390a35050505050565b60006002828154811061064d57634e487b7160e01b600052603260045260246000fd5b60009182526020909120600490910201600381015490915063ffffffff1642116106775750610745565b600181015461069b57600301805463ffffffff19164263ffffffff16179055610745565b60038101546000906106b39063ffffffff164261090b565b905060006004548360030160049054906101000a900461ffff1661ffff16600154846106df91906117bb565b6106e991906117bb565b6106f3919061179b565b600184015490915061070a8264e8d4a510006117bb565b610714919061179b565b836002016000828254610727919061175b565b90915550505050600301805463ffffffff19164263ffffffff161790555b50565b60006002828154811061076b57634e487b7160e01b600052603260045260246000fd5b600091825260208083208584526003825260408085203380875293528420805485825560018201869055600282019590955560049093020180549094509192916107c2916001600160a01b03919091169083611107565b83336001600160a01b03167fbb757047c2b5f3974fe26b7c10f732e7bce710b0952a71082702781e62ae0595836040516107fc919061172b565b60405180910390a350505050565b60025460005b81811015610831576108218161062a565b61082a8161181d565b9050610810565b5050565b7f000000000000000000000000000000000000000000000000000000000000000081565b610861611162565b6000546001600160a01b0390811691161461088e5760405162461bcd60e51b815260040161050a90611675565b600080546040516001600160a01b03909116907f8be0079c531659141344cd1fd0a4f28419497f9722a3daafe3b4186f6b6457e0908390a3600080546001600160a01b0319169055565b7f000000000000000000000000000000000000000000000000000000000000000081565b6000546001600160a01b031690565b60007f000000000000000000000000000000000000000000000000000000000000000063ffffffff168311610966577f000000000000000000000000000000000000000000000000000000000000000063ffffffff16610968565b825b60055490935063ffffffff168311806109a657507f000000000000000000000000000000000000000000000000000000000000000063ffffffff1682105b156109b357506000610486565b60055463ffffffff168211156109de576005546109d790849063ffffffff166117da565b9050610486565b6109e883836117da565b9392505050565b600360209081526000928352604080842090915290825290208054600182015460029092015490919083565b610a23611162565b6000546001600160a01b03908116911614610a505760405162461bcd60e51b815260040161050a90611675565b8015610a5e57610a5e61080a565b60007f000000000000000000000000000000000000000000000000000000000000000063ffffffff164211610ab9577f000000000000000000000000000000000000000000000000000000000000000063ffffffff16610abb565b425b90508361ffff1660046000828254610ad3919061175b565b90915550506040805160a0810182526001600160a01b03948516815260006020820181815292820181815263ffffffff9485166060840190815261ffff9889166080850190815260028054600181018255945293517f405787fa12a823e0f2b7631cc41b3ba8828b3321ca811111fa75cd3aa3bb5ace600490940293840180546001600160a01b031916919099161790975592517f405787fa12a823e0f2b7631cc41b3ba8828b3321ca811111fa75cd3aa3bb5acf82015591517f405787fa12a823e0f2b7631cc41b3ba8828b3321ca811111fa75cd3aa3bb5ad083015593517f405787fa12a823e0f2b7631cc41b3ba8828b3321ca811111fa75cd3aa3bb5ad19091018054945163ffffffff19909516919092161765ffff000000001916640100000000939094169290920292909217905550565b610c11611162565b6000546001600160a01b03908116911614610c3e5760405162461bcd60e51b815260040161050a90611675565b8015610c4c57610c4c61080a565b50600155565b610c5a611162565b6000546001600160a01b03908116911614610c875760405162461bcd60e51b815260040161050a90611675565b60058054829190600090610ca290849063ffffffff16611773565b92506101000a81548163ffffffff021916908363ffffffff16021790555050565b610ccb611162565b6000546001600160a01b03908116911614610cf85760405162461bcd60e51b815260040161050a90611675565b8015610d0657610d0661080a565b8161ffff1660028481548110610d2c57634e487b7160e01b600052603260045260246000fd5b906000526020600020906004020160030160049054906101000a900461ffff1661ffff16600454610d5d91906117da565b610d67919061175b565b6004819055508160028481548110610d8f57634e487b7160e01b600052603260045260246000fd5b906000526020600020906004020160030160046101000a81548161ffff021916908361ffff160217905550505050565b600060028381548110610de257634e487b7160e01b600052603260045260246000fd5b60009182526020808320868452600382526040808520338652909252922060049091029091019150610e138461062a565b805415610e715760008160020154826001015464e8d4a5100085600201548560000154610e4091906117bb565b610e4a919061179b565b610e5491906117da565b610e5e919061175b565b9050610e6a3382610fcc565b6002830155505b8154610e88906001600160a01b0316333086611166565b82816000016000828254610e9c919061175b565b9250508190555082826001016000828254610eb7919061175b565b90915550506002820154815464e8d4a5100091610ed3916117bb565b610edd919061179b565b6001820155604051849033907f90890809c654f11d6e72a28fa60149770a0d11ec6c92319d6ceb2bb0a4ea1a15906107fc90879061172b565b610f1e611162565b6000546001600160a01b03908116911614610f4b5760405162461bcd60e51b815260040161050a90611675565b6001600160a01b038116610f715760405162461bcd60e51b815260040161050a9061158c565b600080546040516001600160a01b03808516939216917f8be0079c531659141344cd1fd0a4f28419497f9722a3daafe3b4186f6b6457e091a3600080546001600160a01b0319166001600160a01b0392909216919091179055565b6000807f00000000000000000000000000000000000000000000000000000000000000006001600160a01b03166370a08231306040518263ffffffff1660e01b815260040161101b91906114d0565b60206040518083038186803b15801561103357600080fd5b505afa158015611047573d6000803e3d6000fd5b505050506040513d601f19601f8201168201806040525081019061106b91906113e0565b90508061107b5782915050610486565b808311156110c9576110b76001600160a01b037f0000000000000000000000000000000000000000000000000000000000000000168583611107565b6110c181846117da565b915050610486565b6110fd6001600160a01b037f0000000000000000000000000000000000000000000000000000000000000000168585611107565b5060009392505050565b61115d8363a9059cbb60e01b8484604051602401611126929190611508565b60408051601f198184030181529190526020810180516001600160e01b03166001600160e01b03199093169290921790915261118d565b505050565b3390565b611187846323b872dd60e01b858585604051602401611126939291906114e4565b50505050565b60006111e2826040518060400160405280602081526020017f5361666545524332303a206c6f772d6c6576656c2063616c6c206661696c6564815250856001600160a01b031661121c9092919063ffffffff16565b80519091501561115d57808060200190518101906112009190611364565b61115d5760405162461bcd60e51b815260040161050a906116e1565b606061122b8484600085611233565b949350505050565b6060824710156112555760405162461bcd60e51b815260040161050a9061162f565b61125e856112f3565b61127a5760405162461bcd60e51b815260040161050a906116aa565b600080866001600160a01b0316858760405161129691906114b4565b60006040518083038185875af1925050503d80600081146112d3576040519150601f19603f3d011682016040523d82523d6000602084013e6112d8565b606091505b50915091506112e88282866112fd565b979650505050505050565b803b15155b919050565b6060831561130c5750816109e8565b82511561131c5782518084602001fd5b8160405162461bcd60e51b815260040161050a9190611559565b803561ffff811681146112f857600080fd5b600060208284031215611359578081fd5b81356109e88161184e565b600060208284031215611375578081fd5b81516109e881611863565b600080600060608486031215611394578182fd5b61139d84611336565b925060208401356113ad8161184e565b915060408401356113bd81611863565b809150509250925092565b6000602082840312156113d9578081fd5b5035919050565b6000602082840312156113f1578081fd5b5051919050565b6000806040838503121561140a578182fd5b82359150602083013561141c8161184e565b809150509250929050565b60008060408385031215611439578182fd5b82359150602083013561141c81611863565b60008060006060848603121561145f578283fd5b833592506113ad60208501611336565b60008060408385031215611481578182fd5b50508035926020909101359150565b6000602082840312156114a1578081fd5b813563ffffffff811681146109e8578182fd5b600082516114c68184602087016117f1565b9190910192915050565b6001600160a01b0391909116815260200190565b6001600160a01b039384168152919092166020820152604081019190915260600190565b6001600160a01b03929092168252602082015260400190565b6001600160a01b039590951685526020850193909352604084019190915263ffffffff16606083015261ffff16608082015260a00190565b60006020825282518060208401526115788160408501602087016117f1565b601f01601f19169190910160400192915050565b60208082526026908201527f4f776e61626c653a206e6577206f776e657220697320746865207a65726f206160408201526564647265737360d01b606082015260800190565b6020808252603f908201527f537465616b486f7573653a20616d6f756e7420746f207769746864726177206960408201527f732067726561746572207468616e20616d6f756e7420617661696c61626c6500606082015260800190565b60208082526026908201527f416464726573733a20696e73756666696369656e742062616c616e636520666f6040820152651c8818d85b1b60d21b606082015260800190565b6020808252818101527f4f776e61626c653a2063616c6c6572206973206e6f7420746865206f776e6572604082015260600190565b6020808252601d908201527f416464726573733a2063616c6c20746f206e6f6e2d636f6e7472616374000000604082015260600190565b6020808252602a908201527f5361666545524332303a204552433230206f7065726174696f6e20646964206e6040820152691bdd081cdd58d8d9595960b21b606082015260800190565b90815260200190565b9283526020830191909152604082015260600190565b63ffffffff91909116815260200190565b6000821982111561176e5761176e611838565b500190565b600063ffffffff80831681851680830382111561179257611792611838565b01949350505050565b6000826117b657634e487b7160e01b81526012600452602481fd5b500490565b60008160001904831182151516156117d5576117d5611838565b500290565b6000828210156117ec576117ec611838565b500390565b60005b8381101561180c5781810151838201526020016117f4565b838111156111875750506000910152565b600060001982141561183157611831611838565b5060010190565b634e487b7160e01b600052601160045260246000fd5b6001600160a01b038116811461074557600080fd5b801515811461074557600080fdfea2646970667358221220338ffe554b2e5a88dd3cdce3440e4d15487bc523a7e995daaddb38730c5611e864736f6c63430008000033",
  "linkReferences": {},
  "deployedLinkReferences": {}
}