{
  "_format": "hh-sol-artifact-1",
  "contractName": "SteakHouse",
  "sourceName": "contracts/SteakHouse.sol",
  "abi": [
    {
      "inputs": [
        {
          "internalType": "contract IERC20",
          "name": "_steak",
          "type": "address"
        },
        {
          "internalType": "contract IERC20",
          "name": "_ifusd",
          "type": "address"
        },
        {
          "internalType": "uint256",
          "name": "_steakPerSecond",
          "type": "uint256"
        },
        {
          "internalType": "uint32",
          "name": "_startTime",
          "type": "uint32"
        }
      ],
      "stateMutability": "nonpayable",
      "type": "constructor"
    },
    {
      "anonymous": false,
      "inputs": [
        {
          "indexed": true,
          "internalType": "address",
          "name": "user",
          "type": "address"
        },
        {
          "indexed": true,
          "internalType": "uint256",
          "name": "pid",
          "type": "uint256"
        },
        {
          "indexed": false,
          "internalType": "uint256",
          "name": "amount",
          "type": "uint256"
        }
      ],
      "name": "Deposit",
      "type": "event"
    },
    {
      "anonymous": false,
      "inputs": [
        {
          "indexed": true,
          "internalType": "address",
          "name": "user",
          "type": "address"
        },
        {
          "indexed": true,
          "internalType": "uint256",
          "name": "pid",
          "type": "uint256"
        },
        {
          "indexed": false,
          "internalType": "uint256",
          "name": "amount",
          "type": "uint256"
        }
      ],
      "name": "EmergencyWithdraw",
      "type": "event"
    },
    {
      "anonymous": false,
      "inputs": [
        {
          "indexed": true,
          "internalType": "address",
          "name": "user",
          "type": "address"
        },
        {
          "indexed": true,
          "internalType": "uint256",
          "name": "pid",
          "type": "uint256"
        },
        {
          "indexed": false,
          "internalType": "uint256",
          "name": "amount",
          "type": "uint256"
        }
      ],
      "name": "FeeCollected",
      "type": "event"
    },
    {
      "anonymous": false,
      "inputs": [
        {
          "indexed": true,
          "internalType": "address",
          "name": "previousOwner",
          "type": "address"
        },
        {
          "indexed": true,
          "internalType": "address",
          "name": "newOwner",
          "type": "address"
        }
      ],
      "name": "OwnershipTransferred",
      "type": "event"
    },
    {
      "anonymous": false,
      "inputs": [
        {
          "indexed": true,
          "internalType": "address",
          "name": "user",
          "type": "address"
        },
        {
          "indexed": true,
          "internalType": "uint256",
          "name": "pid",
          "type": "uint256"
        },
        {
          "indexed": false,
          "internalType": "uint256",
          "name": "amount",
          "type": "uint256"
        }
      ],
      "name": "Withdraw",
      "type": "event"
    },
    {
      "inputs": [
        {
          "internalType": "uint16",
          "name": "_allocPoint",
          "type": "uint16"
        },
        {
          "internalType": "contract IERC20",
          "name": "_stakingToken",
          "type": "address"
        },
        {
          "internalType": "bool",
          "name": "_withUpdate",
          "type": "bool"
        }
      ],
      "name": "add",
      "outputs": [],
      "stateMutability": "nonpayable",
      "type": "function"
    },
    {
      "inputs": [
        {
          "internalType": "uint32",
          "name": "addSeconds",
          "type": "uint32"
        }
      ],
      "name": "changeEndTime",
      "outputs": [],
      "stateMutability": "nonpayable",
      "type": "function"
    },
    {
      "inputs": [
        {
          "internalType": "uint256",
          "name": "_amount",
          "type": "uint256"
        }
      ],
      "name": "collect",
      "outputs": [],
      "stateMutability": "nonpayable",
      "type": "function"
    },
    {
      "inputs": [
        {
          "internalType": "uint256",
          "name": "_pid",
          "type": "uint256"
        },
        {
          "internalType": "uint256",
          "name": "_amount",
          "type": "uint256"
        }
      ],
      "name": "deposit",
      "outputs": [],
      "stateMutability": "nonpayable",
      "type": "function"
    },
    {
      "inputs": [
        {
          "internalType": "uint256",
          "name": "_pid",
          "type": "uint256"
        }
      ],
      "name": "emergencyWithdraw",
      "outputs": [],
      "stateMutability": "nonpayable",
      "type": "function"
    },
    {
      "inputs": [],
      "name": "endTime",
      "outputs": [
        {
          "internalType": "uint32",
          "name": "",
          "type": "uint32"
        }
      ],
      "stateMutability": "view",
      "type": "function"
    },
    {
      "inputs": [
        {
          "internalType": "uint256",
          "name": "_from",
          "type": "uint256"
        },
        {
          "internalType": "uint256",
          "name": "_to",
          "type": "uint256"
        }
      ],
      "name": "getMultiplier",
      "outputs": [
        {
          "internalType": "uint256",
          "name": "",
          "type": "uint256"
        }
      ],
      "stateMutability": "view",
      "type": "function"
    },
    {
      "inputs": [],
      "name": "harvestFee",
      "outputs": [
        {
          "internalType": "uint256",
          "name": "",
          "type": "uint256"
        }
      ],
      "stateMutability": "view",
      "type": "function"
    },
    {
      "inputs": [],
      "name": "ifusd",
      "outputs": [
        {
          "internalType": "contract IERC20",
          "name": "",
          "type": "address"
        }
      ],
      "stateMutability": "view",
      "type": "function"
    },
    {
      "inputs": [],
      "name": "massUpdatePools",
      "outputs": [],
      "stateMutability": "nonpayable",
      "type": "function"
    },
    {
      "inputs": [],
      "name": "owner",
      "outputs": [
        {
          "internalType": "address",
          "name": "",
          "type": "address"
        }
      ],
      "stateMutability": "view",
      "type": "function"
    },
    {
      "inputs": [
        {
          "internalType": "uint256",
          "name": "_pid",
          "type": "uint256"
        },
        {
          "internalType": "address",
          "name": "_user",
          "type": "address"
        }
      ],
      "name": "pendingSteak",
      "outputs": [
        {
          "internalType": "uint256",
          "name": "",
          "type": "uint256"
        }
      ],
      "stateMutability": "view",
      "type": "function"
    },
    {
      "inputs": [
        {
          "internalType": "uint256",
          "name": "",
          "type": "uint256"
        }
      ],
      "name": "poolInfo",
      "outputs": [
        {
          "internalType": "contract IERC20",
          "name": "stakingToken",
          "type": "address"
        },
        {
          "internalType": "uint256",
          "name": "stakingTokenTotalAmount",
          "type": "uint256"
        },
        {
          "internalType": "uint256",
          "name": "accSteakPerShare",
          "type": "uint256"
        },
        {
          "internalType": "uint32",
          "name": "lastRewardTime",
          "type": "uint32"
        },
        {
          "internalType": "uint16",
          "name": "allocPoint",
          "type": "uint16"
        }
      ],
      "stateMutability": "view",
      "type": "function"
    },
    {
      "inputs": [],
      "name": "poolLength",
      "outputs": [
        {
          "internalType": "uint256",
          "name": "",
          "type": "uint256"
        }
      ],
      "stateMutability": "view",
      "type": "function"
    },
    {
      "inputs": [],
      "name": "renounceOwnership",
      "outputs": [],
      "stateMutability": "nonpayable",
      "type": "function"
    },
    {
      "inputs": [
        {
          "internalType": "uint256",
          "name": "_pid",
          "type": "uint256"
        },
        {
          "internalType": "uint16",
          "name": "_allocPoint",
          "type": "uint16"
        },
        {
          "internalType": "bool",
          "name": "_withUpdate",
          "type": "bool"
        }
      ],
      "name": "set",
      "outputs": [],
      "stateMutability": "nonpayable",
      "type": "function"
    },
    {
      "inputs": [
        {
          "internalType": "uint256",
          "name": "_harvestFee",
          "type": "uint256"
        }
      ],
      "name": "setHarvestFee",
      "outputs": [],
      "stateMutability": "nonpayable",
      "type": "function"
    },
    {
      "inputs": [
        {
          "internalType": "uint256",
          "name": "_steakPerSecond",
          "type": "uint256"
        },
        {
          "internalType": "bool",
          "name": "_withUpdate",
          "type": "bool"
        }
      ],
      "name": "setSteakPerSecond",
      "outputs": [],
      "stateMutability": "nonpayable",
      "type": "function"
    },
    {
      "inputs": [
        {
          "internalType": "uint256",
          "name": "_withdrawFee",
          "type": "uint256"
        }
      ],
      "name": "setWithdrawFee",
      "outputs": [],
      "stateMutability": "nonpayable",
      "type": "function"
    },
    {
      "inputs": [],
      "name": "startTime",
      "outputs": [
        {
          "internalType": "uint32",
          "name": "",
          "type": "uint32"
        }
      ],
      "stateMutability": "view",
      "type": "function"
    },
    {
      "inputs": [],
      "name": "steak",
      "outputs": [
        {
          "internalType": "contract IERC20",
          "name": "",
          "type": "address"
        }
      ],
      "stateMutability": "view",
      "type": "function"
    },
    {
      "inputs": [],
      "name": "steakPerSecond",
      "outputs": [
        {
          "internalType": "uint256",
          "name": "",
          "type": "uint256"
        }
      ],
      "stateMutability": "view",
      "type": "function"
    },
    {
      "inputs": [],
      "name": "totalAllocPoint",
      "outputs": [
        {
          "internalType": "uint256",
          "name": "",
          "type": "uint256"
        }
      ],
      "stateMutability": "view",
      "type": "function"
    },
    {
      "inputs": [
        {
          "internalType": "address",
          "name": "newOwner",
          "type": "address"
        }
      ],
      "name": "transferOwnership",
      "outputs": [],
      "stateMutability": "nonpayable",
      "type": "function"
    },
    {
      "inputs": [
        {
          "internalType": "uint256",
          "name": "_pid",
          "type": "uint256"
        }
      ],
      "name": "updatePool",
      "outputs": [],
      "stateMutability": "nonpayable",
      "type": "function"
    },
    {
      "inputs": [
        {
          "internalType": "uint256",
          "name": "",
          "type": "uint256"
        },
        {
          "internalType": "address",
          "name": "",
          "type": "address"
        }
      ],
      "name": "userInfo",
      "outputs": [
        {
          "internalType": "uint256",
          "name": "amount",
          "type": "uint256"
        },
        {
          "internalType": "uint256",
          "name": "rewardDebt",
          "type": "uint256"
        },
        {
          "internalType": "uint256",
          "name": "remainingSteakTokenReward",
          "type": "uint256"
        }
      ],
      "stateMutability": "view",
      "type": "function"
    },
    {
      "inputs": [
        {
          "internalType": "uint256",
          "name": "_pid",
          "type": "uint256"
        },
        {
          "internalType": "uint256",
          "name": "_amount",
          "type": "uint256"
        }
      ],
      "name": "withdraw",
      "outputs": [],
      "stateMutability": "nonpayable",
      "type": "function"
    },
    {
      "inputs": [],
      "name": "withdrawFee",
      "outputs": [
        {
          "internalType": "uint256",
          "name": "",
          "type": "uint256"
        }
      ],
      "stateMutability": "view",
      "type": "function"
    }
  ],
  "bytecode": "0x60e060405261138860025562030d4060035560006006553480156200002357600080fd5b506040516200205638038062002056833981016040819052620000469162000122565b60006200005262000101565b600080546001600160a01b0319166001600160a01b0383169081178255604051929350917f8be0079c531659141344cd1fd0a4f28419497f9722a3daafe3b4186f6b6457e0908290a3506001600160601b0319606085811b821660805284901b1660a05260018290556001600160e01b031960e082901b1660c052620000dc8162093a806200017e565b6007805463ffffffff191663ffffffff9290921691909117905550620001b392505050565b3390565b80516001600160a01b03811681146200011d57600080fd5b919050565b6000806000806080858703121562000138578384fd5b620001438562000105565b9350620001536020860162000105565b925060408501519150606085015163ffffffff8116811462000173578182fd5b939692955090935050565b600063ffffffff808316818516808303821115620001aa57634e487b7160e01b84526011600452602484fd5b01949350505050565b60805160601c60a05160601c60c05160e01c611e1d62000239600039600081816109dc01528181610a5a01528181610a8701528181610ac901528181610bad0152610bda0152600081816109b801526111be01526000818161090801528181610eb901528181610f75015281816113fe0152818161150401526115430152611e1d6000f3fe608060405234801561001057600080fd5b50600436106101c45760003560e01c8063792b55b6116100f9578063c64048f911610097578063d1c1b4a811610071578063d1c1b4a81461036a578063e2bbb1581461037d578063e941fa7814610390578063f2fde38b14610398576101c4565b8063c64048f914610331578063ce3f865f14610344578063cf42947b14610357576101c4565b806393f1a40b116100d357806393f1a40b146102e157806398ec8da614610303578063b596291714610316578063b6ac642a1461031e576101c4565b8063792b55b6146102b35780638da5cb5b146102c65780638dbb1e3a146102ce576101c4565b806351eb05a6116101665780636f190315116101405780636f19031514610286578063715018a61461029b57806376b8fcfc146102a357806378e97925146102ab576101c4565b806351eb05a6146102585780635312ea8e1461026b578063630b5ba11461027e576101c4565b80631e0c3abf116101a25780631e0c3abf146102135780631fb3b624146102265780633197cbb61461022e578063441a3e7014610243576101c4565b8063081e3eda146101c95780631526fe27146101e757806317caf6f11461020b575b600080fd5b6101d16103ab565b6040516101de9190611ca1565b60405180910390f35b6101fa6101f536600461188f565b6103b1565b6040516101de9594939291906119e8565b6101d1610409565b6101d16102213660046118bf565b61040f565b6101d161055d565b610236610563565b6040516101de9190611cc0565b610256610251366004611936565b61056f565b005b61025661026636600461188f565b6106fb565b61025661027936600461188f565b610819565b6102566108db565b61028e610906565b6040516101de9190611997565b61025661092a565b61028e6109b6565b6102366109da565b6102566102c136600461188f565b6109fe565b61028e610a47565b6101d16102dc366004611936565b610a56565b6102f46102ef3660046118bf565b610b3a565b6040516101de93929190611caa565b610256610311366004611847565b610b66565b6101d1610d7e565b61025661032c36600461188f565b610d84565b61025661033f3660046118ee565b610dcd565b61025661035236600461188f565b610e16565b610256610365366004611957565b610f9c565b610256610378366004611912565b61100d565b61025661038b366004611936565b611105565b6101d1611330565b6102566103a636600461180f565b611336565b60045490565b600481815481106103c157600080fd5b600091825260209091206004909102018054600182015460028301546003909301546001600160a01b039092169350919063ffffffff811690640100000000900461ffff1685565b60065481565b6000806004848154811061043357634e487b7160e01b600052603260045260246000fd5b600091825260208083208784526005825260408085206001600160a01b03891686529092529220600260049092029092019081015460038201549193509063ffffffff16421180156104885750600183015415155b156105155760038301546000906104a59063ffffffff1642610a56565b905060006006548560030160049054906101000a900461ffff1661ffff16600154846104d19190611d31565b6104db9190611d31565b6104e59190611d11565b60018601549091506104fc8264e8d4a51000611d31565b6105069190611d11565b6105109084611cd1565b925050505b60028201546001830154835464e8d4a5100090610533908590611d31565b61053d9190611d11565b6105479190611d50565b6105519190611cd1565b93505050505b92915050565b60015481565b60075463ffffffff1681565b60006004838154811061059257634e487b7160e01b600052603260045260246000fd5b6000918252602080832086845260058252604080852033865290925292208054600490920290920192508311156105e45760405162461bcd60e51b81526004016105db90611ae7565b60405180910390fd5b6105ed846106fb565b60008160020154826001015464e8d4a51000856002015485600001546106139190611d31565b61061d9190611d11565b6106279190611d50565b6106319190611cd1565b905061063d33826113f9565b6002830155815484908390600090610656908490611d50565b92505081905550838360010160008282546106719190611d50565b90915550506002830154825464e8d4a510009161068d91611d31565b6106979190611d11565b600183015582546106b2906001600160a01b031633866115a1565b84336001600160a01b03167ff279e6a1f5e320cca91135676d9cb6e44ca8a08c0b88342bcdb1144f6511b568866040516106ec9190611ca1565b60405180910390a35050505050565b60006004828154811061071e57634e487b7160e01b600052603260045260246000fd5b60009182526020909120600490910201600381015490915063ffffffff1642116107485750610816565b600181015461076c57600301805463ffffffff19164263ffffffff16179055610816565b60038101546000906107849063ffffffff1642610a56565b905060006006548360030160049054906101000a900461ffff1661ffff16600154846107b09190611d31565b6107ba9190611d31565b6107c49190611d11565b60018401549091506107db8264e8d4a51000611d31565b6107e59190611d11565b8360020160008282546107f89190611cd1565b90915550505050600301805463ffffffff19164263ffffffff161790555b50565b60006004828154811061083c57634e487b7160e01b600052603260045260246000fd5b60009182526020808320858452600582526040808520338087529352842080548582556001820186905560028201959095556004909302018054909450919291610893916001600160a01b039190911690836115a1565b83336001600160a01b03167fbb757047c2b5f3974fe26b7c10f732e7bce710b0952a71082702781e62ae0595836040516108cd9190611ca1565b60405180910390a350505050565b60045460005b81811015610902576108f2816106fb565b6108fb81611d93565b90506108e1565b5050565b7f000000000000000000000000000000000000000000000000000000000000000081565b610932611629565b6000546001600160a01b0390811691161461095f5760405162461bcd60e51b81526004016105db90611ba1565b600080546040516001600160a01b03909116907f8be0079c531659141344cd1fd0a4f28419497f9722a3daafe3b4186f6b6457e0908390a36000805473ffffffffffffffffffffffffffffffffffffffff19169055565b7f000000000000000000000000000000000000000000000000000000000000000081565b7f000000000000000000000000000000000000000000000000000000000000000081565b610a06611629565b6000546001600160a01b03908116911614610a335760405162461bcd60e51b81526004016105db90611ba1565b61c350811115610a4257600080fd5b600355565b6000546001600160a01b031690565b60007f000000000000000000000000000000000000000000000000000000000000000063ffffffff168311610ab1577f000000000000000000000000000000000000000000000000000000000000000063ffffffff16610ab3565b825b60075490935063ffffffff16831180610af157507f000000000000000000000000000000000000000000000000000000000000000063ffffffff1682105b15610afe57506000610557565b60075463ffffffff16821115610b2957600754610b2290849063ffffffff16611d50565b9050610557565b610b338383611d50565b9392505050565b600560209081526000928352604080842090915290825290208054600182015460029092015490919083565b610b6e611629565b6000546001600160a01b03908116911614610b9b5760405162461bcd60e51b81526004016105db90611ba1565b8015610ba957610ba96108db565b60007f000000000000000000000000000000000000000000000000000000000000000063ffffffff164211610c04577f000000000000000000000000000000000000000000000000000000000000000063ffffffff16610c06565b425b90508361ffff1660066000828254610c1e9190611cd1565b90915550506040805160a0810182526001600160a01b03948516815260006020820181815292820181815263ffffffff9485166060840190815261ffff98891660808501908152600480546001810182559481905294517f8a35acfbc15ff81a39ae7d344fd709f28e8600b4aa8c65c6b64bfe7fe36bd19b94909502938401805473ffffffffffffffffffffffffffffffffffffffff1916959099169490941790975592517f8a35acfbc15ff81a39ae7d344fd709f28e8600b4aa8c65c6b64bfe7fe36bd19c82015591517f8a35acfbc15ff81a39ae7d344fd709f28e8600b4aa8c65c6b64bfe7fe36bd19d83015593517f8a35acfbc15ff81a39ae7d344fd709f28e8600b4aa8c65c6b64bfe7fe36bd19e9091018054945163ffffffff1990951691909216177fffffffffffffffffffffffffffffffffffffffffffffffffffff0000ffffffff16640100000000939094169290920292909217905550565b60035481565b610d8c611629565b6000546001600160a01b03908116911614610db95760405162461bcd60e51b81526004016105db90611ba1565b61c350811115610dc857600080fd5b600255565b610dd5611629565b6000546001600160a01b03908116911614610e025760405162461bcd60e51b81526004016105db90611ba1565b8015610e1057610e106108db565b50600155565b610e1e611629565b6000546001600160a01b03908116911614610e4b5760405162461bcd60e51b81526004016105db90611ba1565b600754610e619063ffffffff1662093a80611ce9565b63ffffffff16421015610e865760405162461bcd60e51b81526004016105db90611ab0565b6040517f70a082310000000000000000000000000000000000000000000000000000000081526000906001600160a01b037f000000000000000000000000000000000000000000000000000000000000000016906370a0823190610eee903090600401611997565b60206040518083038186803b158015610f0657600080fd5b505afa158015610f1a573d6000803e3d6000fd5b505050506040513d601f19601f82011682018060405250810190610f3e91906118a7565b905080821115610f605760405162461bcd60e51b81526004016105db90611bd6565b610902610f6b610a47565b6001600160a01b037f00000000000000000000000000000000000000000000000000000000000000001690846115a1565b610fa4611629565b6000546001600160a01b03908116911614610fd15760405162461bcd60e51b81526004016105db90611ba1565b60078054829190600090610fec90849063ffffffff16611ce9565b92506101000a81548163ffffffff021916908363ffffffff16021790555050565b611015611629565b6000546001600160a01b039081169116146110425760405162461bcd60e51b81526004016105db90611ba1565b8015611050576110506108db565b8161ffff166004848154811061107657634e487b7160e01b600052603260045260246000fd5b60009182526020909120600490910201600301546006546110a391640100000000900461ffff1690611d50565b6110ad9190611cd1565b60068190555081600484815481106110d557634e487b7160e01b600052603260045260246000fd5b906000526020600020906004020160030160046101000a81548161ffff021916908361ffff160217905550505050565b60006004838154811061112857634e487b7160e01b600052603260045260246000fd5b60009182526020808320868452600582526040808520338652909252922060049091029091019150611159846106fb565b8054156111b75760008160020154826001015464e8d4a51000856002015485600001546111869190611d31565b6111909190611d11565b61119a9190611d50565b6111a49190611cd1565b90506111b033826113f9565b6002830155505b81546000907f00000000000000000000000000000000000000000000000000000000000000006001600160a01b0390811691161461120e57620f4240600254856112019190611d31565b61120b9190611d11565b90505b8254611225906001600160a01b031633308761162d565b611242611230610a47565b84546001600160a01b031690836115a1565b600061124e8286611d50565b9050808360000160008282546112649190611cd1565b925050819055508084600101600082825461127f9190611cd1565b90915550506002840154835464e8d4a510009161129b91611d31565b6112a59190611d11565b6001840155604051869033907f90890809c654f11d6e72a28fa60149770a0d11ec6c92319d6ceb2bb0a4ea1a15906112de908590611ca1565b60405180910390a385336001600160a01b03167f108516ddcf5ba43cea6bb2cd5ff6d59ac196c1c86ccb9178332b9dd72d1ca561846040516113209190611ca1565b60405180910390a3505050505050565b60025481565b61133e611629565b6000546001600160a01b0390811691161461136b5760405162461bcd60e51b81526004016105db90611ba1565b6001600160a01b0381166113915760405162461bcd60e51b81526004016105db90611a53565b600080546040516001600160a01b03808516939216917f8be0079c531659141344cd1fd0a4f28419497f9722a3daafe3b4186f6b6457e091a36000805473ffffffffffffffffffffffffffffffffffffffff19166001600160a01b0392909216919091179055565b6000807f00000000000000000000000000000000000000000000000000000000000000006001600160a01b03166370a08231306040518263ffffffff1660e01b81526004016114489190611997565b60206040518083038186803b15801561146057600080fd5b505afa158015611474573d6000803e3d6000fd5b505050506040513d601f19601f8201168201806040525081019061149891906118a7565b90506000620f4240600354856114ae9190611d31565b6114b89190611d11565b9050816114c9578392505050610557565b8184111561157d57620f4240600354836114e39190611d31565b6114ed9190611d11565b905061152b6114fa610a47565b6001600160a01b037f00000000000000000000000000000000000000000000000000000000000000001690836115a1565b61156a856115398385611d50565b6001600160a01b037f00000000000000000000000000000000000000000000000000000000000000001691906115a1565b6115748285611d50565b92505050610557565b6115886114fa610a47565b611596856115398387611d50565b506000949350505050565b6116248363a9059cbb60e01b84846040516024016115c09291906119cf565b60408051601f198184030181529190526020810180517bffffffffffffffffffffffffffffffffffffffffffffffffffffffff167fffffffff0000000000000000000000000000000000000000000000000000000090931692909217909152611654565b505050565b3390565b61164e846323b872dd60e01b8585856040516024016115c0939291906119ab565b50505050565b60006116a9826040518060400160405280602081526020017f5361666545524332303a206c6f772d6c6576656c2063616c6c206661696c6564815250856001600160a01b03166116e39092919063ffffffff16565b80519091501561162457808060200190518101906116c7919061182b565b6116245760405162461bcd60e51b81526004016105db90611c44565b60606116f284846000856116fa565b949350505050565b60608247101561171c5760405162461bcd60e51b81526004016105db90611b44565b611725856117ba565b6117415760405162461bcd60e51b81526004016105db90611c0d565b600080866001600160a01b0316858760405161175d919061197b565b60006040518083038185875af1925050503d806000811461179a576040519150601f19603f3d011682016040523d82523d6000602084013e61179f565b606091505b50915091506117af8282866117c4565b979650505050505050565b803b15155b919050565b606083156117d3575081610b33565b8251156117e35782518084602001fd5b8160405162461bcd60e51b81526004016105db9190611a20565b803561ffff811681146117bf57600080fd5b600060208284031215611820578081fd5b8135610b3381611dc4565b60006020828403121561183c578081fd5b8151610b3381611dd9565b60008060006060848603121561185b578182fd5b611864846117fd565b9250602084013561187481611dc4565b9150604084013561188481611dd9565b809150509250925092565b6000602082840312156118a0578081fd5b5035919050565b6000602082840312156118b8578081fd5b5051919050565b600080604083850312156118d1578182fd5b8235915060208301356118e381611dc4565b809150509250929050565b60008060408385031215611900578182fd5b8235915060208301356118e381611dd9565b600080600060608486031215611926578283fd5b83359250611874602085016117fd565b60008060408385031215611948578182fd5b50508035926020909101359150565b600060208284031215611968578081fd5b813563ffffffff81168114610b33578182fd5b6000825161198d818460208701611d67565b9190910192915050565b6001600160a01b0391909116815260200190565b6001600160a01b039384168152919092166020820152604081019190915260600190565b6001600160a01b03929092168252602082015260400190565b6001600160a01b039590951685526020850193909352604084019190915263ffffffff16606083015261ffff16608082015260a00190565b6000602082528251806020840152611a3f816040850160208701611d67565b601f01601f19169190910160400192915050565b60208082526026908201527f4f776e61626c653a206e6577206f776e657220697320746865207a65726f206160408201527f6464726573730000000000000000000000000000000000000000000000000000606082015260800190565b60208082526014908201527f746f6f206561726c7920746f20636f6c6c656374000000000000000000000000604082015260600190565b6020808252603f908201527f537465616b486f7573653a20616d6f756e7420746f207769746864726177206960408201527f732067726561746572207468616e20616d6f756e7420617661696c61626c6500606082015260800190565b60208082526026908201527f416464726573733a20696e73756666696369656e742062616c616e636520666f60408201527f722063616c6c0000000000000000000000000000000000000000000000000000606082015260800190565b6020808252818101527f4f776e61626c653a2063616c6c6572206973206e6f7420746865206f776e6572604082015260600190565b60208082526014908201527f7769746864726177696e6720746f6f206d756368000000000000000000000000604082015260600190565b6020808252601d908201527f416464726573733a2063616c6c20746f206e6f6e2d636f6e7472616374000000604082015260600190565b6020808252602a908201527f5361666545524332303a204552433230206f7065726174696f6e20646964206e60408201527f6f74207375636365656400000000000000000000000000000000000000000000606082015260800190565b90815260200190565b9283526020830191909152604082015260600190565b63ffffffff91909116815260200190565b60008219821115611ce457611ce4611dae565b500190565b600063ffffffff808316818516808303821115611d0857611d08611dae565b01949350505050565b600082611d2c57634e487b7160e01b81526012600452602481fd5b500490565b6000816000190483118215151615611d4b57611d4b611dae565b500290565b600082821015611d6257611d62611dae565b500390565b60005b83811015611d82578181015183820152602001611d6a565b8381111561164e5750506000910152565b6000600019821415611da757611da7611dae565b5060010190565b634e487b7160e01b600052601160045260246000fd5b6001600160a01b038116811461081657600080fd5b801515811461081657600080fdfea2646970667358221220b6238042818b58b4e43369ee374e76e117b80201e0572356122d3187450ec03f64736f6c63430008000033",
  "linkReferences": {},
  "deployedLinkReferences": {}
}