{
  "_format": "hh-sol-artifact-1",
  "contractName": "SteakHouseV2",
  "sourceName": "contracts/SteakHouseV2.sol",
  "abi": [
    {
      "inputs": [
        {
          "internalType": "contract IERC20[]",
          "name": "_RewardTokens",
          "type": "address[]"
        },
        {
          "internalType": "uint256[]",
          "name": "_RewardsPerSecond",
          "type": "uint256[]"
        },
        {
          "internalType": "uint32",
          "name": "_startTime",
          "type": "uint32"
        }
      ],
      "stateMutability": "nonpayable",
      "type": "constructor"
    },
    {
      "anonymous": false,
      "inputs": [
        {
          "indexed": true,
          "internalType": "address",
          "name": "user",
          "type": "address"
        },
        {
          "indexed": true,
          "internalType": "uint256",
          "name": "pid",
          "type": "uint256"
        },
        {
          "indexed": false,
          "internalType": "uint256",
          "name": "amount",
          "type": "uint256"
        }
      ],
      "name": "Deposit",
      "type": "event"
    },
    {
      "anonymous": false,
      "inputs": [
        {
          "indexed": true,
          "internalType": "address",
          "name": "user",
          "type": "address"
        },
        {
          "indexed": true,
          "internalType": "uint256",
          "name": "pid",
          "type": "uint256"
        },
        {
          "indexed": false,
          "internalType": "uint256",
          "name": "amount",
          "type": "uint256"
        }
      ],
      "name": "EmergencyWithdraw",
      "type": "event"
    },
    {
      "anonymous": false,
      "inputs": [
        {
          "indexed": true,
          "internalType": "address",
          "name": "user",
          "type": "address"
        },
        {
          "indexed": true,
          "internalType": "uint256",
          "name": "pid",
          "type": "uint256"
        },
        {
          "indexed": false,
          "internalType": "uint256",
          "name": "amount",
          "type": "uint256"
        }
      ],
      "name": "FeeCollected",
      "type": "event"
    },
    {
      "anonymous": false,
      "inputs": [
        {
          "indexed": true,
          "internalType": "address",
          "name": "previousOwner",
          "type": "address"
        },
        {
          "indexed": true,
          "internalType": "address",
          "name": "newOwner",
          "type": "address"
        }
      ],
      "name": "OwnershipTransferred",
      "type": "event"
    },
    {
      "anonymous": false,
      "inputs": [
        {
          "indexed": true,
          "internalType": "address",
          "name": "user",
          "type": "address"
        },
        {
          "indexed": true,
          "internalType": "uint256",
          "name": "pid",
          "type": "uint256"
        },
        {
          "indexed": false,
          "internalType": "uint256",
          "name": "amount",
          "type": "uint256"
        }
      ],
      "name": "Withdraw",
      "type": "event"
    },
    {
      "inputs": [
        {
          "internalType": "uint256",
          "name": "",
          "type": "uint256"
        }
      ],
      "name": "RewardTokens",
      "outputs": [
        {
          "internalType": "contract IERC20",
          "name": "",
          "type": "address"
        }
      ],
      "stateMutability": "view",
      "type": "function"
    },
    {
      "inputs": [
        {
          "internalType": "uint256",
          "name": "",
          "type": "uint256"
        }
      ],
      "name": "RewardsPerSecond",
      "outputs": [
        {
          "internalType": "uint256",
          "name": "",
          "type": "uint256"
        }
      ],
      "stateMutability": "view",
      "type": "function"
    },
    {
      "inputs": [
        {
          "internalType": "uint256[]",
          "name": "_AllocPoints",
          "type": "uint256[]"
        },
        {
          "internalType": "contract IERC20",
          "name": "_stakingToken",
          "type": "address"
        },
        {
          "internalType": "bool",
          "name": "_withUpdate",
          "type": "bool"
        }
      ],
      "name": "add",
      "outputs": [],
      "stateMutability": "nonpayable",
      "type": "function"
    },
    {
      "inputs": [
        {
          "internalType": "uint32",
          "name": "addSeconds",
          "type": "uint32"
        }
      ],
      "name": "changeEndTime",
      "outputs": [],
      "stateMutability": "nonpayable",
      "type": "function"
    },
    {
      "inputs": [
        {
          "internalType": "uint256",
          "name": "_amount",
          "type": "uint256"
        }
      ],
      "name": "collect",
      "outputs": [],
      "stateMutability": "nonpayable",
      "type": "function"
    },
    {
      "inputs": [
        {
          "internalType": "uint256",
          "name": "_pid",
          "type": "uint256"
        },
        {
          "internalType": "uint256",
          "name": "_amount",
          "type": "uint256"
        }
      ],
      "name": "deposit",
      "outputs": [],
      "stateMutability": "nonpayable",
      "type": "function"
    },
    {
      "inputs": [],
      "name": "depositFee",
      "outputs": [
        {
          "internalType": "uint256",
          "name": "",
          "type": "uint256"
        }
      ],
      "stateMutability": "view",
      "type": "function"
    },
    {
      "inputs": [],
      "name": "depositFeeReceiver",
      "outputs": [
        {
          "internalType": "address",
          "name": "",
          "type": "address"
        }
      ],
      "stateMutability": "view",
      "type": "function"
    },
    {
      "inputs": [
        {
          "internalType": "uint256",
          "name": "_pid",
          "type": "uint256"
        }
      ],
      "name": "emergencyWithdraw",
      "outputs": [],
      "stateMutability": "nonpayable",
      "type": "function"
    },
    {
      "inputs": [],
      "name": "endTime",
      "outputs": [
        {
          "internalType": "uint32",
          "name": "",
          "type": "uint32"
        }
      ],
      "stateMutability": "view",
      "type": "function"
    },
    {
      "inputs": [
        {
          "internalType": "uint256",
          "name": "_from",
          "type": "uint256"
        },
        {
          "internalType": "uint256",
          "name": "_to",
          "type": "uint256"
        }
      ],
      "name": "getMultiplier",
      "outputs": [
        {
          "internalType": "uint256",
          "name": "",
          "type": "uint256"
        }
      ],
      "stateMutability": "view",
      "type": "function"
    },
    {
      "inputs": [
        {
          "internalType": "uint256",
          "name": "_pid",
          "type": "uint256"
        }
      ],
      "name": "getPoolInfo",
      "outputs": [
        {
          "components": [
            {
              "internalType": "contract IERC20",
              "name": "stakingToken",
              "type": "address"
            },
            {
              "internalType": "uint256",
              "name": "stakingTokenTotalAmount",
              "type": "uint256"
            },
            {
              "internalType": "uint32",
              "name": "lastRewardTime",
              "type": "uint32"
            },
            {
              "internalType": "uint256[]",
              "name": "AccRewardsPerShare",
              "type": "uint256[]"
            },
            {
              "internalType": "uint256[]",
              "name": "AllocPoints",
              "type": "uint256[]"
            }
          ],
          "internalType": "struct SteakHouseV2.PoolInfo",
          "name": "",
          "type": "tuple"
        }
      ],
      "stateMutability": "view",
      "type": "function"
    },
    {
      "inputs": [
        {
          "internalType": "uint256",
          "name": "_pid",
          "type": "uint256"
        },
        {
          "internalType": "address",
          "name": "_user",
          "type": "address"
        }
      ],
      "name": "getUserInfo",
      "outputs": [
        {
          "components": [
            {
              "internalType": "uint256",
              "name": "amount",
              "type": "uint256"
            },
            {
              "internalType": "uint256[]",
              "name": "RewardDebt",
              "type": "uint256[]"
            },
            {
              "internalType": "uint256[]",
              "name": "RemainingRewards",
              "type": "uint256[]"
            }
          ],
          "internalType": "struct SteakHouseV2.UserInfo",
          "name": "",
          "type": "tuple"
        }
      ],
      "stateMutability": "view",
      "type": "function"
    },
    {
      "inputs": [],
      "name": "harvestFee",
      "outputs": [
        {
          "internalType": "uint256",
          "name": "",
          "type": "uint256"
        }
      ],
      "stateMutability": "view",
      "type": "function"
    },
    {
      "inputs": [],
      "name": "harvestFeeReceiver",
      "outputs": [
        {
          "internalType": "address",
          "name": "",
          "type": "address"
        }
      ],
      "stateMutability": "view",
      "type": "function"
    },
    {
      "inputs": [],
      "name": "massUpdatePools",
      "outputs": [],
      "stateMutability": "nonpayable",
      "type": "function"
    },
    {
      "inputs": [],
      "name": "owner",
      "outputs": [
        {
          "internalType": "address",
          "name": "",
          "type": "address"
        }
      ],
      "stateMutability": "view",
      "type": "function"
    },
    {
      "inputs": [
        {
          "internalType": "uint256",
          "name": "_pid",
          "type": "uint256"
        },
        {
          "internalType": "address",
          "name": "_user",
          "type": "address"
        }
      ],
      "name": "pendingRewards",
      "outputs": [
        {
          "internalType": "uint256[]",
          "name": "",
          "type": "uint256[]"
        }
      ],
      "stateMutability": "view",
      "type": "function"
    },
    {
      "inputs": [],
      "name": "poolLength",
      "outputs": [
        {
          "internalType": "uint256",
          "name": "",
          "type": "uint256"
        }
      ],
      "stateMutability": "view",
      "type": "function"
    },
    {
      "inputs": [],
      "name": "renounceOwnership",
      "outputs": [],
      "stateMutability": "nonpayable",
      "type": "function"
    },
    {
      "inputs": [
        {
          "internalType": "uint256",
          "name": "_pid",
          "type": "uint256"
        },
        {
          "internalType": "uint256[]",
          "name": "_AllocPoints",
          "type": "uint256[]"
        },
        {
          "internalType": "bool",
          "name": "_withUpdate",
          "type": "bool"
        }
      ],
      "name": "set",
      "outputs": [],
      "stateMutability": "nonpayable",
      "type": "function"
    },
    {
      "inputs": [
        {
          "internalType": "uint256",
          "name": "_depositFee",
          "type": "uint256"
        }
      ],
      "name": "setDepositFee",
      "outputs": [],
      "stateMutability": "nonpayable",
      "type": "function"
    },
    {
      "inputs": [
        {
          "internalType": "address",
          "name": "_depositFeeReceiver",
          "type": "address"
        }
      ],
      "name": "setDepositFeeReceiver",
      "outputs": [],
      "stateMutability": "nonpayable",
      "type": "function"
    },
    {
      "inputs": [
        {
          "internalType": "uint256",
          "name": "_harvestFee",
          "type": "uint256"
        }
      ],
      "name": "setHarvestFee",
      "outputs": [],
      "stateMutability": "nonpayable",
      "type": "function"
    },
    {
      "inputs": [
        {
          "internalType": "address",
          "name": "_harvestFeeReceiver",
          "type": "address"
        }
      ],
      "name": "setHarvestFeeReceiver",
      "outputs": [],
      "stateMutability": "nonpayable",
      "type": "function"
    },
    {
      "inputs": [
        {
          "internalType": "contract IERC20[]",
          "name": "_RewardTokens",
          "type": "address[]"
        }
      ],
      "name": "setRewardTokens",
      "outputs": [],
      "stateMutability": "nonpayable",
      "type": "function"
    },
    {
      "inputs": [
        {
          "internalType": "uint256",
          "name": "_rewardsPerSecond",
          "type": "uint256"
        },
        {
          "internalType": "uint16",
          "name": "_rid",
          "type": "uint16"
        },
        {
          "internalType": "bool",
          "name": "_withUpdate",
          "type": "bool"
        }
      ],
      "name": "setRewardsPerSecond",
      "outputs": [],
      "stateMutability": "nonpayable",
      "type": "function"
    },
    {
      "inputs": [],
      "name": "startTime",
      "outputs": [
        {
          "internalType": "uint32",
          "name": "",
          "type": "uint32"
        }
      ],
      "stateMutability": "view",
      "type": "function"
    },
    {
      "inputs": [
        {
          "internalType": "uint256",
          "name": "",
          "type": "uint256"
        }
      ],
      "name": "totalAllocPoints",
      "outputs": [
        {
          "internalType": "uint256",
          "name": "",
          "type": "uint256"
        }
      ],
      "stateMutability": "view",
      "type": "function"
    },
    {
      "inputs": [
        {
          "internalType": "address",
          "name": "newOwner",
          "type": "address"
        }
      ],
      "name": "transferOwnership",
      "outputs": [],
      "stateMutability": "nonpayable",
      "type": "function"
    },
    {
      "inputs": [
        {
          "internalType": "uint256",
          "name": "_pid",
          "type": "uint256"
        }
      ],
      "name": "updatePool",
      "outputs": [],
      "stateMutability": "nonpayable",
      "type": "function"
    },
    {
      "inputs": [
        {
          "internalType": "uint256",
          "name": "_pid",
          "type": "uint256"
        },
        {
          "internalType": "uint256",
          "name": "_amount",
          "type": "uint256"
        }
      ],
      "name": "withdraw",
      "outputs": [],
      "stateMutability": "nonpayable",
      "type": "function"
    }
  ],
  "bytecode": "0x611388600155620186a0600255600560a08181526101606040529060c0828036833750508151620000389260059250602001906200021a565b5060408051600580825260c08201909252906020820160a080368337505081516200006b92600692506020019062000284565b5060408051600580825260c08201909252906020820160a080368337505081516200009e92600792506020019062000284565b50348015620000ac57600080fd5b506040516200328238038062003282833981016040819052620000cf9162000367565b6000620000db62000207565b600080546001600160a01b0319166001600160a01b0383169081178255604051929350917f8be0079c531659141344cd1fd0a4f28419497f9722a3daafe3b4186f6b6457e0908290a3508251600514801562000138575081516005145b6200014257600080fd5b8251620001579060059060208601906200021a565b5081516200016d90600690602085019062000284565b506001600160e01b031960e082901b166080526200018f8162278d00620004a5565b6008805463ffffffff191663ffffffff92909216919091179055620001b36200020b565b600480546001600160a01b0319166001600160a01b0392909216919091179055620001dd6200020b565b600380546001600160a01b0319166001600160a01b039290921691909117905550620004f0915050565b3390565b6000546001600160a01b031690565b82805482825590600052602060002090810192821562000272579160200282015b828111156200027257825182546001600160a01b0319166001600160a01b039091161782556020909201916001909101906200023b565b5062000280929150620002c2565b5090565b82805482825590600052602060002090810192821562000272579160200282015b8281111562000272578251825591602001919060010190620002a5565b5b80821115620002805760008155600101620002c3565b600082601f830112620002ea578081fd5b8151602062000303620002fd836200047f565b62000453565b828152818101908583018385028701840188101562000320578586fd5b855b85811015620003405781518452928401929084019060010162000322565b5090979650505050505050565b805163ffffffff811681146200036257600080fd5b919050565b6000806000606084860312156200037c578283fd5b83516001600160401b038082111562000393578485fd5b818601915086601f830112620003a7578485fd5b81516020620003ba620002fd836200047f565b82815281810190858301838502870184018c1015620003d757898afd5b8996505b84871015620004105780516001600160a01b0381168114620003fb578a8bfd5b835260019690960195918301918301620003db565b50918901519197509093505050808211156200042a578384fd5b506200043986828701620002d9565b9250506200044a604085016200034d565b90509250925092565b6040518181016001600160401b0381118282101715620004775762000477620004da565b604052919050565b60006001600160401b038211156200049b576200049b620004da565b5060209081020190565b600063ffffffff808316818516808303821115620004d157634e487b7160e01b84526011600452602484fd5b01949350505050565b634e487b7160e01b600052604160045260246000fd5b60805160e01c612d5062000532600039600081816105bc015281816105e9015281816112e4015281816113dd0152818161140a015261144c0152612d506000f3fe608060405234801561001057600080fd5b50600436106101f05760003560e01c8063715018a61161010f578063ac86ac72116100a2578063d18df53c11610071578063d18df53c146103f2578063e2bbb15814610412578063ecc404b514610425578063f2fde38b1461042d576101f0565b8063ac86ac72146103b1578063b5962917146103c4578063ce3f865f146103cc578063cf42947b146103df576101f0565b8063792b55b6116100de578063792b55b61461037057806384689044146103835780638da5cb5b146103965780638dbb1e3a1461039e576101f0565b8063715018a61461034557806373cd78f41461034d57806376cbe8ff1461035557806378e9792514610368576101f0565b8063441a3e70116101875780635312ea8e116101565780635312ea8e1461030f57806355c009ea14610322578063630b5ba11461033557806367a527931461033d576101f0565b8063441a3e70146102c3578063490ae210146102d65780634dd1a1b7146102e957806351eb05a6146102fc576101f0565b80631fae15b3116101c35780631fae15b314610268578063201e81a81461027b5780632f380b351461028e5780633197cbb6146102ae576101f0565b8063081e3eda146101f55780631069f3b5146102135780631d8a66eb146102335780631edc47ba14610253575b600080fd5b6101fd610440565b60405161020a9190612bc8565b60405180910390f35b61022661022136600461269d565b610446565b60405161020a9190612b85565b61024661024136600461266d565b610535565b60405161020a9190612800565b6102666102613660046125eb565b61055f565b005b6101fd61027636600461266d565b61080c565b6102666102893660046125ab565b61082d565b6102a161029c36600461266d565b610880565b60405161020a9190612b16565b6102b66109a1565b60405161020a9190612bd1565b6102666102d1366004612765565b6109ad565b6102666102e436600461266d565b610c6d565b6102666102f73660046126cc565b610cb6565b61026661030a36600461266d565b610ebc565b61026661031d36600461266d565b6110c2565b6101fd61033036600461266d565b6111a2565b6102666111b2565b6101fd6111dd565b6102666111e3565b61024661126f565b61026661036336600461258f565b61127e565b6102b66112e2565b61026661037e36600461266d565b611306565b61026661039136600461271e565b611350565b6102466113ca565b6101fd6103ac366004612765565b6113d9565b6102666103bf36600461258f565b6114bd565b6101fd611521565b6102666103da36600461266d565b611527565b6102666103ed366004612786565b6116f2565b61040561040036600461269d565b611763565b60405161020a9190612851565b610266610420366004612765565b611aff565b610246611f1f565b61026661043b36600461258f565b611f2e565b60095490565b61044e612427565b6000838152600a602090815260408083206001600160a01b0386168452825291829020825160608101845281548152600182018054855181860281018601909652808652919492938581019392908301828280156104cb57602002820191906000526020600020905b8154815260200190600101908083116104b7575b505050505081526020016002820180548060200260200160405190810160405280929190818152602001828054801561052357602002820191906000526020600020905b81548152602001906001019080831161050f575b50505050508152505090505b92915050565b6005818154811061054557600080fd5b6000918252602090912001546001600160a01b0316905081565b610567611ff1565b6000546001600160a01b0390811691161461059d5760405162461bcd60e51b815260040161059490612a16565b60405180910390fd5b600583146105aa57600080fd5b80156105b8576105b86111b2565b60007f000000000000000000000000000000000000000000000000000000000000000063ffffffff164211610613577f000000000000000000000000000000000000000000000000000000000000000063ffffffff16610615565b425b905060005b60075481101561069d5785858281811061064457634e487b7160e01b600052603260045260246000fd5b905060200201356007828154811061066c57634e487b7160e01b600052603260045260246000fd5b9060005260206000200160008282546106859190612be2565b9091555081905061069581612cc6565b91505061061a565b5060096040518060a00160405280856001600160a01b03168152602001600081526020018363ffffffff168152602001600567ffffffffffffffff8111156106f557634e487b7160e01b600052604160045260246000fd5b60405190808252806020026020018201604052801561071e578160200160208202803683370190505b50815260200187878080602002602001604051908101604052809392919081815260200183836020028082843760009201829052509390945250508354600180820186559482526020918290208451600590920201805473ffffffffffffffffffffffffffffffffffffffff19166001600160a01b039092169190911781558382015194810194909455604083015160028501805463ffffffff191663ffffffff909216919091179055606083015180519394936107e6935060038501929190910190612448565b5060808201518051610802916004840191602090910190612448565b5050505050505050565b6006818154811061081c57600080fd5b600091825260209091200154905081565b610835611ff1565b6000546001600160a01b039081169116146108625760405162461bcd60e51b815260040161059490612a16565b6005811461086f57600080fd5b61087b60058383612493565b505050565b6108886124f3565b600982815481106108a957634e487b7160e01b600052603260045260246000fd5b60009182526020918290206040805160a081018252600590930290910180546001600160a01b03168352600181015483850152600281015463ffffffff16838301526003810180548351818702810187019094528084529394919360608601939283018282801561093957602002820191906000526020600020905b815481526020019060010190808311610925575b505050505081526020016004820180548060200260200160405190810160405280929190818152602001828054801561099157602002820191906000526020600020905b81548152602001906001019080831161097d575b5050505050815250509050919050565b60085463ffffffff1681565b6000600983815481106109d057634e487b7160e01b600052603260045260246000fd5b60009182526020808320868452600a825260408085203386529092529220805460059092029092019250831115610a195760405162461bcd60e51b81526004016105949061295c565b610a2284610ebc565b60005b600554811015610b3d576000826002018281548110610a5457634e487b7160e01b600052603260045260246000fd5b9060005260206000200154836001018381548110610a8257634e487b7160e01b600052603260045260246000fd5b906000526020600020015464e8d4a51000866003018581548110610ab657634e487b7160e01b600052603260045260246000fd5b90600052602060002001548660000154610ad09190612c42565b610ada9190612c22565b610ae49190612c61565b610aee9190612be2565b9050610afb338284611ff5565b836002018381548110610b1e57634e487b7160e01b600052603260045260246000fd5b6000918252602090912001555080610b3581612cc6565b915050610a25565b5082816000016000828254610b529190612c61565b9250508190555082826001016000828254610b6d9190612c61565b90915550600090505b600554811015610c0e5764e8d4a51000836003018281548110610ba957634e487b7160e01b600052603260045260246000fd5b90600052602060002001548360000154610bc39190612c42565b610bcd9190612c22565b826001018281548110610bf057634e487b7160e01b600052603260045260246000fd5b60009182526020909120015580610c0681612cc6565b915050610b76565b508154610c25906001600160a01b031633856121de565b83336001600160a01b03167ff279e6a1f5e320cca91135676d9cb6e44ca8a08c0b88342bcdb1144f6511b56885604051610c5f9190612bc8565b60405180910390a350505050565b610c75611ff1565b6000546001600160a01b03908116911614610ca25760405162461bcd60e51b815260040161059490612a16565b61c350811115610cb157600080fd5b600155565b610cbe611ff1565b6000546001600160a01b03908116911614610ceb5760405162461bcd60e51b815260040161059490612a16565b60058214610cf857600080fd5b8015610d0657610d066111b2565b60005b60075461ffff82161015610eb55783838261ffff16818110610d3b57634e487b7160e01b600052603260045260246000fd5b9050602002013560098681548110610d6357634e487b7160e01b600052603260045260246000fd5b90600052602060002090600502016004018261ffff1681548110610d9757634e487b7160e01b600052603260045260246000fd5b906000526020600020015460078361ffff1681548110610dc757634e487b7160e01b600052603260045260246000fd5b9060005260206000200154610ddc9190612c61565b610de69190612be2565b60078261ffff1681548110610e0b57634e487b7160e01b600052603260045260246000fd5b600091825260209091200155838361ffff8316818110610e3b57634e487b7160e01b600052603260045260246000fd5b9050602002013560098681548110610e6357634e487b7160e01b600052603260045260246000fd5b90600052602060002090600502016004018261ffff1681548110610e9757634e487b7160e01b600052603260045260246000fd5b60009182526020909120015580610ead81612ca4565b915050610d09565b5050505050565b600060098281548110610edf57634e487b7160e01b600052603260045260246000fd5b60009182526020909120600590910201600281015490915063ffffffff164211610f0957506110bf565b6001810154610f2d57600201805463ffffffff19164263ffffffff161790556110bf565b6002810154600090610f459063ffffffff16426113d9565b905060005b6005548110156110bb5760078181548110610f7557634e487b7160e01b600052603260045260246000fd5b90600052602060002001546000146110a957600060078281548110610faa57634e487b7160e01b600052603260045260246000fd5b9060005260206000200154846004018381548110610fd857634e487b7160e01b600052603260045260246000fd5b90600052602060002001546006848154811061100457634e487b7160e01b600052603260045260246000fd5b90600052602060002001548561101a9190612c42565b6110249190612c42565b61102e9190612c22565b60018501549091506110458264e8d4a51000612c42565b61104f9190612c22565b84600301838154811061107257634e487b7160e01b600052603260045260246000fd5b90600052602060002001600082825461108b9190612be2565b90915550505060028301805463ffffffff19164263ffffffff161790555b806110b381612cc6565b915050610f4a565b5050505b50565b6000600982815481106110e557634e487b7160e01b600052603260045260246000fd5b60009182526020808320858452600a8252604080852033865283528085208054868255825196875293860191829052945160059490940290910194509091611131916001850191612448565b506040805160008152602081019182905251611151916002850191612448565b508254611168906001600160a01b031633836121de565b83336001600160a01b03167fbb757047c2b5f3974fe26b7c10f732e7bce710b0952a71082702781e62ae059583604051610c5f9190612bc8565b6007818154811061081c57600080fd5b60095460005b818110156111d9576111c981610ebc565b6111d281612cc6565b90506111b8565b5050565b60015481565b6111eb611ff1565b6000546001600160a01b039081169116146112185760405162461bcd60e51b815260040161059490612a16565b600080546040516001600160a01b03909116907f8be0079c531659141344cd1fd0a4f28419497f9722a3daafe3b4186f6b6457e0908390a36000805473ffffffffffffffffffffffffffffffffffffffff19169055565b6004546001600160a01b031681565b611286611ff1565b6000546001600160a01b039081169116146112b35760405162461bcd60e51b815260040161059490612a16565b6004805473ffffffffffffffffffffffffffffffffffffffff19166001600160a01b0392909216919091179055565b7f000000000000000000000000000000000000000000000000000000000000000081565b61130e611ff1565b6000546001600160a01b0390811691161461133b5760405162461bcd60e51b815260040161059490612a16565b6207a12081111561134b57600080fd5b600255565b611358611ff1565b6000546001600160a01b039081169116146113855760405162461bcd60e51b815260040161059490612a16565b8015611393576113936111b2565b8260068361ffff16815481106113b957634e487b7160e01b600052603260045260246000fd5b600091825260209091200155505050565b6000546001600160a01b031690565b60007f000000000000000000000000000000000000000000000000000000000000000063ffffffff168311611434577f000000000000000000000000000000000000000000000000000000000000000063ffffffff16611436565b825b60085490935063ffffffff1683118061147457507f000000000000000000000000000000000000000000000000000000000000000063ffffffff1682105b156114815750600061052f565b60085463ffffffff168211156114ac576008546114a590849063ffffffff16612c61565b905061052f565b6114b68383612c61565b9392505050565b6114c5611ff1565b6000546001600160a01b039081169116146114f25760405162461bcd60e51b815260040161059490612a16565b6003805473ffffffffffffffffffffffffffffffffffffffff19166001600160a01b0392909216919091179055565b60025481565b61152f611ff1565b6000546001600160a01b0390811691161461155c5760405162461bcd60e51b815260040161059490612a16565b6008546115729063ffffffff1662093a80612bfa565b63ffffffff164210156115975760405162461bcd60e51b815260040161059490612925565b60005b60055461ffff8216116111d957600060058261ffff16815481106115ce57634e487b7160e01b600052603260045260246000fd5b6000918252602090912001546040517f70a082310000000000000000000000000000000000000000000000000000000081526001600160a01b03909116906370a0823190611620903090600401612800565b60206040518083038186803b15801561163857600080fd5b505afa15801561164c573d6000803e3d6000fd5b505050506040513d601f19601f820116820180604052508101906116709190612685565b9050808311156116925760405162461bcd60e51b815260040161059490612a4b565b6116df61169d6113ca565b8460058561ffff16815481106116c357634e487b7160e01b600052603260045260246000fd5b6000918252602090912001546001600160a01b031691906121de565b50806116ea81612ca4565b91505061159a565b6116fa611ff1565b6000546001600160a01b039081169116146117275760405162461bcd60e51b815260040161059490612a16565b6008805482919060009061174290849063ffffffff16612bfa565b92506101000a81548163ffffffff021916908363ffffffff16021790555050565b606060006009848154811061178857634e487b7160e01b600052603260045260246000fd5b60009182526020808320878452600a825260408085206001600160a01b03891686528352808520600360059095029092019384018054825181860281018601909352808352949650919493909283018282801561180457602002820191906000526020600020905b8154815260200190600101908083116117f0575b505050505090506000600567ffffffffffffffff81111561183557634e487b7160e01b600052604160045260246000fd5b60405190808252806020026020018201604052801561185e578160200160208202803683370190505b50600285015490915063ffffffff164211801561187e5750600184015415155b156119f357600284015460009061189b9063ffffffff16426113d9565b905060005b6005548110156119f057600781815481106118cb57634e487b7160e01b600052603260045260246000fd5b90600052602060002001546000146119de5760006007828154811061190057634e487b7160e01b600052603260045260246000fd5b906000526020600020015487600401838154811061192e57634e487b7160e01b600052603260045260246000fd5b90600052602060002001546006848154811061195a57634e487b7160e01b600052603260045260246000fd5b9060005260206000200154856119709190612c42565b61197a9190612c42565b6119849190612c22565b600188015490915061199b8264e8d4a51000612c42565b6119a59190612c22565b8583815181106119c557634e487b7160e01b600052603260045260246000fd5b602002602001018181516119d99190612be2565b905250505b806119e881612cc6565b9150506118a0565b50505b60005b600554811015611af457836002018181548110611a2357634e487b7160e01b600052603260045260246000fd5b9060005260206000200154846001018281548110611a5157634e487b7160e01b600052603260045260246000fd5b906000526020600020015464e8d4a51000858481518110611a8257634e487b7160e01b600052603260045260246000fd5b60200260200101518760000154611a999190612c42565b611aa39190612c22565b611aad9190612c61565b611ab79190612be2565b828281518110611ad757634e487b7160e01b600052603260045260246000fd5b602090810291909101015280611aec81612cc6565b9150506119f6565b509695505050505050565b600060098381548110611b2257634e487b7160e01b600052603260045260246000fd5b60009182526020808320868452600a825260408085203386529092529220600181015460059092029092019250158015611b5e57506002810154155b15611bca5760408051600580825260c08201909252906020820160a08036833750508151611b959260018501925060200190612448565b5060408051600580825260c08201909252906020820160a08036833750508151611bc89260028501925060200190612448565b505b611bd384610ebc565b805415611cf75760005b600554811015611cf5576000826002018281548110611c0c57634e487b7160e01b600052603260045260246000fd5b9060005260206000200154836001018381548110611c3a57634e487b7160e01b600052603260045260246000fd5b906000526020600020015464e8d4a51000866003018581548110611c6e57634e487b7160e01b600052603260045260246000fd5b90600052602060002001548660000154611c889190612c42565b611c929190612c22565b611c9c9190612c61565b611ca69190612be2565b9050611cb3338284611ff5565b836002018381548110611cd657634e487b7160e01b600052603260045260246000fd5b6000918252602090912001555080611ced81612cc6565b915050611bdd565b505b6000620f424060015485611d0b9190612c42565b611d159190612c22565b8354909150611d2f906001600160a01b0316333087612261565b6004548354611d4b916001600160a01b039182169116836121de565b6000611d578286612c61565b905080836000016000828254611d6d9190612be2565b9250508190555080846001016000828254611d889190612be2565b909155505060055467ffffffffffffffff811115611db657634e487b7160e01b600052604160045260246000fd5b604051908082528060200260200182016040528015611ddf578160200160208202803683370190505b508051611df6916001860191602090910190612448565b5060005b600554811015611e925764e8d4a51000856003018281548110611e2d57634e487b7160e01b600052603260045260246000fd5b90600052602060002001548560000154611e479190612c42565b611e519190612c22565b846001018281548110611e7457634e487b7160e01b600052603260045260246000fd5b60009182526020909120015580611e8a81612cc6565b915050611dfa565b5085336001600160a01b03167f90890809c654f11d6e72a28fa60149770a0d11ec6c92319d6ceb2bb0a4ea1a1583604051611ecd9190612bc8565b60405180910390a385336001600160a01b03167f108516ddcf5ba43cea6bb2cd5ff6d59ac196c1c86ccb9178332b9dd72d1ca56184604051611f0f9190612bc8565b60405180910390a3505050505050565b6003546001600160a01b031681565b611f36611ff1565b6000546001600160a01b03908116911614611f635760405162461bcd60e51b815260040161059490612a16565b6001600160a01b038116611f895760405162461bcd60e51b8152600401610594906128c8565b600080546040516001600160a01b03808516939216917f8be0079c531659141344cd1fd0a4f28419497f9722a3daafe3b4186f6b6457e091a36000805473ffffffffffffffffffffffffffffffffffffffff19166001600160a01b0392909216919091179055565b3390565b6000806005838154811061201957634e487b7160e01b600052603260045260246000fd5b6000918252602090912001546040517f70a082310000000000000000000000000000000000000000000000000000000081526001600160a01b03909116906370a082319061206b903090600401612800565b60206040518083038186803b15801561208357600080fd5b505afa158015612097573d6000803e3d6000fd5b505050506040513d601f19601f820116820180604052508101906120bb9190612685565b90506000620f4240600254866120d19190612c42565b6120db9190612c22565b9050816120ec5784925050506114b6565b8185111561218f57620f4240600254836121069190612c42565b6121109190612c22565b905061214d600360009054906101000a90046001600160a01b031682600587815481106116c357634e487b7160e01b600052603260045260246000fd5b61217c8661215b8385612c61565b600587815481106116c357634e487b7160e01b600052603260045260246000fd5b6121868286612c61565b925050506114b6565b600354600580546121c4926001600160a01b0316918491889081106116c357634e487b7160e01b600052603260045260246000fd5b6121d28661215b8388612c61565b50600095945050505050565b61087b8363a9059cbb60e01b84846040516024016121fd929190612838565b60408051601f198184030181529190526020810180517bffffffffffffffffffffffffffffffffffffffffffffffffffffffff167fffffffff0000000000000000000000000000000000000000000000000000000090931692909217909152612282565b6110bb846323b872dd60e01b8585856040516024016121fd93929190612814565b60006122d7826040518060400160405280602081526020017f5361666545524332303a206c6f772d6c6576656c2063616c6c206661696c6564815250856001600160a01b03166123119092919063ffffffff16565b80519091501561087b57808060200190518101906122f59190612651565b61087b5760405162461bcd60e51b815260040161059490612ab9565b60606123208484600085612328565b949350505050565b60608247101561234a5760405162461bcd60e51b8152600401610594906129b9565b612353856123e8565b61236f5760405162461bcd60e51b815260040161059490612a82565b600080866001600160a01b0316858760405161238b91906127e4565b60006040518083038185875af1925050503d80600081146123c8576040519150601f19603f3d011682016040523d82523d6000602084013e6123cd565b606091505b50915091506123dd8282866123ee565b979650505050505050565b3b151590565b606083156123fd5750816114b6565b82511561240d5782518084602001fd5b8160405162461bcd60e51b81526004016105949190612895565b60405180606001604052806000815260200160608152602001606081525090565b828054828255906000526020600020908101928215612483579160200282015b82811115612483578251825591602001919060010190612468565b5061248f929150612531565b5090565b828054828255906000526020600020908101928215612483579160200282015b8281111561248357815473ffffffffffffffffffffffffffffffffffffffff19166001600160a01b038435161782556020909201916001909101906124b3565b6040518060a0016040528060006001600160a01b0316815260200160008152602001600063ffffffff16815260200160608152602001606081525090565b5b8082111561248f5760008155600101612532565b60008083601f840112612557578182fd5b50813567ffffffffffffffff81111561256e578182fd5b602083019150836020808302850101111561258857600080fd5b9250929050565b6000602082840312156125a0578081fd5b81356114b681612cf7565b600080602083850312156125bd578081fd5b823567ffffffffffffffff8111156125d3578182fd5b6125df85828601612546565b90969095509350505050565b60008060008060608587031215612600578182fd5b843567ffffffffffffffff811115612616578283fd5b61262287828801612546565b909550935050602085013561263681612cf7565b9150604085013561264681612d0c565b939692955090935050565b600060208284031215612662578081fd5b81516114b681612d0c565b60006020828403121561267e578081fd5b5035919050565b600060208284031215612696578081fd5b5051919050565b600080604083850312156126af578182fd5b8235915060208301356126c181612cf7565b809150509250929050565b600080600080606085870312156126e1578384fd5b84359350602085013567ffffffffffffffff8111156126fe578384fd5b61270a87828801612546565b909450925050604085013561264681612d0c565b600080600060608486031215612732578283fd5b83359250602084013561ffff8116811461274a578283fd5b9150604084013561275a81612d0c565b809150509250925092565b60008060408385031215612777578182fd5b50508035926020909101359150565b600060208284031215612797578081fd5b813563ffffffff811681146114b6578182fd5b6000815180845260208085019450808401835b838110156127d9578151875295820195908201906001016127bd565b509495945050505050565b600082516127f6818460208701612c78565b9190910192915050565b6001600160a01b0391909116815260200190565b6001600160a01b039384168152919092166020820152604081019190915260600190565b6001600160a01b03929092168252602082015260400190565b6020808252825182820181905260009190848201906040850190845b818110156128895783518352928401929184019160010161286d565b50909695505050505050565b60006020825282518060208401526128b4816040850160208701612c78565b601f01601f19169190910160400192915050565b60208082526026908201527f4f776e61626c653a206e6577206f776e657220697320746865207a65726f206160408201527f6464726573730000000000000000000000000000000000000000000000000000606082015260800190565b60208082526014908201527f746f6f206561726c7920746f20636f6c6c656374000000000000000000000000604082015260600190565b6020808252603f908201527f537465616b486f7573653a20616d6f756e7420746f207769746864726177206960408201527f732067726561746572207468616e20616d6f756e7420617661696c61626c6500606082015260800190565b60208082526026908201527f416464726573733a20696e73756666696369656e742062616c616e636520666f60408201527f722063616c6c0000000000000000000000000000000000000000000000000000606082015260800190565b6020808252818101527f4f776e61626c653a2063616c6c6572206973206e6f7420746865206f776e6572604082015260600190565b60208082526014908201527f7769746864726177696e6720746f6f206d756368000000000000000000000000604082015260600190565b6020808252601d908201527f416464726573733a2063616c6c20746f206e6f6e2d636f6e7472616374000000604082015260600190565b6020808252602a908201527f5361666545524332303a204552433230206f7065726174696f6e20646964206e60408201527f6f74207375636365656400000000000000000000000000000000000000000000606082015260800190565b6000602082526001600160a01b0383511660208301526020830151604083015263ffffffff6040840151166060830152606083015160a06080840152612b5f60c08401826127aa565b90506080840151601f198483030160a0850152612b7c82826127aa565b95945050505050565b60006020825282516020830152602083015160606040840152612bab60808401826127aa565b90506040840151601f19848303016060850152612b7c82826127aa565b90815260200190565b63ffffffff91909116815260200190565b60008219821115612bf557612bf5612ce1565b500190565b600063ffffffff808316818516808303821115612c1957612c19612ce1565b01949350505050565b600082612c3d57634e487b7160e01b81526012600452602481fd5b500490565b6000816000190483118215151615612c5c57612c5c612ce1565b500290565b600082821015612c7357612c73612ce1565b500390565b60005b83811015612c93578181015183820152602001612c7b565b838111156110bb5750506000910152565b600061ffff80831681811415612cbc57612cbc612ce1565b6001019392505050565b6000600019821415612cda57612cda612ce1565b5060010190565b634e487b7160e01b600052601160045260246000fd5b6001600160a01b03811681146110bf57600080fd5b80151581146110bf57600080fdfea26469706673582212200bd782d61bff42615dda7df7a80d4faad3751fca9ebc67079eb6500ceafd6c6964736f6c63430008000033",
  "linkReferences": {},
  "deployedLinkReferences": {}
}