{
  "_format": "hh-sol-artifact-1",
  "contractName": "SteakHouse",
  "sourceName": "contracts/SteakHouse.sol",
  "abi": [
    {
      "inputs": [
        {
          "internalType": "contract IERC20",
          "name": "_steak",
          "type": "address"
        },
        {
          "internalType": "contract IERC20",
          "name": "_ifusd",
          "type": "address"
        },
        {
          "internalType": "uint256",
          "name": "_steakPerSecond",
          "type": "uint256"
        },
        {
          "internalType": "uint32",
          "name": "_startTime",
          "type": "uint32"
        }
      ],
      "stateMutability": "nonpayable",
      "type": "constructor"
    },
    {
      "anonymous": false,
      "inputs": [
        {
          "indexed": true,
          "internalType": "address",
          "name": "user",
          "type": "address"
        },
        {
          "indexed": true,
          "internalType": "uint256",
          "name": "pid",
          "type": "uint256"
        },
        {
          "indexed": false,
          "internalType": "uint256",
          "name": "amount",
          "type": "uint256"
        }
      ],
      "name": "Deposit",
      "type": "event"
    },
    {
      "anonymous": false,
      "inputs": [
        {
          "indexed": true,
          "internalType": "address",
          "name": "user",
          "type": "address"
        },
        {
          "indexed": true,
          "internalType": "uint256",
          "name": "pid",
          "type": "uint256"
        },
        {
          "indexed": false,
          "internalType": "uint256",
          "name": "amount",
          "type": "uint256"
        }
      ],
      "name": "EmergencyWithdraw",
      "type": "event"
    },
    {
      "anonymous": false,
      "inputs": [
        {
          "indexed": true,
          "internalType": "address",
          "name": "user",
          "type": "address"
        },
        {
          "indexed": true,
          "internalType": "uint256",
          "name": "pid",
          "type": "uint256"
        },
        {
          "indexed": false,
          "internalType": "uint256",
          "name": "amount",
          "type": "uint256"
        }
      ],
      "name": "FeeCollected",
      "type": "event"
    },
    {
      "anonymous": false,
      "inputs": [
        {
          "indexed": true,
          "internalType": "address",
          "name": "previousOwner",
          "type": "address"
        },
        {
          "indexed": true,
          "internalType": "address",
          "name": "newOwner",
          "type": "address"
        }
      ],
      "name": "OwnershipTransferred",
      "type": "event"
    },
    {
      "anonymous": false,
      "inputs": [
        {
          "indexed": true,
          "internalType": "address",
          "name": "user",
          "type": "address"
        },
        {
          "indexed": true,
          "internalType": "uint256",
          "name": "pid",
          "type": "uint256"
        },
        {
          "indexed": false,
          "internalType": "uint256",
          "name": "amount",
          "type": "uint256"
        }
      ],
      "name": "Withdraw",
      "type": "event"
    },
    {
      "inputs": [
        {
          "internalType": "uint16",
          "name": "_allocPoint",
          "type": "uint16"
        },
        {
          "internalType": "contract IERC20",
          "name": "_stakingToken",
          "type": "address"
        },
        {
          "internalType": "bool",
          "name": "_withUpdate",
          "type": "bool"
        }
      ],
      "name": "add",
      "outputs": [],
      "stateMutability": "nonpayable",
      "type": "function"
    },
    {
      "inputs": [
        {
          "internalType": "uint32",
          "name": "addSeconds",
          "type": "uint32"
        }
      ],
      "name": "changeEndTime",
      "outputs": [],
      "stateMutability": "nonpayable",
      "type": "function"
    },
    {
      "inputs": [
        {
          "internalType": "uint256",
          "name": "_amount",
          "type": "uint256"
        }
      ],
      "name": "collect",
      "outputs": [],
      "stateMutability": "nonpayable",
      "type": "function"
    },
    {
      "inputs": [
        {
          "internalType": "uint256",
          "name": "_pid",
          "type": "uint256"
        },
        {
          "internalType": "uint256",
          "name": "_amount",
          "type": "uint256"
        }
      ],
      "name": "deposit",
      "outputs": [],
      "stateMutability": "nonpayable",
      "type": "function"
    },
    {
      "inputs": [
        {
          "internalType": "uint256",
          "name": "_pid",
          "type": "uint256"
        }
      ],
      "name": "emergencyWithdraw",
      "outputs": [],
      "stateMutability": "nonpayable",
      "type": "function"
    },
    {
      "inputs": [],
      "name": "endTime",
      "outputs": [
        {
          "internalType": "uint32",
          "name": "",
          "type": "uint32"
        }
      ],
      "stateMutability": "view",
      "type": "function"
    },
    {
      "inputs": [],
      "name": "feeReceiver",
      "outputs": [
        {
          "internalType": "address",
          "name": "",
          "type": "address"
        }
      ],
      "stateMutability": "view",
      "type": "function"
    },
    {
      "inputs": [
        {
          "internalType": "uint256",
          "name": "_from",
          "type": "uint256"
        },
        {
          "internalType": "uint256",
          "name": "_to",
          "type": "uint256"
        }
      ],
      "name": "getMultiplier",
      "outputs": [
        {
          "internalType": "uint256",
          "name": "",
          "type": "uint256"
        }
      ],
      "stateMutability": "view",
      "type": "function"
    },
    {
      "inputs": [],
      "name": "harvestFee",
      "outputs": [
        {
          "internalType": "uint256",
          "name": "",
          "type": "uint256"
        }
      ],
      "stateMutability": "view",
      "type": "function"
    },
    {
      "inputs": [],
      "name": "ifusd",
      "outputs": [
        {
          "internalType": "contract IERC20",
          "name": "",
          "type": "address"
        }
      ],
      "stateMutability": "view",
      "type": "function"
    },
    {
      "inputs": [],
      "name": "massUpdatePools",
      "outputs": [],
      "stateMutability": "nonpayable",
      "type": "function"
    },
    {
      "inputs": [],
      "name": "owner",
      "outputs": [
        {
          "internalType": "address",
          "name": "",
          "type": "address"
        }
      ],
      "stateMutability": "view",
      "type": "function"
    },
    {
      "inputs": [
        {
          "internalType": "uint256",
          "name": "_pid",
          "type": "uint256"
        },
        {
          "internalType": "address",
          "name": "_user",
          "type": "address"
        }
      ],
      "name": "pendingSteak",
      "outputs": [
        {
          "internalType": "uint256",
          "name": "",
          "type": "uint256"
        }
      ],
      "stateMutability": "view",
      "type": "function"
    },
    {
      "inputs": [
        {
          "internalType": "uint256",
          "name": "",
          "type": "uint256"
        }
      ],
      "name": "poolInfo",
      "outputs": [
        {
          "internalType": "contract IERC20",
          "name": "stakingToken",
          "type": "address"
        },
        {
          "internalType": "uint256",
          "name": "stakingTokenTotalAmount",
          "type": "uint256"
        },
        {
          "internalType": "uint256",
          "name": "accSteakPerShare",
          "type": "uint256"
        },
        {
          "internalType": "uint32",
          "name": "lastRewardTime",
          "type": "uint32"
        },
        {
          "internalType": "uint16",
          "name": "allocPoint",
          "type": "uint16"
        }
      ],
      "stateMutability": "view",
      "type": "function"
    },
    {
      "inputs": [],
      "name": "poolLength",
      "outputs": [
        {
          "internalType": "uint256",
          "name": "",
          "type": "uint256"
        }
      ],
      "stateMutability": "view",
      "type": "function"
    },
    {
      "inputs": [],
      "name": "renounceOwnership",
      "outputs": [],
      "stateMutability": "nonpayable",
      "type": "function"
    },
    {
      "inputs": [
        {
          "internalType": "uint256",
          "name": "_pid",
          "type": "uint256"
        },
        {
          "internalType": "uint16",
          "name": "_allocPoint",
          "type": "uint16"
        },
        {
          "internalType": "bool",
          "name": "_withUpdate",
          "type": "bool"
        }
      ],
      "name": "set",
      "outputs": [],
      "stateMutability": "nonpayable",
      "type": "function"
    },
    {
      "inputs": [
        {
          "internalType": "address",
          "name": "_feeReceiver",
          "type": "address"
        }
      ],
      "name": "setFeeReceiver",
      "outputs": [],
      "stateMutability": "nonpayable",
      "type": "function"
    },
    {
      "inputs": [
        {
          "internalType": "uint256",
          "name": "_harvestFee",
          "type": "uint256"
        }
      ],
      "name": "setHarvestFee",
      "outputs": [],
      "stateMutability": "nonpayable",
      "type": "function"
    },
    {
      "inputs": [
        {
          "internalType": "uint256",
          "name": "_steakPerSecond",
          "type": "uint256"
        },
        {
          "internalType": "bool",
          "name": "_withUpdate",
          "type": "bool"
        }
      ],
      "name": "setSteakPerSecond",
      "outputs": [],
      "stateMutability": "nonpayable",
      "type": "function"
    },
    {
      "inputs": [
        {
          "internalType": "uint256",
          "name": "_withdrawFee",
          "type": "uint256"
        }
      ],
      "name": "setWithdrawFee",
      "outputs": [],
      "stateMutability": "nonpayable",
      "type": "function"
    },
    {
      "inputs": [],
      "name": "startTime",
      "outputs": [
        {
          "internalType": "uint32",
          "name": "",
          "type": "uint32"
        }
      ],
      "stateMutability": "view",
      "type": "function"
    },
    {
      "inputs": [],
      "name": "steak",
      "outputs": [
        {
          "internalType": "contract IERC20",
          "name": "",
          "type": "address"
        }
      ],
      "stateMutability": "view",
      "type": "function"
    },
    {
      "inputs": [],
      "name": "steakPerSecond",
      "outputs": [
        {
          "internalType": "uint256",
          "name": "",
          "type": "uint256"
        }
      ],
      "stateMutability": "view",
      "type": "function"
    },
    {
      "inputs": [],
      "name": "totalAllocPoint",
      "outputs": [
        {
          "internalType": "uint256",
          "name": "",
          "type": "uint256"
        }
      ],
      "stateMutability": "view",
      "type": "function"
    },
    {
      "inputs": [
        {
          "internalType": "address",
          "name": "newOwner",
          "type": "address"
        }
      ],
      "name": "transferOwnership",
      "outputs": [],
      "stateMutability": "nonpayable",
      "type": "function"
    },
    {
      "inputs": [
        {
          "internalType": "uint256",
          "name": "_pid",
          "type": "uint256"
        }
      ],
      "name": "updatePool",
      "outputs": [],
      "stateMutability": "nonpayable",
      "type": "function"
    },
    {
      "inputs": [
        {
          "internalType": "uint256",
          "name": "",
          "type": "uint256"
        },
        {
          "internalType": "address",
          "name": "",
          "type": "address"
        }
      ],
      "name": "userInfo",
      "outputs": [
        {
          "internalType": "uint256",
          "name": "amount",
          "type": "uint256"
        },
        {
          "internalType": "uint256",
          "name": "rewardDebt",
          "type": "uint256"
        },
        {
          "internalType": "uint256",
          "name": "remainingSteakTokenReward",
          "type": "uint256"
        }
      ],
      "stateMutability": "view",
      "type": "function"
    },
    {
      "inputs": [
        {
          "internalType": "uint256",
          "name": "_pid",
          "type": "uint256"
        },
        {
          "internalType": "uint256",
          "name": "_amount",
          "type": "uint256"
        }
      ],
      "name": "withdraw",
      "outputs": [],
      "stateMutability": "nonpayable",
      "type": "function"
    },
    {
      "inputs": [],
      "name": "withdrawFee",
      "outputs": [
        {
          "internalType": "uint256",
          "name": "",
          "type": "uint256"
        }
      ],
      "stateMutability": "view",
      "type": "function"
    }
  ],
  "bytecode": "0x60e060405261138860025562030d406003556200001b6200012b565b600480546001600160a01b0319166001600160a01b039290921691909117905560006007553480156200004d57600080fd5b50604051620021653803806200216583398101604081905262000070916200015b565b60006200007c6200013a565b600080546001600160a01b0319166001600160a01b0383169081178255604051929350917f8be0079c531659141344cd1fd0a4f28419497f9722a3daafe3b4186f6b6457e0908290a3506001600160601b0319606085811b821660805284901b1660a05260018290556001600160e01b031960e082901b1660c052620001068162278d00620001b7565b6008805463ffffffff191663ffffffff9290921691909117905550620001ec92505050565b6000546001600160a01b031690565b3390565b80516001600160a01b03811681146200015657600080fd5b919050565b6000806000806080858703121562000171578384fd5b6200017c856200013e565b93506200018c602086016200013e565b925060408501519150606085015163ffffffff81168114620001ac578182fd5b939692955090935050565b600063ffffffff808316818516808303821115620001e357634e487b7160e01b84526011600452602484fd5b01949350505050565b60805160601c60a05160601c60c05160e01c611eec6200027960003960008181610a0d01528181610a8c01528181610ab901528181610afb01528181610bdf0152610c0c0152600081816109e901526111fb01526000818161093901528181610ef601528181610fb20152818161149f015281816115a2015281816115e3015261162e0152611eec6000f3fe608060405234801561001057600080fd5b50600436106101da5760003560e01c80638da5cb5b11610104578063c64048f9116100a2578063e2bbb15811610071578063e2bbb1581461039b578063e941fa78146103ae578063efdcd974146103b6578063f2fde38b146103c9576101da565b8063c64048f91461034f578063ce3f865f14610362578063cf42947b14610375578063d1c1b4a814610388576101da565b806398ec8da6116100de57806398ec8da614610319578063b3f006741461032c578063b596291714610334578063b6ac642a1461033c576101da565b80638da5cb5b146102dc5780638dbb1e3a146102e457806393f1a40b146102f7576101da565b806351eb05a61161017c578063715018a61161014b578063715018a6146102b157806376b8fcfc146102b957806378e97925146102c1578063792b55b6146102c9576101da565b806351eb05a61461026e5780635312ea8e14610281578063630b5ba1146102945780636f1903151461029c576101da565b80631e0c3abf116101b85780631e0c3abf146102295780631fb3b6241461023c5780633197cbb614610244578063441a3e7014610259576101da565b8063081e3eda146101df5780631526fe27146101fd57806317caf6f114610221575b600080fd5b6101e76103dc565b6040516101f49190611d70565b60405180910390f35b61021061020b36600461195e565b6103e2565b6040516101f4959493929190611ab7565b6101e761043a565b6101e761023736600461198e565b610440565b6101e761058e565b61024c610594565b6040516101f49190611d8f565b61026c610267366004611a05565b6105a0565b005b61026c61027c36600461195e565b61072c565b61026c61028f36600461195e565b61084a565b61026c61090c565b6102a4610937565b6040516101f49190611a66565b61026c61095b565b6102a46109e7565b61024c610a0b565b61026c6102d736600461195e565b610a2f565b6102a4610a79565b6101e76102f2366004611a05565b610a88565b61030a61030536600461198e565b610b6c565b6040516101f493929190611d79565b61026c610327366004611916565b610b98565b6102a4610dac565b6101e7610dbb565b61026c61034a36600461195e565b610dc1565b61026c61035d3660046119bd565b610e0a565b61026c61037036600461195e565b610e53565b61026c610383366004611a26565b610fd9565b61026c6103963660046119e1565b61104a565b61026c6103a9366004611a05565b611142565b6101e761136d565b61026c6103c43660046118de565b611373565b61026c6103d73660046118de565b6113d7565b60055490565b600581815481106103f257600080fd5b600091825260209091206004909102018054600182015460028301546003909301546001600160a01b039092169350919063ffffffff811690640100000000900461ffff1685565b60075481565b6000806005848154811061046457634e487b7160e01b600052603260045260246000fd5b600091825260208083208784526006825260408085206001600160a01b03891686529092529220600260049092029092019081015460038201549193509063ffffffff16421180156104b95750600183015415155b156105465760038301546000906104d69063ffffffff1642610a88565b905060006007548560030160049054906101000a900461ffff1661ffff16600154846105029190611e00565b61050c9190611e00565b6105169190611de0565b600186015490915061052d8264e8d4a51000611e00565b6105379190611de0565b6105419084611da0565b925050505b60028201546001830154835464e8d4a5100090610564908590611e00565b61056e9190611de0565b6105789190611e1f565b6105829190611da0565b93505050505b92915050565b60015481565b60085463ffffffff1681565b6000600583815481106105c357634e487b7160e01b600052603260045260246000fd5b6000918252602080832086845260068252604080852033865290925292208054600490920290920192508311156106155760405162461bcd60e51b815260040161060c90611bb6565b60405180910390fd5b61061e8461072c565b60008160020154826001015464e8d4a51000856002015485600001546106449190611e00565b61064e9190611de0565b6106589190611e1f565b6106629190611da0565b905061066e338261149a565b6002830155815484908390600090610687908490611e1f565b92505081905550838360010160008282546106a29190611e1f565b90915550506002830154825464e8d4a51000916106be91611e00565b6106c89190611de0565b600183015582546106e3906001600160a01b03163386611670565b84336001600160a01b03167ff279e6a1f5e320cca91135676d9cb6e44ca8a08c0b88342bcdb1144f6511b5688660405161071d9190611d70565b60405180910390a35050505050565b60006005828154811061074f57634e487b7160e01b600052603260045260246000fd5b60009182526020909120600490910201600381015490915063ffffffff1642116107795750610847565b600181015461079d57600301805463ffffffff19164263ffffffff16179055610847565b60038101546000906107b59063ffffffff1642610a88565b905060006007548360030160049054906101000a900461ffff1661ffff16600154846107e19190611e00565b6107eb9190611e00565b6107f59190611de0565b600184015490915061080c8264e8d4a51000611e00565b6108169190611de0565b8360020160008282546108299190611da0565b90915550505050600301805463ffffffff19164263ffffffff161790555b50565b60006005828154811061086d57634e487b7160e01b600052603260045260246000fd5b600091825260208083208584526006825260408085203380875293528420805485825560018201869055600282019590955560049093020180549094509192916108c4916001600160a01b03919091169083611670565b83336001600160a01b03167fbb757047c2b5f3974fe26b7c10f732e7bce710b0952a71082702781e62ae0595836040516108fe9190611d70565b60405180910390a350505050565b60055460005b81811015610933576109238161072c565b61092c81611e62565b9050610912565b5050565b7f000000000000000000000000000000000000000000000000000000000000000081565b6109636116f8565b6000546001600160a01b039081169116146109905760405162461bcd60e51b815260040161060c90611c70565b600080546040516001600160a01b03909116907f8be0079c531659141344cd1fd0a4f28419497f9722a3daafe3b4186f6b6457e0908390a36000805473ffffffffffffffffffffffffffffffffffffffff19169055565b7f000000000000000000000000000000000000000000000000000000000000000081565b7f000000000000000000000000000000000000000000000000000000000000000081565b610a376116f8565b6000546001600160a01b03908116911614610a645760405162461bcd60e51b815260040161060c90611c70565b620f4240811115610a7457600080fd5b600355565b6000546001600160a01b031690565b60007f000000000000000000000000000000000000000000000000000000000000000063ffffffff168311610ae3577f000000000000000000000000000000000000000000000000000000000000000063ffffffff16610ae5565b825b60085490935063ffffffff16831180610b2357507f000000000000000000000000000000000000000000000000000000000000000063ffffffff1682105b15610b3057506000610588565b60085463ffffffff16821115610b5b57600854610b5490849063ffffffff16611e1f565b9050610588565b610b658383611e1f565b9392505050565b600660209081526000928352604080842090915290825290208054600182015460029092015490919083565b610ba06116f8565b6000546001600160a01b03908116911614610bcd5760405162461bcd60e51b815260040161060c90611c70565b8015610bdb57610bdb61090c565b60007f000000000000000000000000000000000000000000000000000000000000000063ffffffff164211610c36577f000000000000000000000000000000000000000000000000000000000000000063ffffffff16610c38565b425b90508361ffff1660076000828254610c509190611da0565b90915550506040805160a0810182526001600160a01b03948516815260006020820181815292820181815263ffffffff9485166060840190815261ffff9889166080850190815260058054600181018255945293517f036b6384b5eca791c62761152d0c79bb0604c104a5fb6f4eb0703f3154bb3db06004909402938401805473ffffffffffffffffffffffffffffffffffffffff1916919099161790975592517f036b6384b5eca791c62761152d0c79bb0604c104a5fb6f4eb0703f3154bb3db182015591517f036b6384b5eca791c62761152d0c79bb0604c104a5fb6f4eb0703f3154bb3db283015593517f036b6384b5eca791c62761152d0c79bb0604c104a5fb6f4eb0703f3154bb3db39091018054945163ffffffff1990951691909216177fffffffffffffffffffffffffffffffffffffffffffffffffffff0000ffffffff16640100000000939094169290920292909217905550565b6004546001600160a01b031681565b60035481565b610dc96116f8565b6000546001600160a01b03908116911614610df65760405162461bcd60e51b815260040161060c90611c70565b61c350811115610e0557600080fd5b600255565b610e126116f8565b6000546001600160a01b03908116911614610e3f5760405162461bcd60e51b815260040161060c90611c70565b8015610e4d57610e4d61090c565b50600155565b610e5b6116f8565b6000546001600160a01b03908116911614610e885760405162461bcd60e51b815260040161060c90611c70565b600854610e9e9063ffffffff1662093a80611db8565b63ffffffff16421015610ec35760405162461bcd60e51b815260040161060c90611b7f565b6040517f70a082310000000000000000000000000000000000000000000000000000000081526000906001600160a01b037f000000000000000000000000000000000000000000000000000000000000000016906370a0823190610f2b903090600401611a66565b60206040518083038186803b158015610f4357600080fd5b505afa158015610f57573d6000803e3d6000fd5b505050506040513d601f19601f82011682018060405250810190610f7b9190611976565b905080821115610f9d5760405162461bcd60e51b815260040161060c90611ca5565b610933610fa8610a79565b6001600160a01b037f0000000000000000000000000000000000000000000000000000000000000000169084611670565b610fe16116f8565b6000546001600160a01b0390811691161461100e5760405162461bcd60e51b815260040161060c90611c70565b6008805482919060009061102990849063ffffffff16611db8565b92506101000a81548163ffffffff021916908363ffffffff16021790555050565b6110526116f8565b6000546001600160a01b0390811691161461107f5760405162461bcd60e51b815260040161060c90611c70565b801561108d5761108d61090c565b8161ffff16600584815481106110b357634e487b7160e01b600052603260045260246000fd5b60009182526020909120600490910201600301546007546110e091640100000000900461ffff1690611e1f565b6110ea9190611da0565b600781905550816005848154811061111257634e487b7160e01b600052603260045260246000fd5b906000526020600020906004020160030160046101000a81548161ffff021916908361ffff160217905550505050565b60006005838154811061116557634e487b7160e01b600052603260045260246000fd5b600091825260208083208684526006825260408085203386529092529220600490910290910191506111968461072c565b8054156111f45760008160020154826001015464e8d4a51000856002015485600001546111c39190611e00565b6111cd9190611de0565b6111d79190611e1f565b6111e19190611da0565b90506111ed338261149a565b6002830155505b81546000907f00000000000000000000000000000000000000000000000000000000000000006001600160a01b0390811691161461124b57620f42406002548561123e9190611e00565b6112489190611de0565b90505b8254611262906001600160a01b03163330876116fc565b61127f61126d610a79565b84546001600160a01b03169083611670565b600061128b8286611e1f565b9050808360000160008282546112a19190611da0565b92505081905550808460010160008282546112bc9190611da0565b90915550506002840154835464e8d4a51000916112d891611e00565b6112e29190611de0565b6001840155604051869033907f90890809c654f11d6e72a28fa60149770a0d11ec6c92319d6ceb2bb0a4ea1a159061131b908590611d70565b60405180910390a385336001600160a01b03167f108516ddcf5ba43cea6bb2cd5ff6d59ac196c1c86ccb9178332b9dd72d1ca5618460405161135d9190611d70565b60405180910390a3505050505050565b60025481565b61137b6116f8565b6000546001600160a01b039081169116146113a85760405162461bcd60e51b815260040161060c90611c70565b6004805473ffffffffffffffffffffffffffffffffffffffff19166001600160a01b0392909216919091179055565b6113df6116f8565b6000546001600160a01b0390811691161461140c5760405162461bcd60e51b815260040161060c90611c70565b6001600160a01b0381166114325760405162461bcd60e51b815260040161060c90611b22565b600080546040516001600160a01b03808516939216917f8be0079c531659141344cd1fd0a4f28419497f9722a3daafe3b4186f6b6457e091a36000805473ffffffffffffffffffffffffffffffffffffffff19166001600160a01b0392909216919091179055565b6000807f00000000000000000000000000000000000000000000000000000000000000006001600160a01b03166370a08231306040518263ffffffff1660e01b81526004016114e99190611a66565b60206040518083038186803b15801561150157600080fd5b505afa158015611515573d6000803e3d6000fd5b505050506040513d601f19601f820116820180604052508101906115399190611976565b90506000620f42406003548561154f9190611e00565b6115599190611de0565b90508161156a578392505050610588565b8184111561161d57620f4240600354836115849190611e00565b61158e9190611de0565b6004549091506115cb906001600160a01b037f00000000000000000000000000000000000000000000000000000000000000008116911683611670565b61160a856115d98385611e1f565b6001600160a01b037f0000000000000000000000000000000000000000000000000000000000000000169190611670565b6116148285611e1f565b92505050610588565b600454611657906001600160a01b037f00000000000000000000000000000000000000000000000000000000000000008116911683611670565b611665856115d98387611e1f565b506000949350505050565b6116f38363a9059cbb60e01b848460405160240161168f929190611a9e565b60408051601f198184030181529190526020810180517bffffffffffffffffffffffffffffffffffffffffffffffffffffffff167fffffffff0000000000000000000000000000000000000000000000000000000090931692909217909152611723565b505050565b3390565b61171d846323b872dd60e01b85858560405160240161168f93929190611a7a565b50505050565b6000611778826040518060400160405280602081526020017f5361666545524332303a206c6f772d6c6576656c2063616c6c206661696c6564815250856001600160a01b03166117b29092919063ffffffff16565b8051909150156116f3578080602001905181019061179691906118fa565b6116f35760405162461bcd60e51b815260040161060c90611d13565b60606117c184846000856117c9565b949350505050565b6060824710156117eb5760405162461bcd60e51b815260040161060c90611c13565b6117f485611889565b6118105760405162461bcd60e51b815260040161060c90611cdc565b600080866001600160a01b0316858760405161182c9190611a4a565b60006040518083038185875af1925050503d8060008114611869576040519150601f19603f3d011682016040523d82523d6000602084013e61186e565b606091505b509150915061187e828286611893565b979650505050505050565b803b15155b919050565b606083156118a2575081610b65565b8251156118b25782518084602001fd5b8160405162461bcd60e51b815260040161060c9190611aef565b803561ffff8116811461188e57600080fd5b6000602082840312156118ef578081fd5b8135610b6581611e93565b60006020828403121561190b578081fd5b8151610b6581611ea8565b60008060006060848603121561192a578182fd5b611933846118cc565b9250602084013561194381611e93565b9150604084013561195381611ea8565b809150509250925092565b60006020828403121561196f578081fd5b5035919050565b600060208284031215611987578081fd5b5051919050565b600080604083850312156119a0578182fd5b8235915060208301356119b281611e93565b809150509250929050565b600080604083850312156119cf578182fd5b8235915060208301356119b281611ea8565b6000806000606084860312156119f5578283fd5b83359250611943602085016118cc565b60008060408385031215611a17578182fd5b50508035926020909101359150565b600060208284031215611a37578081fd5b813563ffffffff81168114610b65578182fd5b60008251611a5c818460208701611e36565b9190910192915050565b6001600160a01b0391909116815260200190565b6001600160a01b039384168152919092166020820152604081019190915260600190565b6001600160a01b03929092168252602082015260400190565b6001600160a01b039590951685526020850193909352604084019190915263ffffffff16606083015261ffff16608082015260a00190565b6000602082528251806020840152611b0e816040850160208701611e36565b601f01601f19169190910160400192915050565b60208082526026908201527f4f776e61626c653a206e6577206f776e657220697320746865207a65726f206160408201527f6464726573730000000000000000000000000000000000000000000000000000606082015260800190565b60208082526014908201527f746f6f206561726c7920746f20636f6c6c656374000000000000000000000000604082015260600190565b6020808252603f908201527f537465616b486f7573653a20616d6f756e7420746f207769746864726177206960408201527f732067726561746572207468616e20616d6f756e7420617661696c61626c6500606082015260800190565b60208082526026908201527f416464726573733a20696e73756666696369656e742062616c616e636520666f60408201527f722063616c6c0000000000000000000000000000000000000000000000000000606082015260800190565b6020808252818101527f4f776e61626c653a2063616c6c6572206973206e6f7420746865206f776e6572604082015260600190565b60208082526014908201527f7769746864726177696e6720746f6f206d756368000000000000000000000000604082015260600190565b6020808252601d908201527f416464726573733a2063616c6c20746f206e6f6e2d636f6e7472616374000000604082015260600190565b6020808252602a908201527f5361666545524332303a204552433230206f7065726174696f6e20646964206e60408201527f6f74207375636365656400000000000000000000000000000000000000000000606082015260800190565b90815260200190565b9283526020830191909152604082015260600190565b63ffffffff91909116815260200190565b60008219821115611db357611db3611e7d565b500190565b600063ffffffff808316818516808303821115611dd757611dd7611e7d565b01949350505050565b600082611dfb57634e487b7160e01b81526012600452602481fd5b500490565b6000816000190483118215151615611e1a57611e1a611e7d565b500290565b600082821015611e3157611e31611e7d565b500390565b60005b83811015611e51578181015183820152602001611e39565b8381111561171d5750506000910152565b6000600019821415611e7657611e76611e7d565b5060010190565b634e487b7160e01b600052601160045260246000fd5b6001600160a01b038116811461084757600080fd5b801515811461084757600080fdfea2646970667358221220cc621feed7ea959948e46248b3a2dab9a6dafda5c22e018141000a2b1df20b7964736f6c63430008000033",
  "linkReferences": {},
  "deployedLinkReferences": {}
}