{
  "_format": "hh-sol-artifact-1",
  "contractName": "xSTEAK",
  "sourceName": "contracts/xSteak.sol",
  "abi": [
    {
      "inputs": [
        {
          "internalType": "contract IERC20",
          "name": "_steak",
          "type": "address"
        }
      ],
      "stateMutability": "nonpayable",
      "type": "constructor"
    },
    {
      "anonymous": false,
      "inputs": [
        {
          "indexed": true,
          "internalType": "address",
          "name": "owner",
          "type": "address"
        },
        {
          "indexed": true,
          "internalType": "address",
          "name": "spender",
          "type": "address"
        },
        {
          "indexed": false,
          "internalType": "uint256",
          "name": "value",
          "type": "uint256"
        }
      ],
      "name": "Approval",
      "type": "event"
    },
    {
      "anonymous": false,
      "inputs": [
        {
          "indexed": false,
          "internalType": "address",
          "name": "user",
          "type": "address"
        },
        {
          "indexed": false,
          "internalType": "uint256",
          "name": "_steak",
          "type": "uint256"
        }
      ],
      "name": "Deposit",
      "type": "event"
    },
    {
      "anonymous": false,
      "inputs": [
        {
          "indexed": true,
          "internalType": "address",
          "name": "previousOwner",
          "type": "address"
        },
        {
          "indexed": true,
          "internalType": "address",
          "name": "newOwner",
          "type": "address"
        }
      ],
      "name": "OwnershipTransferred",
      "type": "event"
    },
    {
      "anonymous": false,
      "inputs": [
        {
          "indexed": true,
          "internalType": "address",
          "name": "from",
          "type": "address"
        },
        {
          "indexed": true,
          "internalType": "address",
          "name": "to",
          "type": "address"
        },
        {
          "indexed": false,
          "internalType": "uint256",
          "name": "value",
          "type": "uint256"
        }
      ],
      "name": "Transfer",
      "type": "event"
    },
    {
      "anonymous": false,
      "inputs": [
        {
          "indexed": false,
          "internalType": "address",
          "name": "",
          "type": "address"
        },
        {
          "indexed": false,
          "internalType": "uint256",
          "name": "_shares",
          "type": "uint256"
        },
        {
          "indexed": false,
          "internalType": "uint256",
          "name": "_steak",
          "type": "uint256"
        }
      ],
      "name": "Withdraw",
      "type": "event"
    },
    {
      "inputs": [],
      "name": "DOMAIN_SEPARATOR",
      "outputs": [
        {
          "internalType": "bytes32",
          "name": "",
          "type": "bytes32"
        }
      ],
      "stateMutability": "view",
      "type": "function"
    },
    {
      "inputs": [
        {
          "internalType": "address",
          "name": "owner",
          "type": "address"
        },
        {
          "internalType": "address",
          "name": "spender",
          "type": "address"
        }
      ],
      "name": "allowance",
      "outputs": [
        {
          "internalType": "uint256",
          "name": "",
          "type": "uint256"
        }
      ],
      "stateMutability": "view",
      "type": "function"
    },
    {
      "inputs": [
        {
          "internalType": "address",
          "name": "spender",
          "type": "address"
        },
        {
          "internalType": "uint256",
          "name": "amount",
          "type": "uint256"
        }
      ],
      "name": "approve",
      "outputs": [
        {
          "internalType": "bool",
          "name": "",
          "type": "bool"
        }
      ],
      "stateMutability": "nonpayable",
      "type": "function"
    },
    {
      "inputs": [
        {
          "internalType": "address",
          "name": "account",
          "type": "address"
        }
      ],
      "name": "balanceOf",
      "outputs": [
        {
          "internalType": "uint256",
          "name": "",
          "type": "uint256"
        }
      ],
      "stateMutability": "view",
      "type": "function"
    },
    {
      "inputs": [
        {
          "internalType": "contract IERC20",
          "name": "_token",
          "type": "address"
        }
      ],
      "name": "collect",
      "outputs": [],
      "stateMutability": "nonpayable",
      "type": "function"
    },
    {
      "inputs": [],
      "name": "decimals",
      "outputs": [
        {
          "internalType": "uint8",
          "name": "",
          "type": "uint8"
        }
      ],
      "stateMutability": "view",
      "type": "function"
    },
    {
      "inputs": [
        {
          "internalType": "address",
          "name": "spender",
          "type": "address"
        },
        {
          "internalType": "uint256",
          "name": "subtractedValue",
          "type": "uint256"
        }
      ],
      "name": "decreaseAllowance",
      "outputs": [
        {
          "internalType": "bool",
          "name": "",
          "type": "bool"
        }
      ],
      "stateMutability": "nonpayable",
      "type": "function"
    },
    {
      "inputs": [
        {
          "internalType": "uint256",
          "name": "_amount",
          "type": "uint256"
        }
      ],
      "name": "deposit",
      "outputs": [],
      "stateMutability": "nonpayable",
      "type": "function"
    },
    {
      "inputs": [
        {
          "internalType": "uint256",
          "name": "_amount",
          "type": "uint256"
        },
        {
          "components": [
            {
              "internalType": "address",
              "name": "owner",
              "type": "address"
            },
            {
              "internalType": "address",
              "name": "spender",
              "type": "address"
            },
            {
              "internalType": "uint256",
              "name": "amount",
              "type": "uint256"
            },
            {
              "internalType": "uint256",
              "name": "deadline",
              "type": "uint256"
            },
            {
              "internalType": "uint8",
              "name": "v",
              "type": "uint8"
            },
            {
              "internalType": "bytes32",
              "name": "r",
              "type": "bytes32"
            },
            {
              "internalType": "bytes32",
              "name": "s",
              "type": "bytes32"
            }
          ],
          "internalType": "struct IxSTEAK.Permit",
          "name": "permit",
          "type": "tuple"
        }
      ],
      "name": "depositWithPermit",
      "outputs": [],
      "stateMutability": "nonpayable",
      "type": "function"
    },
    {
      "inputs": [],
      "name": "getShareValue",
      "outputs": [
        {
          "internalType": "uint256",
          "name": "",
          "type": "uint256"
        }
      ],
      "stateMutability": "view",
      "type": "function"
    },
    {
      "inputs": [
        {
          "internalType": "address",
          "name": "spender",
          "type": "address"
        },
        {
          "internalType": "uint256",
          "name": "addedValue",
          "type": "uint256"
        }
      ],
      "name": "increaseAllowance",
      "outputs": [
        {
          "internalType": "bool",
          "name": "",
          "type": "bool"
        }
      ],
      "stateMutability": "nonpayable",
      "type": "function"
    },
    {
      "inputs": [],
      "name": "name",
      "outputs": [
        {
          "internalType": "string",
          "name": "",
          "type": "string"
        }
      ],
      "stateMutability": "view",
      "type": "function"
    },
    {
      "inputs": [
        {
          "internalType": "address",
          "name": "owner",
          "type": "address"
        }
      ],
      "name": "nonces",
      "outputs": [
        {
          "internalType": "uint256",
          "name": "",
          "type": "uint256"
        }
      ],
      "stateMutability": "view",
      "type": "function"
    },
    {
      "inputs": [],
      "name": "owner",
      "outputs": [
        {
          "internalType": "address",
          "name": "",
          "type": "address"
        }
      ],
      "stateMutability": "view",
      "type": "function"
    },
    {
      "inputs": [
        {
          "internalType": "address",
          "name": "owner",
          "type": "address"
        },
        {
          "internalType": "address",
          "name": "spender",
          "type": "address"
        },
        {
          "internalType": "uint256",
          "name": "value",
          "type": "uint256"
        },
        {
          "internalType": "uint256",
          "name": "deadline",
          "type": "uint256"
        },
        {
          "internalType": "uint8",
          "name": "v",
          "type": "uint8"
        },
        {
          "internalType": "bytes32",
          "name": "r",
          "type": "bytes32"
        },
        {
          "internalType": "bytes32",
          "name": "s",
          "type": "bytes32"
        }
      ],
      "name": "permit",
      "outputs": [],
      "stateMutability": "nonpayable",
      "type": "function"
    },
    {
      "inputs": [],
      "name": "renounceOwnership",
      "outputs": [],
      "stateMutability": "nonpayable",
      "type": "function"
    },
    {
      "inputs": [],
      "name": "steak",
      "outputs": [
        {
          "internalType": "contract IERC20",
          "name": "",
          "type": "address"
        }
      ],
      "stateMutability": "view",
      "type": "function"
    },
    {
      "inputs": [],
      "name": "symbol",
      "outputs": [
        {
          "internalType": "string",
          "name": "",
          "type": "string"
        }
      ],
      "stateMutability": "view",
      "type": "function"
    },
    {
      "inputs": [],
      "name": "totalSupply",
      "outputs": [
        {
          "internalType": "uint256",
          "name": "",
          "type": "uint256"
        }
      ],
      "stateMutability": "view",
      "type": "function"
    },
    {
      "inputs": [
        {
          "internalType": "address",
          "name": "recipient",
          "type": "address"
        },
        {
          "internalType": "uint256",
          "name": "amount",
          "type": "uint256"
        }
      ],
      "name": "transfer",
      "outputs": [
        {
          "internalType": "bool",
          "name": "",
          "type": "bool"
        }
      ],
      "stateMutability": "nonpayable",
      "type": "function"
    },
    {
      "inputs": [
        {
          "internalType": "address",
          "name": "sender",
          "type": "address"
        },
        {
          "internalType": "address",
          "name": "recipient",
          "type": "address"
        },
        {
          "internalType": "uint256",
          "name": "amount",
          "type": "uint256"
        }
      ],
      "name": "transferFrom",
      "outputs": [
        {
          "internalType": "bool",
          "name": "",
          "type": "bool"
        }
      ],
      "stateMutability": "nonpayable",
      "type": "function"
    },
    {
      "inputs": [
        {
          "internalType": "address",
          "name": "newOwner",
          "type": "address"
        }
      ],
      "name": "transferOwnership",
      "outputs": [],
      "stateMutability": "nonpayable",
      "type": "function"
    },
    {
      "inputs": [
        {
          "internalType": "uint256",
          "name": "_share",
          "type": "uint256"
        }
      ],
      "name": "withdraw",
      "outputs": [],
      "stateMutability": "nonpayable",
      "type": "function"
    }
  ],
  "bytecode": "0x6101606040527f6e71edae12b1b97f4d1f60370fef10105fa2faae0126114a169c64845d6126c9610120523480156200003757600080fd5b50604051620023c4380380620023c48339810160408190526200005a91620002bb565b6040518060400160405280600681526020016578535445414b60d01b81525080604051806040016040528060018152602001603160f81b8152506040518060400160405280600681526020016578535445414b60d01b8152506040518060400160405280600681526020016578535445414b60d01b8152508160039080519060200190620000ea92919062000215565b5080516200010090600490602084019062000215565b5050825160208085019190912083519184019190912060c082905260e08190524660a0529091507f8b73c3c69bb8fe3d512ecc4cf759cc79239f7b179b0ffacaa9a75d522b39400f62000155818484620001d5565b60805261010052506000935062000170925050620002119050565b600680546001600160a01b0319166001600160a01b038316908117909155604051919250906000907f8be0079c531659141344cd1fd0a4f28419497f9722a3daafe3b4186f6b6457e0908290a35060601b6001600160601b0319166101405262000354565b60008383834630604051602001620001f2959493929190620002eb565b6040516020818303038152906040528051906020012090509392505050565b3390565b828054620002239062000317565b90600052602060002090601f01602090048101928262000247576000855562000292565b82601f106200026257805160ff191683800117855562000292565b8280016001018555821562000292579182015b828111156200029257825182559160200191906001019062000275565b50620002a0929150620002a4565b5090565b5b80821115620002a05760008155600101620002a5565b600060208284031215620002cd578081fd5b81516001600160a01b0381168114620002e4578182fd5b9392505050565b9485526020850193909352604084019190915260608301526001600160a01b0316608082015260a00190565b6002810460018216806200032c57607f821691505b602082108114156200034e57634e487b7160e01b600052602260045260246000fd5b50919050565b60805160a05160c05160e05161010051610120516101405160601c611fe1620003e360003960008181610340015281816105a2015281816106760152818161073d01528181610844015281816108e701528181610a950152610b7901526000610bf6015260006110f60152600061113801526000611117015260006110a4015260006110cd0152611fe16000f3fe608060405234801561001057600080fd5b506004361061014d5760003560e01c80636f190315116100c3578063a457c2d71161007c578063a457c2d71461027e578063a9059cbb14610291578063b6b55f25146102a4578063d505accf146102b7578063dd62ed3e146102ca578063f2fde38b146102dd5761014d565b80636f1903151461022b57806370a0823114610240578063715018a6146102535780637ecebe001461025b5780638da5cb5b1461026e57806395d89b41146102765761014d565b8063255ae75011610115578063255ae750146101cd5780632e1a7d4d146101e0578063313ce567146101f35780633644e515146102085780633950935114610210578063437c3289146102235761014d565b806306ec16f81461015257806306fdde0314610167578063095ea7b31461018557806318160ddd146101a557806323b872dd146101ba575b600080fd5b6101656101603660046115b0565b6102f0565b005b61016f610449565b60405161017c91906118f9565b60405180910390f35b6101986101933660046116b1565b6104dc565b60405161017c9190611867565b6101ad6104f9565b60405161017c9190611872565b6101986101c8366004611604565b6104ff565b6101656101db36600461172c565b610598565b6101656101ee3660046116fc565b610665565b6101fb6107a4565b60405161017c9190611ea0565b6101ad6107a9565b61019861021e3660046116b1565b6107b8565b6101ad610807565b6102336108e5565b60405161017c91906117b4565b6101ad61024e3660046115b0565b610909565b610165610928565b6101ad6102693660046115b0565b6109a7565b6102336109ce565b61016f6109dd565b61019861028c3660046116b1565b6109ec565b61019861029f3660046116b1565b610a67565b6101656102b23660046116fc565b610a7b565b6101656102c5366004611644565b610bd2565b6101ad6102d83660046115cc565b610cb4565b6101656102eb3660046115b0565b610cdf565b6102f8610d96565b6006546001600160a01b0390811691161461032e5760405162461bcd60e51b815260040161032590611ca4565b60405180910390fd5b60006103386104f9565b1115610390577f00000000000000000000000000000000000000000000000000000000000000006001600160a01b0316816001600160a01b031614156103905760405162461bcd60e51b815260040161032590611bac565b6040516370a0823160e01b81526000906001600160a01b038316906370a08231906103bf9030906004016117b4565b60206040518083038186803b1580156103d757600080fd5b505afa1580156103eb573d6000803e3d6000fd5b505050506040513d601f19601f8201168201806040525081019061040f9190611714565b9050600081116104315760405162461bcd60e51b815260040161032590611a70565b6104456001600160a01b0383163383610d9a565b5050565b60606003805461045890611f48565b80601f016020809104026020016040519081016040528092919081815260200182805461048490611f48565b80156104d15780601f106104a6576101008083540402835291602001916104d1565b820191906000526020600020905b8154815290600101906020018083116104b457829003601f168201915b505050505090505b90565b60006104f06104e9610d96565b8484610df5565b50600192915050565b60025490565b600061050c848484610ea9565b6001600160a01b03841660009081526001602052604081208161052d610d96565b6001600160a01b03166001600160a01b03168152602001908152602001600020549050828110156105705760405162461bcd60e51b815260040161032590611c5c565b61058b8561057c610d96565b6105868685611f05565b610df5565b60019150505b9392505050565b6001600160a01b037f00000000000000000000000000000000000000000000000000000000000000001663d505accf6105d460208401846115b0565b6105e460408501602086016115b0565b604085013560608601356105fe60a0880160808901611763565b8760a001358860c001356040518863ffffffff1660e01b815260040161062a97969594939291906117ec565b600060405180830381600087803b15801561064457600080fd5b505af1158015610658573d6000803e3d6000fd5b5050505061044582610a7b565b600061066f6104f9565b90506000817f00000000000000000000000000000000000000000000000000000000000000006001600160a01b03166370a08231306040518263ffffffff1660e01b81526004016106c091906117b4565b60206040518083038186803b1580156106d857600080fd5b505afa1580156106ec573d6000803e3d6000fd5b505050506040513d601f19601f820116820180604052508101906107109190611714565b61071a9085611ee6565b6107249190611ec6565b90506107303384610fc6565b6107646001600160a01b037f0000000000000000000000000000000000000000000000000000000000000000163383610d9a565b7ff279e6a1f5e320cca91135676d9cb6e44ca8a08c0b88342bcdb1144f6511b56833848360405161079793929190611846565b60405180910390a1505050565b601290565b60006107b36110a0565b905090565b60006104f06107c5610d96565b8484600160006107d3610d96565b6001600160a01b03908116825260208083019390935260409182016000908120918b16815292529020546105869190611eae565b6000806108126104f9565b1161082557670de0b6b3a76400006107b3565b61082d6104f9565b6040516370a0823160e01b81526001600160a01b037f000000000000000000000000000000000000000000000000000000000000000016906370a08231906108799030906004016117b4565b60206040518083038186803b15801561089157600080fd5b505afa1580156108a5573d6000803e3d6000fd5b505050506040513d601f19601f820116820180604052508101906108c99190611714565b6108db90670de0b6b3a7640000611ee6565b6107b39190611ec6565b7f000000000000000000000000000000000000000000000000000000000000000081565b6001600160a01b0381166000908152602081905260409020545b919050565b610930610d96565b6006546001600160a01b0390811691161461095d5760405162461bcd60e51b815260040161032590611ca4565b6006546040516000916001600160a01b0316907f8be0079c531659141344cd1fd0a4f28419497f9722a3daafe3b4186f6b6457e0908390a3600680546001600160a01b0319169055565b6001600160a01b03811660009081526005602052604081206109c890611163565b92915050565b6006546001600160a01b031690565b60606004805461045890611f48565b600080600160006109fb610d96565b6001600160a01b0390811682526020808301939093526040918201600090812091881681529252902054905082811015610a475760405162461bcd60e51b815260040161032590611e24565b610a5d610a52610d96565b856105868685611f05565b5060019392505050565b60006104f0610a74610d96565b8484610ea9565b6040516370a0823160e01b81526000906001600160a01b037f000000000000000000000000000000000000000000000000000000000000000016906370a0823190610aca9030906004016117b4565b60206040518083038186803b158015610ae257600080fd5b505afa158015610af6573d6000803e3d6000fd5b505050506040513d601f19601f82011682018060405250810190610b1a9190611714565b90506000610b266104f9565b9050801580610b33575081155b15610b4757610b423384611167565b610b6c565b600082610b548386611ee6565b610b5e9190611ec6565b9050610b6a3382611167565b505b610ba16001600160a01b037f00000000000000000000000000000000000000000000000000000000000000001633308661121b565b7fe1fffcc4923d04b559f4d29a8bfc6cda04eb5b0d3c460751c2402c5c5cc9109c338460405161079792919061182d565b83421115610bf25760405162461bcd60e51b815260040161032590611aa7565b60007f0000000000000000000000000000000000000000000000000000000000000000888888610c218c611242565b89604051602001610c379695949392919061187b565b6040516020818303038152906040528051906020012090506000610c5a82611274565b90506000610c6a828787876112ad565b9050896001600160a01b0316816001600160a01b031614610c9d5760405162461bcd60e51b815260040161032590611c25565b610ca88a8a8a610df5565b50505050505050505050565b6001600160a01b03918216600090815260016020908152604080832093909416825291909152205490565b610ce7610d96565b6006546001600160a01b03908116911614610d145760405162461bcd60e51b815260040161032590611ca4565b6001600160a01b038116610d3a5760405162461bcd60e51b8152600401610325906119e8565b6006546040516001600160a01b038084169216907f8be0079c531659141344cd1fd0a4f28419497f9722a3daafe3b4186f6b6457e090600090a3600680546001600160a01b0319166001600160a01b0392909216919091179055565b3390565b610df08363a9059cbb60e01b8484604051602401610db992919061182d565b60408051601f198184030181529190526020810180516001600160e01b03166001600160e01b0319909316929092179091526113a3565b505050565b6001600160a01b038316610e1b5760405162461bcd60e51b815260040161032590611d5f565b6001600160a01b038216610e415760405162461bcd60e51b815260040161032590611a2e565b6001600160a01b0380841660008181526001602090815260408083209487168084529490915290819020849055517f8c5be1e5ebec7d5bd14f71427d1e84f3dd0314c0f7b2291e5b200ac8c7c3b92590610e9c908590611872565b60405180910390a3505050565b6001600160a01b038316610ecf5760405162461bcd60e51b815260040161032590611d1a565b6001600160a01b038216610ef55760405162461bcd60e51b815260040161032590611963565b6001600160a01b03831660009081526020819052604090205481811015610f2e5760405162461bcd60e51b815260040161032590611ade565b610f388282611f05565b6001600160a01b038086166000908152602081905260408082209390935590851681529081208054849290610f6e908490611eae565b92505081905550826001600160a01b0316846001600160a01b03167fddf252ad1be2c89b69c2b068fc378daa952ba7f163c4a11628f55a4df523b3ef84604051610fb89190611872565b60405180910390a350505050565b6001600160a01b038216610fec5760405162461bcd60e51b815260040161032590611cd9565b6001600160a01b038216600090815260208190526040902054818110156110255760405162461bcd60e51b8152600401610325906119a6565b61102f8282611f05565b6001600160a01b0384166000908152602081905260408120919091556002805484929061105d908490611f05565b90915550506040516000906001600160a01b038516907fddf252ad1be2c89b69c2b068fc378daa952ba7f163c4a11628f55a4df523b3ef90610e9c908690611872565b60007f00000000000000000000000000000000000000000000000000000000000000004614156110f157507f00000000000000000000000000000000000000000000000000000000000000006104d9565b61115c7f00000000000000000000000000000000000000000000000000000000000000007f00000000000000000000000000000000000000000000000000000000000000007f0000000000000000000000000000000000000000000000000000000000000000611432565b90506104d9565b5490565b6001600160a01b03821661118d5760405162461bcd60e51b815260040161032590611e69565b806002600082825461119f9190611eae565b90915550506001600160a01b038216600090815260208190526040812080548392906111cc908490611eae565b90915550506040516001600160a01b038316906000907fddf252ad1be2c89b69c2b068fc378daa952ba7f163c4a11628f55a4df523b3ef9061120f908590611872565b60405180910390a35050565b61123c846323b872dd60e01b858585604051602401610db9939291906117c8565b50505050565b6001600160a01b038116600090815260056020526040812061126381611163565b915061126e8161146c565b50919050565b600061127e6110a0565b82604051602001611290929190611799565b604051602081830303815290604052805190602001209050919050565b60007f7fffffffffffffffffffffffffffffff5d576e7357a4501ddfe92f46681b20a08211156112ef5760405162461bcd60e51b815260040161032590611b24565b8360ff16601b148061130457508360ff16601c145b6113205760405162461bcd60e51b815260040161032590611be3565b60006001868686866040516000815260200160405260405161134594939291906118db565b6020604051602081039080840390855afa158015611367573d6000803e3d6000fd5b5050604051601f1901519150506001600160a01b03811661139a5760405162461bcd60e51b81526004016103259061192c565b95945050505050565b60006113f8826040518060400160405280602081526020017f5361666545524332303a206c6f772d6c6576656c2063616c6c206661696c6564815250856001600160a01b03166114899092919063ffffffff16565b805190915015610df0578080602001905181019061141691906116dc565b610df05760405162461bcd60e51b815260040161032590611dda565b6000838383463060405160200161144d9594939291906118af565b6040516020818303038152906040528051906020012090509392505050565b60018160000160008282546114819190611eae565b909155505050565b606061149884846000856114a0565b949350505050565b6060824710156114c25760405162461bcd60e51b815260040161032590611b66565b6114cb85611560565b6114e75760405162461bcd60e51b815260040161032590611da3565b600080866001600160a01b03168587604051611503919061177d565b60006040518083038185875af1925050503d8060008114611540576040519150601f19603f3d011682016040523d82523d6000602084013e611545565b606091505b5091509150611555828286611566565b979650505050505050565b3b151590565b60608315611575575081610591565b8251156115855782518084602001fd5b8160405162461bcd60e51b815260040161032591906118f9565b803560ff8116811461092357600080fd5b6000602082840312156115c1578081fd5b813561059181611f93565b600080604083850312156115de578081fd5b82356115e981611f93565b915060208301356115f981611f93565b809150509250929050565b600080600060608486031215611618578081fd5b833561162381611f93565b9250602084013561163381611f93565b929592945050506040919091013590565b600080600080600080600060e0888a03121561165e578283fd5b873561166981611f93565b9650602088013561167981611f93565b955060408801359450606088013593506116956080890161159f565b925060a0880135915060c0880135905092959891949750929550565b600080604083850312156116c3578182fd5b82356116ce81611f93565b946020939093013593505050565b6000602082840312156116ed578081fd5b81518015158114610591578182fd5b60006020828403121561170d578081fd5b5035919050565b600060208284031215611725578081fd5b5051919050565b600080828403610100811215611740578283fd5b8335925060e0601f1982011215611755578182fd5b506020830190509250929050565b600060208284031215611774578081fd5b6105918261159f565b6000825161178f818460208701611f1c565b9190910192915050565b61190160f01b81526002810192909252602282015260420190565b6001600160a01b0391909116815260200190565b6001600160a01b039384168152919092166020820152604081019190915260600190565b6001600160a01b0397881681529590961660208601526040850193909352606084019190915260ff16608083015260a082015260c081019190915260e00190565b6001600160a01b03929092168252602082015260400190565b6001600160a01b039390931683526020830191909152604082015260600190565b901515815260200190565b90815260200190565b9586526001600160a01b0394851660208701529290931660408501526060840152608083019190915260a082015260c00190565b9485526020850193909352604084019190915260608301526001600160a01b0316608082015260a00190565b93845260ff9290921660208401526040830152606082015260800190565b6000602082528251806020840152611918816040850160208701611f1c565b601f01601f19169190910160400192915050565b60208082526018908201527f45434453413a20696e76616c6964207369676e61747572650000000000000000604082015260600190565b60208082526023908201527f45524332303a207472616e7366657220746f20746865207a65726f206164647260408201526265737360e81b606082015260800190565b60208082526022908201527f45524332303a206275726e20616d6f756e7420657863656564732062616c616e604082015261636560f01b606082015260800190565b60208082526026908201527f4f776e61626c653a206e6577206f776e657220697320746865207a65726f206160408201526564647265737360d01b606082015260800190565b60208082526022908201527f45524332303a20617070726f766520746f20746865207a65726f206164647265604082015261737360f01b606082015260800190565b6020808252601b908201527f78535445414b3a205f746f6b656e2062616c616e636520697320300000000000604082015260600190565b6020808252601d908201527f45524332305065726d69743a206578706972656420646561646c696e65000000604082015260600190565b60208082526026908201527f45524332303a207472616e7366657220616d6f756e7420657863656564732062604082015265616c616e636560d01b606082015260800190565b60208082526022908201527f45434453413a20696e76616c6964207369676e6174757265202773272076616c604082015261756560f01b606082015260800190565b60208082526026908201527f416464726573733a20696e73756666696369656e742062616c616e636520666f6040820152651c8818d85b1b60d21b606082015260800190565b6020808252601c908201527f78535445414b3a2063616e6e6f7420636f6c6c65637420535445414b00000000604082015260600190565b60208082526022908201527f45434453413a20696e76616c6964207369676e6174757265202776272076616c604082015261756560f01b606082015260800190565b6020808252601e908201527f45524332305065726d69743a20696e76616c6964207369676e61747572650000604082015260600190565b60208082526028908201527f45524332303a207472616e7366657220616d6f756e74206578636565647320616040820152676c6c6f77616e636560c01b606082015260800190565b6020808252818101527f4f776e61626c653a2063616c6c6572206973206e6f7420746865206f776e6572604082015260600190565b60208082526021908201527f45524332303a206275726e2066726f6d20746865207a65726f206164647265736040820152607360f81b606082015260800190565b60208082526025908201527f45524332303a207472616e736665722066726f6d20746865207a65726f206164604082015264647265737360d81b606082015260800190565b60208082526024908201527f45524332303a20617070726f76652066726f6d20746865207a65726f206164646040820152637265737360e01b606082015260800190565b6020808252601d908201527f416464726573733a2063616c6c20746f206e6f6e2d636f6e7472616374000000604082015260600190565b6020808252602a908201527f5361666545524332303a204552433230206f7065726174696f6e20646964206e6040820152691bdd081cdd58d8d9595960b21b606082015260800190565b60208082526025908201527f45524332303a2064656372656173656420616c6c6f77616e63652062656c6f77604082015264207a65726f60d81b606082015260800190565b6020808252601f908201527f45524332303a206d696e7420746f20746865207a65726f206164647265737300604082015260600190565b60ff91909116815260200190565b60008219821115611ec157611ec1611f7d565b500190565b600082611ee157634e487b7160e01b81526012600452602481fd5b500490565b6000816000190483118215151615611f0057611f00611f7d565b500290565b600082821015611f1757611f17611f7d565b500390565b60005b83811015611f37578181015183820152602001611f1f565b8381111561123c5750506000910152565b600281046001821680611f5c57607f821691505b6020821081141561126e57634e487b7160e01b600052602260045260246000fd5b634e487b7160e01b600052601160045260246000fd5b6001600160a01b0381168114611fa857600080fd5b5056fea2646970667358221220896b9cce0039be633f4b30aea19c4789315a1244c8c6d3ae76bd588b88ddda3464736f6c63430008000033",
  "linkReferences": {},
  "deployedLinkReferences": {}
}