{
  "_format": "hh-sol-artifact-1",
  "contractName": "SteakToken",
  "sourceName": "contracts/SteakToken.sol",
  "abi": [
    {
      "inputs": [],
      "stateMutability": "nonpayable",
      "type": "constructor"
    },
    {
      "anonymous": false,
      "inputs": [
        {
          "indexed": true,
          "internalType": "address",
          "name": "owner",
          "type": "address"
        },
        {
          "indexed": true,
          "internalType": "address",
          "name": "spender",
          "type": "address"
        },
        {
          "indexed": false,
          "internalType": "uint256",
          "name": "value",
          "type": "uint256"
        }
      ],
      "name": "Approval",
      "type": "event"
    },
    {
      "anonymous": false,
      "inputs": [
        {
          "indexed": true,
          "internalType": "address",
          "name": "previousOwner",
          "type": "address"
        },
        {
          "indexed": true,
          "internalType": "address",
          "name": "newOwner",
          "type": "address"
        }
      ],
      "name": "OwnershipTransferred",
      "type": "event"
    },
    {
      "anonymous": false,
      "inputs": [
        {
          "indexed": true,
          "internalType": "address",
          "name": "from",
          "type": "address"
        },
        {
          "indexed": true,
          "internalType": "address",
          "name": "to",
          "type": "address"
        },
        {
          "indexed": false,
          "internalType": "uint256",
          "name": "value",
          "type": "uint256"
        }
      ],
      "name": "Transfer",
      "type": "event"
    },
    {
      "inputs": [],
      "name": "DOMAIN_SEPARATOR",
      "outputs": [
        {
          "internalType": "bytes32",
          "name": "",
          "type": "bytes32"
        }
      ],
      "stateMutability": "view",
      "type": "function"
    },
    {
      "inputs": [
        {
          "internalType": "address",
          "name": "owner",
          "type": "address"
        },
        {
          "internalType": "address",
          "name": "spender",
          "type": "address"
        }
      ],
      "name": "allowance",
      "outputs": [
        {
          "internalType": "uint256",
          "name": "",
          "type": "uint256"
        }
      ],
      "stateMutability": "view",
      "type": "function"
    },
    {
      "inputs": [
        {
          "internalType": "address",
          "name": "spender",
          "type": "address"
        },
        {
          "internalType": "uint256",
          "name": "amount",
          "type": "uint256"
        }
      ],
      "name": "approve",
      "outputs": [
        {
          "internalType": "bool",
          "name": "",
          "type": "bool"
        }
      ],
      "stateMutability": "nonpayable",
      "type": "function"
    },
    {
      "inputs": [
        {
          "internalType": "address",
          "name": "account",
          "type": "address"
        }
      ],
      "name": "balanceOf",
      "outputs": [
        {
          "internalType": "uint256",
          "name": "",
          "type": "uint256"
        }
      ],
      "stateMutability": "view",
      "type": "function"
    },
    {
      "inputs": [
        {
          "internalType": "address",
          "name": "account",
          "type": "address"
        },
        {
          "internalType": "uint256",
          "name": "amount",
          "type": "uint256"
        }
      ],
      "name": "burn",
      "outputs": [],
      "stateMutability": "nonpayable",
      "type": "function"
    },
    {
      "inputs": [],
      "name": "decimals",
      "outputs": [
        {
          "internalType": "uint8",
          "name": "",
          "type": "uint8"
        }
      ],
      "stateMutability": "view",
      "type": "function"
    },
    {
      "inputs": [
        {
          "internalType": "address",
          "name": "spender",
          "type": "address"
        },
        {
          "internalType": "uint256",
          "name": "subtractedValue",
          "type": "uint256"
        }
      ],
      "name": "decreaseAllowance",
      "outputs": [
        {
          "internalType": "bool",
          "name": "",
          "type": "bool"
        }
      ],
      "stateMutability": "nonpayable",
      "type": "function"
    },
    {
      "inputs": [],
      "name": "getMaxTotalSupply",
      "outputs": [
        {
          "internalType": "uint256",
          "name": "",
          "type": "uint256"
        }
      ],
      "stateMutability": "view",
      "type": "function"
    },
    {
      "inputs": [
        {
          "internalType": "address",
          "name": "spender",
          "type": "address"
        },
        {
          "internalType": "uint256",
          "name": "addedValue",
          "type": "uint256"
        }
      ],
      "name": "increaseAllowance",
      "outputs": [
        {
          "internalType": "bool",
          "name": "",
          "type": "bool"
        }
      ],
      "stateMutability": "nonpayable",
      "type": "function"
    },
    {
      "inputs": [
        {
          "internalType": "address",
          "name": "account",
          "type": "address"
        },
        {
          "internalType": "uint256",
          "name": "amount",
          "type": "uint256"
        }
      ],
      "name": "mint",
      "outputs": [],
      "stateMutability": "nonpayable",
      "type": "function"
    },
    {
      "inputs": [],
      "name": "name",
      "outputs": [
        {
          "internalType": "string",
          "name": "",
          "type": "string"
        }
      ],
      "stateMutability": "view",
      "type": "function"
    },
    {
      "inputs": [
        {
          "internalType": "address",
          "name": "owner",
          "type": "address"
        }
      ],
      "name": "nonces",
      "outputs": [
        {
          "internalType": "uint256",
          "name": "",
          "type": "uint256"
        }
      ],
      "stateMutability": "view",
      "type": "function"
    },
    {
      "inputs": [],
      "name": "owner",
      "outputs": [
        {
          "internalType": "address",
          "name": "",
          "type": "address"
        }
      ],
      "stateMutability": "view",
      "type": "function"
    },
    {
      "inputs": [
        {
          "internalType": "address",
          "name": "owner",
          "type": "address"
        },
        {
          "internalType": "address",
          "name": "spender",
          "type": "address"
        },
        {
          "internalType": "uint256",
          "name": "value",
          "type": "uint256"
        },
        {
          "internalType": "uint256",
          "name": "deadline",
          "type": "uint256"
        },
        {
          "internalType": "uint8",
          "name": "v",
          "type": "uint8"
        },
        {
          "internalType": "bytes32",
          "name": "r",
          "type": "bytes32"
        },
        {
          "internalType": "bytes32",
          "name": "s",
          "type": "bytes32"
        }
      ],
      "name": "permit",
      "outputs": [],
      "stateMutability": "nonpayable",
      "type": "function"
    },
    {
      "inputs": [],
      "name": "renounceOwnership",
      "outputs": [],
      "stateMutability": "nonpayable",
      "type": "function"
    },
    {
      "inputs": [],
      "name": "symbol",
      "outputs": [
        {
          "internalType": "string",
          "name": "",
          "type": "string"
        }
      ],
      "stateMutability": "view",
      "type": "function"
    },
    {
      "inputs": [],
      "name": "totalSupply",
      "outputs": [
        {
          "internalType": "uint256",
          "name": "",
          "type": "uint256"
        }
      ],
      "stateMutability": "view",
      "type": "function"
    },
    {
      "inputs": [
        {
          "internalType": "address",
          "name": "recipient",
          "type": "address"
        },
        {
          "internalType": "uint256",
          "name": "amount",
          "type": "uint256"
        }
      ],
      "name": "transfer",
      "outputs": [
        {
          "internalType": "bool",
          "name": "",
          "type": "bool"
        }
      ],
      "stateMutability": "nonpayable",
      "type": "function"
    },
    {
      "inputs": [
        {
          "internalType": "address",
          "name": "sender",
          "type": "address"
        },
        {
          "internalType": "address",
          "name": "recipient",
          "type": "address"
        },
        {
          "internalType": "uint256",
          "name": "amount",
          "type": "uint256"
        }
      ],
      "name": "transferFrom",
      "outputs": [
        {
          "internalType": "bool",
          "name": "",
          "type": "bool"
        }
      ],
      "stateMutability": "nonpayable",
      "type": "function"
    },
    {
      "inputs": [
        {
          "internalType": "address",
          "name": "newOwner",
          "type": "address"
        }
      ],
      "name": "transferOwnership",
      "outputs": [],
      "stateMutability": "nonpayable",
      "type": "function"
    }
  ],
  "bytecode": "0x6101406040527f6e71edae12b1b97f4d1f60370fef10105fa2faae0126114a169c64845d6126c9610120526a0422ca8b0a00a4250000006007553480156200004657600080fd5b506040518060400160405280600a81526020016929ba32b0b5aa37b5b2b760b11b81525080604051806040016040528060018152602001603160f81b8152506040518060400160405280600a81526020016929ba32b0b5aa37b5b2b760b11b81525060405180604001604052806005815260200164535445414b60d81b8152508160039080519060200190620000de929190620001f8565b508051620000f4906004906020840190620001f8565b5050825160208085019190912083519184019190912060c082905260e08190524660a0529091507f8b73c3c69bb8fe3d512ecc4cf759cc79239f7b179b0ffacaa9a75d522b39400f62000149818484620001b8565b60805261010052506000935062000164925050620001f49050565b600680546001600160a01b0319166001600160a01b038316908117909155604051919250906000907f8be0079c531659141344cd1fd0a4f28419497f9722a3daafe3b4186f6b6457e0908290a35062000307565b60008383834630604051602001620001d59594939291906200029e565b6040516020818303038152906040528051906020012090509392505050565b3390565b8280546200020690620002ca565b90600052602060002090601f0160209004810192826200022a576000855562000275565b82601f106200024557805160ff191683800117855562000275565b8280016001018555821562000275579182015b828111156200027557825182559160200191906001019062000258565b506200028392915062000287565b5090565b5b8082111562000283576000815560010162000288565b9485526020850193909352604084019190915260608301526001600160a01b0316608082015260a00190565b600281046001821680620002df57607f821691505b602082108114156200030157634e487b7160e01b600052602260045260246000fd5b50919050565b60805160a05160c05160e05161010051610120516115c062000357600039600061067801526000610a4301526000610a8501526000610a64015260006109f101526000610a1a01526115c06000f3fe608060405234801561001057600080fd5b506004361061012c5760003560e01c8063715018a6116100ad578063a457c2d711610071578063a457c2d714610242578063a9059cbb14610255578063d505accf14610268578063dd62ed3e1461027b578063f2fde38b1461028e5761012c565b8063715018a6146101f75780637ecebe00146101ff5780638da5cb5b1461021257806395d89b41146102275780639dc29fac1461022f5761012c565b80633644e515116100f45780633644e515146101ac57806339509351146101b457806340c10f19146101c75780635db30bb1146101dc57806370a08231146101e45761012c565b806306fdde0314610131578063095ea7b31461014f57806318160ddd1461016f57806323b872dd14610184578063313ce56714610197575b600080fd5b6101396102a1565b6040516101469190611029565b60405180910390f35b61016261015d366004610f3f565b610334565b6040516101469190610f97565b610177610351565b6040516101469190610fa2565b610162610192366004610e93565b610357565b61019f6103f7565b6040516101469190611502565b6101776103fc565b6101626101c2366004610f3f565b61040b565b6101da6101d5366004610f3f565b61045a565b005b61017761049d565b6101776101f2366004610e40565b6104a3565b6101da6104c2565b61017761020d366004610e40565b610541565b61021a610568565b6040516101469190610f83565b610139610577565b6101da61023d366004610f3f565b610586565b610162610250366004610f3f565b6105c5565b610162610263366004610f3f565b610640565b6101da610276366004610ece565b610654565b610177610289366004610e61565b610736565b6101da61029c366004610e40565b610761565b6060600380546102b09061153f565b80601f01602080910402602001604051908101604052809291908181526020018280546102dc9061153f565b80156103295780601f106102fe57610100808354040283529160200191610329565b820191906000526020600020905b81548152906001019060200180831161030c57829003601f168201915b505050505090505b90565b6000610348610341610818565b848461081c565b50600192915050565b60025490565b60006103648484846108d0565b6001600160a01b038416600090815260016020526040812081610385610818565b6001600160a01b03166001600160a01b03168152602001908152602001600020549050828110156103d15760405162461bcd60e51b81526004016103c89061133f565b60405180910390fd5b6103ec856103dd610818565b6103e78685611528565b61081c565b506001949350505050565b601290565b60006104066109ed565b905090565b6000610348610418610818565b848460016000610426610818565b6001600160a01b03908116825260208083019390935260409182016000908120918b16815292529020546103e79190611510565b610462610818565b6006546001600160a01b0390811691161461048f5760405162461bcd60e51b81526004016103c890611387565b6104998282610ab0565b5050565b60075490565b6001600160a01b0381166000908152602081905260409020545b919050565b6104ca610818565b6006546001600160a01b039081169116146104f75760405162461bcd60e51b81526004016103c890611387565b6006546040516000916001600160a01b0316907f8be0079c531659141344cd1fd0a4f28419497f9722a3daafe3b4186f6b6457e0908390a3600680546001600160a01b0319169055565b6001600160a01b038116600090815260056020526040812061056290610b93565b92915050565b6006546001600160a01b031690565b6060600480546102b09061153f565b61058e610818565b6006546001600160a01b039081169116146105bb5760405162461bcd60e51b81526004016103c890611387565b6104998282610b97565b600080600160006105d4610818565b6001600160a01b03908116825260208083019390935260409182016000908120918816815292529020549050828110156106205760405162461bcd60e51b81526004016103c890611486565b61063661062b610818565b856103e78685611528565b5060019392505050565b600061034861064d610818565b84846108d0565b834211156106745760405162461bcd60e51b81526004016103c8906111c0565b60007f00000000000000000000000000000000000000000000000000000000000000008888886106a38c610c71565b896040516020016106b996959493929190610fab565b60405160208183030381529060405280519060200120905060006106dc82610ca3565b905060006106ec82878787610cdc565b9050896001600160a01b0316816001600160a01b03161461071f5760405162461bcd60e51b81526004016103c890611308565b61072a8a8a8a61081c565b50505050505050505050565b6001600160a01b03918216600090815260016020908152604080832093909416825291909152205490565b610769610818565b6006546001600160a01b039081169116146107965760405162461bcd60e51b81526004016103c890611387565b6001600160a01b0381166107bc5760405162461bcd60e51b81526004016103c890611138565b6006546040516001600160a01b038084169216907f8be0079c531659141344cd1fd0a4f28419497f9722a3daafe3b4186f6b6457e090600090a3600680546001600160a01b0319166001600160a01b0392909216919091179055565b3390565b6001600160a01b0383166108425760405162461bcd60e51b81526004016103c890611442565b6001600160a01b0382166108685760405162461bcd60e51b81526004016103c89061117e565b6001600160a01b0380841660008181526001602090815260408083209487168084529490915290819020849055517f8c5be1e5ebec7d5bd14f71427d1e84f3dd0314c0f7b2291e5b200ac8c7c3b925906108c3908590610fa2565b60405180910390a3505050565b6001600160a01b0383166108f65760405162461bcd60e51b81526004016103c8906113fd565b6001600160a01b03821661091c5760405162461bcd60e51b81526004016103c8906110b3565b6001600160a01b038316600090815260208190526040902054818110156109555760405162461bcd60e51b81526004016103c8906111f7565b61095f8282611528565b6001600160a01b038086166000908152602081905260408082209390935590851681529081208054849290610995908490611510565b92505081905550826001600160a01b0316846001600160a01b03167fddf252ad1be2c89b69c2b068fc378daa952ba7f163c4a11628f55a4df523b3ef846040516109df9190610fa2565b60405180910390a350505050565b60007f0000000000000000000000000000000000000000000000000000000000000000461415610a3e57507f0000000000000000000000000000000000000000000000000000000000000000610331565b610aa97f00000000000000000000000000000000000000000000000000000000000000007f00000000000000000000000000000000000000000000000000000000000000007f0000000000000000000000000000000000000000000000000000000000000000610dd2565b9050610331565b6001600160a01b038216610ad65760405162461bcd60e51b81526004016103c8906114cb565b60075481600254610ae79190611510565b1115610b055760405162461bcd60e51b81526004016103c8906112c1565b8060026000828254610b179190611510565b90915550506001600160a01b03821660009081526020819052604081208054839290610b44908490611510565b90915550506040516001600160a01b038316906000907fddf252ad1be2c89b69c2b068fc378daa952ba7f163c4a11628f55a4df523b3ef90610b87908590610fa2565b60405180910390a35050565b5490565b6001600160a01b038216610bbd5760405162461bcd60e51b81526004016103c8906113bc565b6001600160a01b03821660009081526020819052604090205481811015610bf65760405162461bcd60e51b81526004016103c8906110f6565b610c008282611528565b6001600160a01b03841660009081526020819052604081209190915560028054849290610c2e908490611528565b90915550506040516000906001600160a01b038516907fddf252ad1be2c89b69c2b068fc378daa952ba7f163c4a11628f55a4df523b3ef906108c3908690610fa2565b6001600160a01b0381166000908152600560205260408120610c9281610b93565b9150610c9d81610e0c565b50919050565b6000610cad6109ed565b82604051602001610cbf929190610f68565b604051602081830303815290604052805190602001209050919050565b60007f7fffffffffffffffffffffffffffffff5d576e7357a4501ddfe92f46681b20a0821115610d1e5760405162461bcd60e51b81526004016103c89061123d565b8360ff16601b1480610d3357508360ff16601c145b610d4f5760405162461bcd60e51b81526004016103c89061127f565b600060018686868660405160008152602001604052604051610d74949392919061100b565b6020604051602081039080840390855afa158015610d96573d6000803e3d6000fd5b5050604051601f1901519150506001600160a01b038116610dc95760405162461bcd60e51b81526004016103c89061107c565b95945050505050565b60008383834630604051602001610ded959493929190610fdf565b6040516020818303038152906040528051906020012090509392505050565b6001816000016000828254610e219190611510565b909155505050565b80356001600160a01b03811681146104bd57600080fd5b600060208284031215610e51578081fd5b610e5a82610e29565b9392505050565b60008060408385031215610e73578081fd5b610e7c83610e29565b9150610e8a60208401610e29565b90509250929050565b600080600060608486031215610ea7578081fd5b610eb084610e29565b9250610ebe60208501610e29565b9150604084013590509250925092565b600080600080600080600060e0888a031215610ee8578283fd5b610ef188610e29565b9650610eff60208901610e29565b95506040880135945060608801359350608088013560ff81168114610f22578384fd5b9699959850939692959460a0840135945060c09093013592915050565b60008060408385031215610f51578182fd5b610f5a83610e29565b946020939093013593505050565b61190160f01b81526002810192909252602282015260420190565b6001600160a01b0391909116815260200190565b901515815260200190565b90815260200190565b9586526001600160a01b0394851660208701529290931660408501526060840152608083019190915260a082015260c00190565b9485526020850193909352604084019190915260608301526001600160a01b0316608082015260a00190565b93845260ff9290921660208401526040830152606082015260800190565b6000602080835283518082850152825b8181101561105557858101830151858201604001528201611039565b818111156110665783604083870101525b50601f01601f1916929092016040019392505050565b60208082526018908201527f45434453413a20696e76616c6964207369676e61747572650000000000000000604082015260600190565b60208082526023908201527f45524332303a207472616e7366657220746f20746865207a65726f206164647260408201526265737360e81b606082015260800190565b60208082526022908201527f45524332303a206275726e20616d6f756e7420657863656564732062616c616e604082015261636560f01b606082015260800190565b60208082526026908201527f4f776e61626c653a206e6577206f776e657220697320746865207a65726f206160408201526564647265737360d01b606082015260800190565b60208082526022908201527f45524332303a20617070726f766520746f20746865207a65726f206164647265604082015261737360f01b606082015260800190565b6020808252601d908201527f45524332305065726d69743a206578706972656420646561646c696e65000000604082015260600190565b60208082526026908201527f45524332303a207472616e7366657220616d6f756e7420657863656564732062604082015265616c616e636560d01b606082015260800190565b60208082526022908201527f45434453413a20696e76616c6964207369676e6174757265202773272076616c604082015261756560f01b606082015260800190565b60208082526022908201527f45434453413a20696e76616c6964207369676e6174757265202776272076616c604082015261756560f01b606082015260800190565b60208082526027908201527f45524332303a206d696e74696e67206d6f7265207468656e204d6178546f74616040820152666c537570706c7960c81b606082015260800190565b6020808252601e908201527f45524332305065726d69743a20696e76616c6964207369676e61747572650000604082015260600190565b60208082526028908201527f45524332303a207472616e7366657220616d6f756e74206578636565647320616040820152676c6c6f77616e636560c01b606082015260800190565b6020808252818101527f4f776e61626c653a2063616c6c6572206973206e6f7420746865206f776e6572604082015260600190565b60208082526021908201527f45524332303a206275726e2066726f6d20746865207a65726f206164647265736040820152607360f81b606082015260800190565b60208082526025908201527f45524332303a207472616e736665722066726f6d20746865207a65726f206164604082015264647265737360d81b606082015260800190565b60208082526024908201527f45524332303a20617070726f76652066726f6d20746865207a65726f206164646040820152637265737360e01b606082015260800190565b60208082526025908201527f45524332303a2064656372656173656420616c6c6f77616e63652062656c6f77604082015264207a65726f60d81b606082015260800190565b6020808252601f908201527f45524332303a206d696e7420746f20746865207a65726f206164647265737300604082015260600190565b60ff91909116815260200190565b6000821982111561152357611523611574565b500190565b60008282101561153a5761153a611574565b500390565b60028104600182168061155357607f821691505b60208210811415610c9d57634e487b7160e01b600052602260045260246000fd5b634e487b7160e01b600052601160045260246000fdfea2646970667358221220d2cf504fc58e6d6910841828c7c282d0369d50f45ccf905b4f24190aab78ba1a64736f6c63430008000033",
  "linkReferences": {},
  "deployedLinkReferences": {}
}